{"abi":[{"inputs":[],"stateMutability":"nonpayable","type":"constructor"},{"inputs":[{"internalType":"address","name":"verifier","type":"address"}],"name":"addVerifier","outputs":[],"stateMutability":"nonpayable","type":"function"},{"inputs":[],"name":"getRequestCount","outputs":[{"internalType":"uint256","name":"","type":"uint256"}],"stateMutability":"view","type":"function"},{"inputs":[],"name":"manager","outputs":[{"internalType":"address","name":"","type":"address"}],"stateMutability":"view","type":"function"},{"inputs":[{"internalType":"string","name":"name","type":"string"},{"internalType":"string","name":"description","type":"string"},{"internalType":"address","name":"recipient","type":"address"},{"internalType":"uint256","name":"value","type":"uint256"}],"name":"raiseMeFund","outputs":[],"stateMutability":"nonpayable","type":"function"},{"inputs":[{"internalType":"uint256","name":"","type":"uint256"}],"name":"requests","outputs":[{"internalType":"string","name":"name","type":"string"},{"internalType":"string","name":"description","type":"string"},{"internalType":"address","name":"recipient","type":"address"},{"internalType":"address","name":"requestManager","type":"address"},{"internalType":"uint256","name":"value","type":"uint256"},{"internalType":"uint256","name":"donated","type":"uint256"},{"internalType":"bool","name":"spam","type":"bool"},{"internalType":"bool","name":"legit","type":"bool"},{"internalType":"bool","name":"completed","type":"bool"}],"stateMutability":"view","type":"function"},{"inputs":[{"internalType":"uint256","name":"index","type":"uint256"}],"name":"sendHelp","outputs":[],"stateMutability":"payable","type":"function"},{"inputs":[{"internalType":"address","name":"","type":"address"}],"name":"spammers","outputs":[{"internalType":"bool","name":"","type":"bool"}],"stateMutability":"view","type":"function"},{"inputs":[{"internalType":"address","name":"","type":"address"}],"name":"verifiers","outputs":[{"internalType":"bool","name":"","type":"bool"}],"stateMutability":"view","type":"function"},{"inputs":[{"internalType":"uint256","name":"index","type":"uint256"},{"internalType":"string","name":"status","type":"string"}],"name":"verifyRequest","outputs":[],"stateMutability":"nonpayable","type":"function"}],"devdoc":{"kind":"dev","methods":{},"version":1},"evm":{"assembly":"    /* \"Fundraiser.sol\":75:2792  contract Fundraiser {... */\n  mstore(0x40, 0x80)\n    /* \"Fundraiser.sol\":513:566  constructor() {... */\n  callvalue\n  dup1\n  iszero\n  tag_1\n  jumpi\n  0x00\n  dup1\n  revert\ntag_1:\n  pop\n    /* \"Fundraiser.sol\":548:558  msg.sender */\n  caller\n    /* \"Fundraiser.sol\":538:545  manager */\n  0x00\n  dup1\n    /* \"Fundraiser.sol\":538:558  manager = msg.sender */\n  0x0100\n  exp\n  dup2\n  sload\n  dup2\n  0xffffffffffffffffffffffffffffffffffffffff\n  mul\n  not\n  and\n  swap1\n  dup4\n  0xffffffffffffffffffffffffffffffffffffffff\n  and\n  mul\n  or\n  swap1\n  sstore\n  pop\n    /* \"Fundraiser.sol\":75:2792  contract Fundraiser {... */\n  dataSize(sub_0)\n  dup1\n  dataOffset(sub_0)\n  0x00\n  codecopy\n  0x00\n  return\nstop\n\nsub_0: assembly {\n        /* \"Fundraiser.sol\":75:2792  contract Fundraiser {... */\n      mstore(0x40, 0x80)\n      jumpi(tag_1, lt(calldatasize, 0x04))\n      shr(0xe0, calldataload(0x00))\n      dup1\n      0x6c824487\n      gt\n      tag_11\n      jumpi\n      dup1\n      0x6c824487\n      eq\n      tag_6\n      jumpi\n      dup1\n      0x81d12c58\n      eq\n      tag_7\n      jumpi\n      dup1\n      0x9000b3d6\n      eq\n      tag_8\n      jumpi\n      dup1\n      0xc742d867\n      eq\n      tag_9\n      jumpi\n      dup1\n      0xf4c161a2\n      eq\n      tag_10\n      jumpi\n      jump(tag_1)\n    tag_11:\n      dup1\n      0x2ec86573\n      eq\n      tag_2\n      jumpi\n      dup1\n      0x3fad1834\n      eq\n      tag_3\n      jumpi\n      dup1\n      0x458ad18a\n      eq\n      tag_4\n      jumpi\n      dup1\n      0x481c6a75\n      eq\n      tag_5\n      jumpi\n    tag_1:\n      0x00\n      dup1\n      revert\n        /* \"Fundraiser.sol\":1458:2150  function verifyRequest(uint index, string memory status) external {... */\n    tag_2:\n      callvalue\n      dup1\n      iszero\n      tag_12\n      jumpi\n      0x00\n      dup1\n      revert\n    tag_12:\n      pop\n      tag_13\n      0x04\n      dup1\n      calldatasize\n      sub\n      dup2\n      add\n      swap1\n      tag_14\n      swap2\n      swap1\n      tag_15\n      jump\t// in\n    tag_14:\n      tag_16\n      jump\t// in\n    tag_13:\n      stop\n        /* \"Fundraiser.sol\":2158:2253  function getRequestCount() public view returns (uint) {... */\n    tag_3:\n      callvalue\n      dup1\n      iszero\n      tag_17\n      jumpi\n      0x00\n      dup1\n      revert\n    tag_17:\n      pop\n      tag_18\n      tag_19\n      jump\t// in\n    tag_18:\n      mload(0x40)\n      tag_20\n      swap2\n      swap1\n      tag_21\n      jump\t// in\n    tag_20:\n      mload(0x40)\n      dup1\n      swap2\n      sub\n      swap1\n      return\n        /* \"Fundraiser.sol\":432:472  mapping(address => bool) public spammers */\n    tag_4:\n      callvalue\n      dup1\n      iszero\n      tag_22\n      jumpi\n      0x00\n      dup1\n      revert\n    tag_22:\n      pop\n      tag_23\n      0x04\n      dup1\n      calldatasize\n      sub\n      dup2\n      add\n      swap1\n      tag_24\n      swap2\n      swap1\n      tag_25\n      jump\t// in\n    tag_24:\n      tag_26\n      jump\t// in\n    tag_23:\n      mload(0x40)\n      tag_27\n      swap2\n      swap1\n      tag_28\n      jump\t// in\n    tag_27:\n      mload(0x40)\n      dup1\n      swap2\n      sub\n      swap1\n      return\n        /* \"Fundraiser.sol\":355:377  address public manager */\n    tag_5:\n      callvalue\n      dup1\n      iszero\n      tag_29\n      jumpi\n      0x00\n      dup1\n      revert\n    tag_29:\n      pop\n      tag_30\n      tag_31\n      jump\t// in\n    tag_30:\n      mload(0x40)\n      tag_32\n      swap2\n      swap1\n      tag_33\n      jump\t// in\n    tag_32:\n      mload(0x40)\n      dup1\n      swap2\n      sub\n      swap1\n      return\n        /* \"Fundraiser.sol\":384:425  mapping(address => bool) public verifiers */\n    tag_6:\n      callvalue\n      dup1\n      iszero\n      tag_34\n      jumpi\n      0x00\n      dup1\n      revert\n    tag_34:\n      pop\n      tag_35\n      0x04\n      dup1\n      calldatasize\n      sub\n      dup2\n      add\n      swap1\n      tag_36\n      swap2\n      swap1\n      tag_25\n      jump\t// in\n    tag_36:\n      tag_37\n      jump\t// in\n    tag_35:\n      mload(0x40)\n      tag_38\n      swap2\n      swap1\n      tag_28\n      jump\t// in\n    tag_38:\n      mload(0x40)\n      dup1\n      swap2\n      sub\n      swap1\n      return\n        /* \"Fundraiser.sol\":479:504  Request[] public requests */\n    tag_7:\n      callvalue\n      dup1\n      iszero\n      tag_39\n      jumpi\n      0x00\n      dup1\n      revert\n    tag_39:\n      pop\n      tag_40\n      0x04\n      dup1\n      calldatasize\n      sub\n      dup2\n      add\n      swap1\n      tag_41\n      swap2\n      swap1\n      tag_42\n      jump\t// in\n    tag_41:\n      tag_43\n      jump\t// in\n    tag_40:\n      mload(0x40)\n      tag_44\n      swap10\n      swap9\n      swap8\n      swap7\n      swap6\n      swap5\n      swap4\n      swap3\n      swap2\n      swap1\n      tag_45\n      jump\t// in\n    tag_44:\n      mload(0x40)\n      dup1\n      swap2\n      sub\n      swap1\n      return\n        /* \"Fundraiser.sol\":574:834  function addVerifier(address verifier) public {... */\n    tag_8:\n      callvalue\n      dup1\n      iszero\n      tag_46\n      jumpi\n      0x00\n      dup1\n      revert\n    tag_46:\n      pop\n      tag_47\n      0x04\n      dup1\n      calldatasize\n      sub\n      dup2\n      add\n      swap1\n      tag_48\n      swap2\n      swap1\n      tag_25\n      jump\t// in\n    tag_48:\n      tag_49\n      jump\t// in\n    tag_47:\n      stop\n        /* \"Fundraiser.sol\":2261:2789  function sendHelp(uint index) external payable {... */\n    tag_9:\n      tag_50\n      0x04\n      dup1\n      calldatasize\n      sub\n      dup2\n      add\n      swap1\n      tag_51\n      swap2\n      swap1\n      tag_42\n      jump\t// in\n    tag_51:\n      tag_52\n      jump\t// in\n    tag_50:\n      stop\n        /* \"Fundraiser.sol\":842:1450  function raiseMeFund(... */\n    tag_10:\n      callvalue\n      dup1\n      iszero\n      tag_53\n      jumpi\n      0x00\n      dup1\n      revert\n    tag_53:\n      pop\n      tag_54\n      0x04\n      dup1\n      calldatasize\n      sub\n      dup2\n      add\n      swap1\n      tag_55\n      swap2\n      swap1\n      tag_56\n      jump\t// in\n    tag_55:\n      tag_57\n      jump\t// in\n    tag_54:\n      stop\n        /* \"Fundraiser.sol\":1458:2150  function verifyRequest(uint index, string memory status) external {... */\n    tag_16:\n        /* \"Fundraiser.sol\":1543:1552  verifiers */\n      0x01\n        /* \"Fundraiser.sol\":1543:1564  verifiers[msg.sender] */\n      0x00\n        /* \"Fundraiser.sol\":1553:1563  msg.sender */\n      caller\n        /* \"Fundraiser.sol\":1543:1564  verifiers[msg.sender] */\n      0xffffffffffffffffffffffffffffffffffffffff\n      and\n      0xffffffffffffffffffffffffffffffffffffffff\n      and\n      dup2\n      mstore\n      0x20\n      add\n      swap1\n      dup2\n      mstore\n      0x20\n      add\n      0x00\n      keccak256\n      0x00\n      swap1\n      sload\n      swap1\n      0x0100\n      exp\n      swap1\n      div\n      0xff\n      and\n        /* \"Fundraiser.sol\":1535:1601  require(verifiers[msg.sender], \"You're not marked as a verifier!\") */\n      tag_59\n      jumpi\n      mload(0x40)\n      0x08c379a000000000000000000000000000000000000000000000000000000000\n      dup2\n      mstore\n      0x04\n      add\n      tag_60\n      swap1\n      tag_61\n      jump\t// in\n    tag_60:\n      mload(0x40)\n      dup1\n      swap2\n      sub\n      swap1\n      revert\n    tag_59:\n        /* \"Fundraiser.sol\":1622:1645  Request storage request */\n      0x00\n        /* \"Fundraiser.sol\":1648:1656  requests */\n      0x03\n        /* \"Fundraiser.sol\":1657:1662  index */\n      dup4\n        /* \"Fundraiser.sol\":1648:1663  requests[index] */\n      dup2\n      sload\n      dup2\n      lt\n      tag_62\n      jumpi\n      tag_63\n      tag_64\n      jump\t// in\n    tag_63:\n    tag_62:\n      swap1\n      0x00\n      mstore\n      keccak256(0x00, 0x20)\n      swap1\n      0x07\n      mul\n      add\n        /* \"Fundraiser.sol\":1622:1663  Request storage request = requests[index] */\n      swap1\n      pop\n        /* \"Fundraiser.sol\":1685:1692  request */\n      dup1\n        /* \"Fundraiser.sol\":1685:1697  request.spam */\n      0x06\n      add\n      0x00\n      swap1\n      sload\n      swap1\n      0x0100\n      exp\n      swap1\n      div\n      0xff\n      and\n        /* \"Fundraiser.sol\":1684:1697  !request.spam */\n      iszero\n        /* \"Fundraiser.sol\":1676:1736  require(!request.spam, \"Request is already marked as spam.\") */\n      tag_66\n      jumpi\n      mload(0x40)\n      0x08c379a000000000000000000000000000000000000000000000000000000000\n      dup2\n      mstore\n      0x04\n      add\n      tag_67\n      swap1\n      tag_68\n      jump\t// in\n    tag_67:\n      mload(0x40)\n      dup1\n      swap2\n      sub\n      swap1\n      revert\n    tag_66:\n        /* \"Fundraiser.sol\":1756:1763  request */\n      dup1\n        /* \"Fundraiser.sol\":1756:1769  request.legit */\n      0x06\n      add\n      0x01\n      swap1\n      sload\n      swap1\n      0x0100\n      exp\n      swap1\n      div\n      0xff\n      and\n        /* \"Fundraiser.sol\":1755:1769  !request.legit */\n      iszero\n        /* \"Fundraiser.sol\":1747:1809  require(!request.legit, \"Request is already marked as legit.\") */\n      tag_69\n      jumpi\n      mload(0x40)\n      0x08c379a000000000000000000000000000000000000000000000000000000000\n      dup2\n      mstore\n      0x04\n      add\n      tag_70\n      swap1\n      tag_71\n      jump\t// in\n    tag_70:\n      mload(0x40)\n      dup1\n      swap2\n      sub\n      swap1\n      revert\n    tag_69:\n        /* \"Fundraiser.sol\":1882:1907  abi.encodePacked('legit') */\n      add(0x20, mload(0x40))\n      tag_72\n      swap1\n      tag_73\n      jump\t// in\n    tag_72:\n      mload(0x40)\n      0x20\n      dup2\n      dup4\n      sub\n      sub\n      dup2\n      mstore\n      swap1\n      0x40\n      mstore\n        /* \"Fundraiser.sol\":1872:1908  keccak256(abi.encodePacked('legit')) */\n      dup1\n      mload\n      swap1\n      0x20\n      add\n      keccak256\n        /* \"Fundraiser.sol\":1860:1866  status */\n      dup3\n        /* \"Fundraiser.sol\":1843:1867  abi.encodePacked(status) */\n      add(0x20, mload(0x40))\n      tag_74\n      swap2\n      swap1\n      tag_75\n      jump\t// in\n    tag_74:\n      mload(0x40)\n      0x20\n      dup2\n      dup4\n      sub\n      sub\n      dup2\n      mstore\n      swap1\n      0x40\n      mstore\n        /* \"Fundraiser.sol\":1833:1868  keccak256(abi.encodePacked(status)) */\n      dup1\n      mload\n      swap1\n      0x20\n      add\n      keccak256\n        /* \"Fundraiser.sol\":1833:1908  keccak256(abi.encodePacked(status)) == keccak256(abi.encodePacked('legit')) */\n      sub\n        /* \"Fundraiser.sol\":1830:2143  if(keccak256(abi.encodePacked(status)) == keccak256(abi.encodePacked('legit'))) {... */\n      tag_76\n      jumpi\n        /* \"Fundraiser.sol\":1941:1945  true */\n      0x01\n        /* \"Fundraiser.sol\":1925:1932  request */\n      dup2\n        /* \"Fundraiser.sol\":1925:1938  request.legit */\n      0x06\n      add\n      0x01\n        /* \"Fundraiser.sol\":1925:1945  request.legit = true */\n      0x0100\n      exp\n      dup2\n      sload\n      dup2\n      0xff\n      mul\n      not\n      and\n      swap1\n      dup4\n      iszero\n      iszero\n      mul\n      or\n      swap1\n      sstore\n      pop\n        /* \"Fundraiser.sol\":1830:2143  if(keccak256(abi.encodePacked(status)) == keccak256(abi.encodePacked('legit'))) {... */\n      jump(tag_77)\n    tag_76:\n        /* \"Fundraiser.sol\":2016:2040  abi.encodePacked('spam') */\n      add(0x20, mload(0x40))\n      tag_78\n      swap1\n      tag_79\n      jump\t// in\n    tag_78:\n      mload(0x40)\n      0x20\n      dup2\n      dup4\n      sub\n      sub\n      dup2\n      mstore\n      swap1\n      0x40\n      mstore\n        /* \"Fundraiser.sol\":2006:2041  keccak256(abi.encodePacked('spam')) */\n      dup1\n      mload\n      swap1\n      0x20\n      add\n      keccak256\n        /* \"Fundraiser.sol\":1994:2000  status */\n      dup3\n        /* \"Fundraiser.sol\":1977:2001  abi.encodePacked(status) */\n      add(0x20, mload(0x40))\n      tag_80\n      swap2\n      swap1\n      tag_75\n      jump\t// in\n    tag_80:\n      mload(0x40)\n      0x20\n      dup2\n      dup4\n      sub\n      sub\n      dup2\n      mstore\n      swap1\n      0x40\n      mstore\n        /* \"Fundraiser.sol\":1967:2002  keccak256(abi.encodePacked(status)) */\n      dup1\n      mload\n      swap1\n      0x20\n      add\n      keccak256\n        /* \"Fundraiser.sol\":1967:2041  keccak256(abi.encodePacked(status)) == keccak256(abi.encodePacked('spam')) */\n      sub\n        /* \"Fundraiser.sol\":1963:2143  if (keccak256(abi.encodePacked(status)) == keccak256(abi.encodePacked('spam'))) {... */\n      tag_81\n      jumpi\n        /* \"Fundraiser.sol\":2073:2077  true */\n      0x01\n        /* \"Fundraiser.sol\":2058:2065  request */\n      dup2\n        /* \"Fundraiser.sol\":2058:2070  request.spam */\n      0x06\n      add\n      0x00\n        /* \"Fundraiser.sol\":2058:2077  request.spam = true */\n      0x0100\n      exp\n      dup2\n      sload\n      dup2\n      0xff\n      mul\n      not\n      and\n      swap1\n      dup4\n      iszero\n      iszero\n      mul\n      or\n      swap1\n      sstore\n      pop\n        /* \"Fundraiser.sol\":2127:2131  true */\n      0x01\n        /* \"Fundraiser.sol\":2092:2100  spammers */\n      0x02\n        /* \"Fundraiser.sol\":2092:2124  spammers[request.requestManager] */\n      0x00\n        /* \"Fundraiser.sol\":2101:2108  request */\n      dup4\n        /* \"Fundraiser.sol\":2101:2123  request.requestManager */\n      0x03\n      add\n      0x00\n      swap1\n      sload\n      swap1\n      0x0100\n      exp\n      swap1\n      div\n      0xffffffffffffffffffffffffffffffffffffffff\n      and\n        /* \"Fundraiser.sol\":2092:2124  spammers[request.requestManager] */\n      0xffffffffffffffffffffffffffffffffffffffff\n      and\n      0xffffffffffffffffffffffffffffffffffffffff\n      and\n      dup2\n      mstore\n      0x20\n      add\n      swap1\n      dup2\n      mstore\n      0x20\n      add\n      0x00\n      keccak256\n      0x00\n        /* \"Fundraiser.sol\":2092:2131  spammers[request.requestManager] = true */\n      0x0100\n      exp\n      dup2\n      sload\n      dup2\n      0xff\n      mul\n      not\n      and\n      swap1\n      dup4\n      iszero\n      iszero\n      mul\n      or\n      swap1\n      sstore\n      pop\n        /* \"Fundraiser.sol\":1963:2143  if (keccak256(abi.encodePacked(status)) == keccak256(abi.encodePacked('spam'))) {... */\n    tag_81:\n        /* \"Fundraiser.sol\":1830:2143  if(keccak256(abi.encodePacked(status)) == keccak256(abi.encodePacked('legit'))) {... */\n    tag_77:\n        /* \"Fundraiser.sol\":1524:2150  {... */\n      pop\n        /* \"Fundraiser.sol\":1458:2150  function verifyRequest(uint index, string memory status) external {... */\n      pop\n      pop\n      jump\t// out\n        /* \"Fundraiser.sol\":2158:2253  function getRequestCount() public view returns (uint) {... */\n    tag_19:\n        /* \"Fundraiser.sol\":2206:2210  uint */\n      0x00\n        /* \"Fundraiser.sol\":2230:2238  requests */\n      0x03\n        /* \"Fundraiser.sol\":2230:2245  requests.length */\n      dup1\n      sload\n      swap1\n      pop\n        /* \"Fundraiser.sol\":2223:2245  return requests.length */\n      swap1\n      pop\n        /* \"Fundraiser.sol\":2158:2253  function getRequestCount() public view returns (uint) {... */\n      swap1\n      jump\t// out\n        /* \"Fundraiser.sol\":432:472  mapping(address => bool) public spammers */\n    tag_26:\n      mstore(0x20, 0x02)\n      dup1\n      0x00\n      mstore\n      keccak256(0x00, 0x40)\n      0x00\n      swap2\n      pop\n      sload\n      swap1\n      0x0100\n      exp\n      swap1\n      div\n      0xff\n      and\n      dup2\n      jump\t// out\n        /* \"Fundraiser.sol\":355:377  address public manager */\n    tag_31:\n      0x00\n      dup1\n      sload\n      swap1\n      0x0100\n      exp\n      swap1\n      div\n      0xffffffffffffffffffffffffffffffffffffffff\n      and\n      dup2\n      jump\t// out\n        /* \"Fundraiser.sol\":384:425  mapping(address => bool) public verifiers */\n    tag_37:\n      mstore(0x20, 0x01)\n      dup1\n      0x00\n      mstore\n      keccak256(0x00, 0x40)\n      0x00\n      swap2\n      pop\n      sload\n      swap1\n      0x0100\n      exp\n      swap1\n      div\n      0xff\n      and\n      dup2\n      jump\t// out\n        /* \"Fundraiser.sol\":479:504  Request[] public requests */\n    tag_43:\n      0x03\n      dup2\n      dup2\n      sload\n      dup2\n      lt\n      tag_83\n      jumpi\n      0x00\n      dup1\n      revert\n    tag_83:\n      swap1\n      0x00\n      mstore\n      keccak256(0x00, 0x20)\n      swap1\n      0x07\n      mul\n      add\n      0x00\n      swap2\n      pop\n      swap1\n      pop\n      dup1\n      0x00\n      add\n      dup1\n      sload\n      tag_85\n      swap1\n      tag_86\n      jump\t// in\n    tag_85:\n      dup1\n      0x1f\n      add\n      0x20\n      dup1\n      swap2\n      div\n      mul\n      0x20\n      add\n      mload(0x40)\n      swap1\n      dup2\n      add\n      0x40\n      mstore\n      dup1\n      swap3\n      swap2\n      swap1\n      dup2\n      dup2\n      mstore\n      0x20\n      add\n      dup3\n      dup1\n      sload\n      tag_87\n      swap1\n      tag_86\n      jump\t// in\n    tag_87:\n      dup1\n      iszero\n      tag_88\n      jumpi\n      dup1\n      0x1f\n      lt\n      tag_89\n      jumpi\n      0x0100\n      dup1\n      dup4\n      sload\n      div\n      mul\n      dup4\n      mstore\n      swap2\n      0x20\n      add\n      swap2\n      jump(tag_88)\n    tag_89:\n      dup3\n      add\n      swap2\n      swap1\n      0x00\n      mstore\n      keccak256(0x00, 0x20)\n      swap1\n    tag_90:\n      dup2\n      sload\n      dup2\n      mstore\n      swap1\n      0x01\n      add\n      swap1\n      0x20\n      add\n      dup1\n      dup4\n      gt\n      tag_90\n      jumpi\n      dup3\n      swap1\n      sub\n      0x1f\n      and\n      dup3\n      add\n      swap2\n    tag_88:\n      pop\n      pop\n      pop\n      pop\n      pop\n      swap1\n      dup1\n      0x01\n      add\n      dup1\n      sload\n      tag_91\n      swap1\n      tag_86\n      jump\t// in\n    tag_91:\n      dup1\n      0x1f\n      add\n      0x20\n      dup1\n      swap2\n      div\n      mul\n      0x20\n      add\n      mload(0x40)\n      swap1\n      dup2\n      add\n      0x40\n      mstore\n      dup1\n      swap3\n      swap2\n      swap1\n      dup2\n      dup2\n      mstore\n      0x20\n      add\n      dup3\n      dup1\n      sload\n      tag_92\n      swap1\n      tag_86\n      jump\t// in\n    tag_92:\n      dup1\n      iszero\n      tag_93\n      jumpi\n      dup1\n      0x1f\n      lt\n      tag_94\n      jumpi\n      0x0100\n      dup1\n      dup4\n      sload\n      div\n      mul\n      dup4\n      mstore\n      swap2\n      0x20\n      add\n      swap2\n      jump(tag_93)\n    tag_94:\n      dup3\n      add\n      swap2\n      swap1\n      0x00\n      mstore\n      keccak256(0x00, 0x20)\n      swap1\n    tag_95:\n      dup2\n      sload\n      dup2\n      mstore\n      swap1\n      0x01\n      add\n      swap1\n      0x20\n      add\n      dup1\n      dup4\n      gt\n      tag_95\n      jumpi\n      dup3\n      swap1\n      sub\n      0x1f\n      and\n      dup3\n      add\n      swap2\n    tag_93:\n      pop\n      pop\n      pop\n      pop\n      pop\n      swap1\n      dup1\n      0x02\n      add\n      0x00\n      swap1\n      sload\n      swap1\n      0x0100\n      exp\n      swap1\n      div\n      0xffffffffffffffffffffffffffffffffffffffff\n      and\n      swap1\n      dup1\n      0x03\n      add\n      0x00\n      swap1\n      sload\n      swap1\n      0x0100\n      exp\n      swap1\n      div\n      0xffffffffffffffffffffffffffffffffffffffff\n      and\n      swap1\n      dup1\n      0x04\n      add\n      sload\n      swap1\n      dup1\n      0x05\n      add\n      sload\n      swap1\n      dup1\n      0x06\n      add\n      0x00\n      swap1\n      sload\n      swap1\n      0x0100\n      exp\n      swap1\n      div\n      0xff\n      and\n      swap1\n      dup1\n      0x06\n      add\n      0x01\n      swap1\n      sload\n      swap1\n      0x0100\n      exp\n      swap1\n      div\n      0xff\n      and\n      swap1\n      dup1\n      0x06\n      add\n      0x02\n      swap1\n      sload\n      swap1\n      0x0100\n      exp\n      swap1\n      div\n      0xff\n      and\n      swap1\n      pop\n      dup10\n      jump\t// out\n        /* \"Fundraiser.sol\":574:834  function addVerifier(address verifier) public {... */\n    tag_49:\n        /* \"Fundraiser.sol\":653:660  manager */\n      0x00\n      dup1\n      sload\n      swap1\n      0x0100\n      exp\n      swap1\n      div\n      0xffffffffffffffffffffffffffffffffffffffff\n      and\n        /* \"Fundraiser.sol\":639:660  msg.sender == manager */\n      0xffffffffffffffffffffffffffffffffffffffff\n      and\n        /* \"Fundraiser.sol\":639:649  msg.sender */\n      caller\n        /* \"Fundraiser.sol\":639:660  msg.sender == manager */\n      0xffffffffffffffffffffffffffffffffffffffff\n      and\n      eq\n        /* \"Fundraiser.sol\":631:704  require(msg.sender == manager, \"Only contract manager can set verifier.\") */\n      tag_97\n      jumpi\n      mload(0x40)\n      0x08c379a000000000000000000000000000000000000000000000000000000000\n      dup2\n      mstore\n      0x04\n      add\n      tag_98\n      swap1\n      tag_99\n      jump\t// in\n    tag_98:\n      mload(0x40)\n      dup1\n      swap2\n      sub\n      swap1\n      revert\n    tag_97:\n        /* \"Fundraiser.sol\":724:733  verifiers */\n      0x01\n        /* \"Fundraiser.sol\":724:743  verifiers[verifier] */\n      0x00\n        /* \"Fundraiser.sol\":734:742  verifier */\n      dup3\n        /* \"Fundraiser.sol\":724:743  verifiers[verifier] */\n      0xffffffffffffffffffffffffffffffffffffffff\n      and\n      0xffffffffffffffffffffffffffffffffffffffff\n      and\n      dup2\n      mstore\n      0x20\n      add\n      swap1\n      dup2\n      mstore\n      0x20\n      add\n      0x00\n      keccak256\n      0x00\n      swap1\n      sload\n      swap1\n      0x0100\n      exp\n      swap1\n      div\n      0xff\n      and\n        /* \"Fundraiser.sol\":723:743  !verifiers[verifier] */\n      iszero\n        /* \"Fundraiser.sol\":715:787  require(!verifiers[verifier], \"Requested verifier is already included.\") */\n      tag_100\n      jumpi\n      mload(0x40)\n      0x08c379a000000000000000000000000000000000000000000000000000000000\n      dup2\n      mstore\n      0x04\n      add\n      tag_101\n      swap1\n      tag_102\n      jump\t// in\n    tag_101:\n      mload(0x40)\n      dup1\n      swap2\n      sub\n      swap1\n      revert\n    tag_100:\n        /* \"Fundraiser.sol\":822:826  true */\n      0x01\n        /* \"Fundraiser.sol\":800:809  verifiers */\n      dup1\n        /* \"Fundraiser.sol\":800:819  verifiers[verifier] */\n      0x00\n        /* \"Fundraiser.sol\":810:818  verifier */\n      dup4\n        /* \"Fundraiser.sol\":800:819  verifiers[verifier] */\n      0xffffffffffffffffffffffffffffffffffffffff\n      and\n      0xffffffffffffffffffffffffffffffffffffffff\n      and\n      dup2\n      mstore\n      0x20\n      add\n      swap1\n      dup2\n      mstore\n      0x20\n      add\n      0x00\n      keccak256\n      0x00\n        /* \"Fundraiser.sol\":800:826  verifiers[verifier] = true */\n      0x0100\n      exp\n      dup2\n      sload\n      dup2\n      0xff\n      mul\n      not\n      and\n      swap1\n      dup4\n      iszero\n      iszero\n      mul\n      or\n      swap1\n      sstore\n      pop\n        /* \"Fundraiser.sol\":574:834  function addVerifier(address verifier) public {... */\n      pop\n      jump\t// out\n        /* \"Fundraiser.sol\":2261:2789  function sendHelp(uint index) external payable {... */\n    tag_52:\n        /* \"Fundraiser.sol\":2319:2342  Request storage request */\n      0x00\n        /* \"Fundraiser.sol\":2345:2353  requests */\n      0x03\n        /* \"Fundraiser.sol\":2354:2359  index */\n      dup3\n        /* \"Fundraiser.sol\":2345:2360  requests[index] */\n      dup2\n      sload\n      dup2\n      lt\n      tag_104\n      jumpi\n      tag_105\n      tag_64\n      jump\t// in\n    tag_105:\n    tag_104:\n      swap1\n      0x00\n      mstore\n      keccak256(0x00, 0x20)\n      swap1\n      0x07\n      mul\n      add\n        /* \"Fundraiser.sol\":2319:2360  Request storage request = requests[index] */\n      swap1\n      pop\n        /* \"Fundraiser.sol\":2382:2389  request */\n      dup1\n        /* \"Fundraiser.sol\":2382:2394  request.spam */\n      0x06\n      add\n      0x00\n      swap1\n      sload\n      swap1\n      0x0100\n      exp\n      swap1\n      div\n      0xff\n      and\n        /* \"Fundraiser.sol\":2381:2394  !request.spam */\n      iszero\n        /* \"Fundraiser.sol\":2373:2425  require(!request.spam, \"Request is marked as spam.\") */\n      tag_107\n      jumpi\n      mload(0x40)\n      0x08c379a000000000000000000000000000000000000000000000000000000000\n      dup2\n      mstore\n      0x04\n      add\n      tag_108\n      swap1\n      tag_109\n      jump\t// in\n    tag_108:\n      mload(0x40)\n      dup1\n      swap2\n      sub\n      swap1\n      revert\n    tag_107:\n        /* \"Fundraiser.sol\":2445:2453  spammers */\n      0x02\n        /* \"Fundraiser.sol\":2445:2477  spammers[request.requestManager] */\n      0x00\n        /* \"Fundraiser.sol\":2454:2461  request */\n      dup3\n        /* \"Fundraiser.sol\":2454:2476  request.requestManager */\n      0x03\n      add\n      0x00\n      swap1\n      sload\n      swap1\n      0x0100\n      exp\n      swap1\n      div\n      0xffffffffffffffffffffffffffffffffffffffff\n      and\n        /* \"Fundraiser.sol\":2445:2477  spammers[request.requestManager] */\n      0xffffffffffffffffffffffffffffffffffffffff\n      and\n      0xffffffffffffffffffffffffffffffffffffffff\n      and\n      dup2\n      mstore\n      0x20\n      add\n      swap1\n      dup2\n      mstore\n      0x20\n      add\n      0x00\n      keccak256\n      0x00\n      swap1\n      sload\n      swap1\n      0x0100\n      exp\n      swap1\n      div\n      0xff\n      and\n        /* \"Fundraiser.sol\":2444:2477  !spammers[request.requestManager] */\n      iszero\n        /* \"Fundraiser.sol\":2436:2510  require(!spammers[request.requestManager], \"Requestor is marked as spam.\") */\n      tag_110\n      jumpi\n      mload(0x40)\n      0x08c379a000000000000000000000000000000000000000000000000000000000\n      dup2\n      mstore\n      0x04\n      add\n      tag_111\n      swap1\n      tag_112\n      jump\t// in\n    tag_111:\n      mload(0x40)\n      dup1\n      swap2\n      sub\n      swap1\n      revert\n    tag_110:\n        /* \"Fundraiser.sol\":2530:2537  request */\n      dup1\n        /* \"Fundraiser.sol\":2530:2547  request.completed */\n      0x06\n      add\n      0x02\n      swap1\n      sload\n      swap1\n      0x0100\n      exp\n      swap1\n      div\n      0xff\n      and\n        /* \"Fundraiser.sol\":2529:2547  !request.completed */\n      iszero\n        /* \"Fundraiser.sol\":2521:2583  require(!request.completed, \"Fund request already fulfilled.\") */\n      tag_113\n      jumpi\n      mload(0x40)\n      0x08c379a000000000000000000000000000000000000000000000000000000000\n      dup2\n      mstore\n      0x04\n      add\n      tag_114\n      swap1\n      tag_115\n      jump\t// in\n    tag_114:\n      mload(0x40)\n      dup1\n      swap2\n      sub\n      swap1\n      revert\n    tag_113:\n        /* \"Fundraiser.sol\":2615:2624  msg.value */\n      callvalue\n        /* \"Fundraiser.sol\":2596:2603  request */\n      dup2\n        /* \"Fundraiser.sol\":2596:2611  request.donated */\n      0x05\n      add\n      0x00\n        /* \"Fundraiser.sol\":2596:2624  request.donated += msg.value */\n      dup3\n      dup3\n      sload\n      tag_116\n      swap2\n      swap1\n      tag_117\n      jump\t// in\n    tag_116:\n      swap3\n      pop\n      pop\n      dup2\n      swap1\n      sstore\n      pop\n        /* \"Fundraiser.sol\":2657:2664  request */\n      dup1\n        /* \"Fundraiser.sol\":2657:2670  request.value */\n      0x04\n      add\n      sload\n        /* \"Fundraiser.sol\":2638:2645  request */\n      dup2\n        /* \"Fundraiser.sol\":2638:2653  request.donated */\n      0x05\n      add\n      sload\n        /* \"Fundraiser.sol\":2638:2670  request.donated >= request.value */\n      lt\n        /* \"Fundraiser.sol\":2635:2723  if(request.donated >= request.value) {... */\n      tag_118\n      jumpi\n        /* \"Fundraiser.sol\":2707:2711  true */\n      0x01\n        /* \"Fundraiser.sol\":2687:2694  request */\n      dup2\n        /* \"Fundraiser.sol\":2687:2704  request.completed */\n      0x06\n      add\n      0x02\n        /* \"Fundraiser.sol\":2687:2711  request.completed = true */\n      0x0100\n      exp\n      dup2\n      sload\n      dup2\n      0xff\n      mul\n      not\n      and\n      swap1\n      dup4\n      iszero\n      iszero\n      mul\n      or\n      swap1\n      sstore\n      pop\n        /* \"Fundraiser.sol\":2635:2723  if(request.donated >= request.value) {... */\n    tag_118:\n        /* \"Fundraiser.sol\":2743:2750  request */\n      dup1\n        /* \"Fundraiser.sol\":2743:2760  request.recipient */\n      0x02\n      add\n      0x00\n      swap1\n      sload\n      swap1\n      0x0100\n      exp\n      swap1\n      div\n      0xffffffffffffffffffffffffffffffffffffffff\n      and\n        /* \"Fundraiser.sol\":2735:2770  payable(request.recipient).transfer */\n      0xffffffffffffffffffffffffffffffffffffffff\n      and\n        /* \"Fundraiser.sol\":2735:2781  payable(request.recipient).transfer(msg.value) */\n      0x08fc\n        /* \"Fundraiser.sol\":2771:2780  msg.value */\n      callvalue\n        /* \"Fundraiser.sol\":2735:2781  payable(request.recipient).transfer(msg.value) */\n      swap1\n      dup2\n      iszero\n      mul\n      swap1\n      mload(0x40)\n      0x00\n      mload(0x40)\n      dup1\n      dup4\n      sub\n      dup2\n      dup6\n      dup9\n      dup9\n      call\n      swap4\n      pop\n      pop\n      pop\n      pop\n      iszero\n      dup1\n      iszero\n      tag_120\n      jumpi\n      returndatasize\n      0x00\n      dup1\n      returndatacopy\n      revert(0x00, returndatasize)\n    tag_120:\n      pop\n        /* \"Fundraiser.sol\":2308:2789  {... */\n      pop\n        /* \"Fundraiser.sol\":2261:2789  function sendHelp(uint index) external payable {... */\n      pop\n      jump\t// out\n        /* \"Fundraiser.sol\":842:1450  function raiseMeFund(... */\n    tag_57:\n        /* \"Fundraiser.sol\":1013:1021  spammers */\n      0x02\n        /* \"Fundraiser.sol\":1013:1033  spammers[msg.sender] */\n      0x00\n        /* \"Fundraiser.sol\":1022:1032  msg.sender */\n      caller\n        /* \"Fundraiser.sol\":1013:1033  spammers[msg.sender] */\n      0xffffffffffffffffffffffffffffffffffffffff\n      and\n      0xffffffffffffffffffffffffffffffffffffffff\n      and\n      dup2\n      mstore\n      0x20\n      add\n      swap1\n      dup2\n      mstore\n      0x20\n      add\n      0x00\n      keccak256\n      0x00\n      swap1\n      sload\n      swap1\n      0x0100\n      exp\n      swap1\n      div\n      0xff\n      and\n        /* \"Fundraiser.sol\":1012:1033  !spammers[msg.sender] */\n      iszero\n        /* \"Fundraiser.sol\":1004:1067  require(!spammers[msg.sender], \"Suspicious activity detected!\") */\n      tag_122\n      jumpi\n      mload(0x40)\n      0x08c379a000000000000000000000000000000000000000000000000000000000\n      dup2\n      mstore\n      0x04\n      add\n      tag_123\n      swap1\n      tag_124\n      jump\t// in\n    tag_123:\n      mload(0x40)\n      dup1\n      swap2\n      sub\n      swap1\n      revert\n    tag_122:\n        /* \"Fundraiser.sol\":1080:1105  Request memory newRequest */\n      0x00\n        /* \"Fundraiser.sol\":1108:1404  Request({... */\n      mload(0x40)\n      dup1\n      0x0120\n      add\n      0x40\n      mstore\n      dup1\n        /* \"Fundraiser.sol\":1137:1141  name */\n      dup7\n        /* \"Fundraiser.sol\":1108:1404  Request({... */\n      dup2\n      mstore\n      0x20\n      add\n        /* \"Fundraiser.sol\":1169:1180  description */\n      dup6\n        /* \"Fundraiser.sol\":1108:1404  Request({... */\n      dup2\n      mstore\n      0x20\n      add\n        /* \"Fundraiser.sol\":1206:1215  recipient */\n      dup5\n        /* \"Fundraiser.sol\":1108:1404  Request({... */\n      0xffffffffffffffffffffffffffffffffffffffff\n      and\n      dup2\n      mstore\n      0x20\n      add\n        /* \"Fundraiser.sol\":1246:1256  msg.sender */\n      caller\n        /* \"Fundraiser.sol\":1108:1404  Request({... */\n      0xffffffffffffffffffffffffffffffffffffffff\n      and\n      dup2\n      mstore\n      0x20\n      add\n        /* \"Fundraiser.sol\":1278:1283  value */\n      dup4\n        /* \"Fundraiser.sol\":1108:1404  Request({... */\n      dup2\n      mstore\n      0x20\n      add\n        /* \"Fundraiser.sol\":1307:1308  0 */\n      0x00\n        /* \"Fundraiser.sol\":1108:1404  Request({... */\n      dup2\n      mstore\n      0x20\n      add\n        /* \"Fundraiser.sol\":1329:1334  false */\n      0x00\n        /* \"Fundraiser.sol\":1108:1404  Request({... */\n      iszero\n      iszero\n      dup2\n      mstore\n      0x20\n      add\n        /* \"Fundraiser.sol\":1356:1361  false */\n      0x00\n        /* \"Fundraiser.sol\":1108:1404  Request({... */\n      iszero\n      iszero\n      dup2\n      mstore\n      0x20\n      add\n        /* \"Fundraiser.sol\":1387:1392  false */\n      0x00\n        /* \"Fundraiser.sol\":1108:1404  Request({... */\n      iszero\n      iszero\n      dup2\n      mstore\n      pop\n        /* \"Fundraiser.sol\":1080:1404  Request memory newRequest = Request({... */\n      swap1\n      pop\n        /* \"Fundraiser.sol\":1417:1425  requests */\n      0x03\n        /* \"Fundraiser.sol\":1431:1441  newRequest */\n      dup2\n        /* \"Fundraiser.sol\":1417:1442  requests.push(newRequest) */\n      swap1\n      dup1\n      0x01\n      dup2\n      sload\n      add\n      dup1\n      dup3\n      sstore\n      dup1\n      swap2\n      pop\n      pop\n      0x01\n      swap1\n      sub\n      swap1\n      0x00\n      mstore\n      keccak256(0x00, 0x20)\n      swap1\n      0x07\n      mul\n      add\n      0x00\n      swap1\n      swap2\n      swap1\n      swap2\n      swap1\n      swap2\n      pop\n      0x00\n      dup3\n      add\n      mload\n      dup2\n      0x00\n      add\n      swap1\n      dup1\n      mload\n      swap1\n      0x20\n      add\n      swap1\n      tag_126\n      swap3\n      swap2\n      swap1\n      tag_127\n      jump\t// in\n    tag_126:\n      pop\n      0x20\n      dup3\n      add\n      mload\n      dup2\n      0x01\n      add\n      swap1\n      dup1\n      mload\n      swap1\n      0x20\n      add\n      swap1\n      tag_128\n      swap3\n      swap2\n      swap1\n      tag_127\n      jump\t// in\n    tag_128:\n      pop\n      0x40\n      dup3\n      add\n      mload\n      dup2\n      0x02\n      add\n      exp(0x0100, 0x00)\n      dup2\n      sload\n      dup2\n      0xffffffffffffffffffffffffffffffffffffffff\n      mul\n      not\n      and\n      swap1\n      dup4\n      0xffffffffffffffffffffffffffffffffffffffff\n      and\n      mul\n      or\n      swap1\n      sstore\n      pop\n      0x60\n      dup3\n      add\n      mload\n      dup2\n      0x03\n      add\n      exp(0x0100, 0x00)\n      dup2\n      sload\n      dup2\n      0xffffffffffffffffffffffffffffffffffffffff\n      mul\n      not\n      and\n      swap1\n      dup4\n      0xffffffffffffffffffffffffffffffffffffffff\n      and\n      mul\n      or\n      swap1\n      sstore\n      pop\n      0x80\n      dup3\n      add\n      mload\n      dup2\n      0x04\n      add\n      sstore\n      0xa0\n      dup3\n      add\n      mload\n      dup2\n      0x05\n      add\n      sstore\n      0xc0\n      dup3\n      add\n      mload\n      dup2\n      0x06\n      add\n      exp(0x0100, 0x00)\n      dup2\n      sload\n      dup2\n      0xff\n      mul\n      not\n      and\n      swap1\n      dup4\n      iszero\n      iszero\n      mul\n      or\n      swap1\n      sstore\n      pop\n      0xe0\n      dup3\n      add\n      mload\n      dup2\n      0x06\n      add\n      exp(0x0100, 0x01)\n      dup2\n      sload\n      dup2\n      0xff\n      mul\n      not\n      and\n      swap1\n      dup4\n      iszero\n      iszero\n      mul\n      or\n      swap1\n      sstore\n      pop\n      0x0100\n      dup3\n      add\n      mload\n      dup2\n      0x06\n      add\n      exp(0x0100, 0x02)\n      dup2\n      sload\n      dup2\n      0xff\n      mul\n      not\n      and\n      swap1\n      dup4\n      iszero\n      iszero\n      mul\n      or\n      swap1\n      sstore\n      pop\n      pop\n      pop\n        /* \"Fundraiser.sol\":993:1450  {... */\n      pop\n        /* \"Fundraiser.sol\":842:1450  function raiseMeFund(... */\n      pop\n      pop\n      pop\n      pop\n      jump\t// out\n    tag_127:\n      dup3\n      dup1\n      sload\n      tag_129\n      swap1\n      tag_86\n      jump\t// in\n    tag_129:\n      swap1\n      0x00\n      mstore\n      keccak256(0x00, 0x20)\n      swap1\n      0x1f\n      add\n      0x20\n      swap1\n      div\n      dup2\n      add\n      swap3\n      dup3\n      tag_131\n      jumpi\n      0x00\n      dup6\n      sstore\n      jump(tag_130)\n    tag_131:\n      dup3\n      0x1f\n      lt\n      tag_132\n      jumpi\n      dup1\n      mload\n      not(0xff)\n      and\n      dup4\n      dup1\n      add\n      or\n      dup6\n      sstore\n      jump(tag_130)\n    tag_132:\n      dup3\n      dup1\n      add\n      0x01\n      add\n      dup6\n      sstore\n      dup3\n      iszero\n      tag_130\n      jumpi\n      swap2\n      dup3\n      add\n    tag_133:\n      dup3\n      dup2\n      gt\n      iszero\n      tag_134\n      jumpi\n      dup3\n      mload\n      dup3\n      sstore\n      swap2\n      0x20\n      add\n      swap2\n      swap1\n      0x01\n      add\n      swap1\n      jump(tag_133)\n    tag_134:\n    tag_130:\n      pop\n      swap1\n      pop\n      tag_135\n      swap2\n      swap1\n      tag_136\n      jump\t// in\n    tag_135:\n      pop\n      swap1\n      jump\t// out\n    tag_136:\n    tag_137:\n      dup1\n      dup3\n      gt\n      iszero\n      tag_138\n      jumpi\n      0x00\n      dup2\n      0x00\n      swap1\n      sstore\n      pop\n      0x01\n      add\n      jump(tag_137)\n    tag_138:\n      pop\n      swap1\n      jump\t// out\n        /* \"#utility.yul\":7:82   */\n    tag_139:\n        /* \"#utility.yul\":40:46   */\n      0x00\n        /* \"#utility.yul\":73:75   */\n      0x40\n        /* \"#utility.yul\":67:76   */\n      mload\n        /* \"#utility.yul\":57:76   */\n      swap1\n      pop\n        /* \"#utility.yul\":7:82   */\n      swap1\n      jump\t// out\n        /* \"#utility.yul\":88:205   */\n    tag_140:\n        /* \"#utility.yul\":197:198   */\n      0x00\n        /* \"#utility.yul\":194:195   */\n      dup1\n        /* \"#utility.yul\":187:199   */\n      revert\n        /* \"#utility.yul\":211:328   */\n    tag_141:\n        /* \"#utility.yul\":320:321   */\n      0x00\n        /* \"#utility.yul\":317:318   */\n      dup1\n        /* \"#utility.yul\":310:322   */\n      revert\n        /* \"#utility.yul\":334:411   */\n    tag_142:\n        /* \"#utility.yul\":371:378   */\n      0x00\n        /* \"#utility.yul\":400:405   */\n      dup2\n        /* \"#utility.yul\":389:405   */\n      swap1\n      pop\n        /* \"#utility.yul\":334:411   */\n      swap2\n      swap1\n      pop\n      jump\t// out\n        /* \"#utility.yul\":417:539   */\n    tag_143:\n        /* \"#utility.yul\":490:514   */\n      tag_199\n        /* \"#utility.yul\":508:513   */\n      dup2\n        /* \"#utility.yul\":490:514   */\n      tag_142\n      jump\t// in\n    tag_199:\n        /* \"#utility.yul\":483:488   */\n      dup2\n        /* \"#utility.yul\":480:515   */\n      eq\n        /* \"#utility.yul\":470:533   */\n      tag_200\n      jumpi\n        /* \"#utility.yul\":529:530   */\n      0x00\n        /* \"#utility.yul\":526:527   */\n      dup1\n        /* \"#utility.yul\":519:531   */\n      revert\n        /* \"#utility.yul\":470:533   */\n    tag_200:\n        /* \"#utility.yul\":417:539   */\n      pop\n      jump\t// out\n        /* \"#utility.yul\":545:684   */\n    tag_144:\n        /* \"#utility.yul\":591:596   */\n      0x00\n        /* \"#utility.yul\":629:635   */\n      dup2\n        /* \"#utility.yul\":616:636   */\n      calldataload\n        /* \"#utility.yul\":607:636   */\n      swap1\n      pop\n        /* \"#utility.yul\":645:678   */\n      tag_202\n        /* \"#utility.yul\":672:677   */\n      dup2\n        /* \"#utility.yul\":645:678   */\n      tag_143\n      jump\t// in\n    tag_202:\n        /* \"#utility.yul\":545:684   */\n      swap3\n      swap2\n      pop\n      pop\n      jump\t// out\n        /* \"#utility.yul\":690:807   */\n    tag_145:\n        /* \"#utility.yul\":799:800   */\n      0x00\n        /* \"#utility.yul\":796:797   */\n      dup1\n        /* \"#utility.yul\":789:801   */\n      revert\n        /* \"#utility.yul\":813:930   */\n    tag_146:\n        /* \"#utility.yul\":922:923   */\n      0x00\n        /* \"#utility.yul\":919:920   */\n      dup1\n        /* \"#utility.yul\":912:924   */\n      revert\n        /* \"#utility.yul\":936:1038   */\n    tag_147:\n        /* \"#utility.yul\":977:983   */\n      0x00\n        /* \"#utility.yul\":1028:1030   */\n      0x1f\n        /* \"#utility.yul\":1024:1031   */\n      not\n        /* \"#utility.yul\":1019:1021   */\n      0x1f\n        /* \"#utility.yul\":1012:1017   */\n      dup4\n        /* \"#utility.yul\":1008:1022   */\n      add\n        /* \"#utility.yul\":1004:1032   */\n      and\n        /* \"#utility.yul\":994:1032   */\n      swap1\n      pop\n        /* \"#utility.yul\":936:1038   */\n      swap2\n      swap1\n      pop\n      jump\t// out\n        /* \"#utility.yul\":1044:1224   */\n    tag_148:\n        /* \"#utility.yul\":1092:1169   */\n      0x4e487b7100000000000000000000000000000000000000000000000000000000\n        /* \"#utility.yul\":1089:1090   */\n      0x00\n        /* \"#utility.yul\":1082:1170   */\n      mstore\n        /* \"#utility.yul\":1189:1193   */\n      0x41\n        /* \"#utility.yul\":1186:1187   */\n      0x04\n        /* \"#utility.yul\":1179:1194   */\n      mstore\n        /* \"#utility.yul\":1213:1217   */\n      0x24\n        /* \"#utility.yul\":1210:1211   */\n      0x00\n        /* \"#utility.yul\":1203:1218   */\n      revert\n        /* \"#utility.yul\":1230:1511   */\n    tag_149:\n        /* \"#utility.yul\":1313:1340   */\n      tag_208\n        /* \"#utility.yul\":1335:1339   */\n      dup3\n        /* \"#utility.yul\":1313:1340   */\n      tag_147\n      jump\t// in\n    tag_208:\n        /* \"#utility.yul\":1305:1311   */\n      dup2\n        /* \"#utility.yul\":1301:1341   */\n      add\n        /* \"#utility.yul\":1443:1449   */\n      dup2\n        /* \"#utility.yul\":1431:1441   */\n      dup2\n        /* \"#utility.yul\":1428:1450   */\n      lt\n        /* \"#utility.yul\":1407:1425   */\n      0xffffffffffffffff\n        /* \"#utility.yul\":1395:1405   */\n      dup3\n        /* \"#utility.yul\":1392:1426   */\n      gt\n        /* \"#utility.yul\":1389:1451   */\n      or\n        /* \"#utility.yul\":1386:1474   */\n      iszero\n      tag_209\n      jumpi\n        /* \"#utility.yul\":1454:1472   */\n      tag_210\n      tag_148\n      jump\t// in\n    tag_210:\n        /* \"#utility.yul\":1386:1474   */\n    tag_209:\n        /* \"#utility.yul\":1494:1504   */\n      dup1\n        /* \"#utility.yul\":1490:1492   */\n      0x40\n        /* \"#utility.yul\":1483:1505   */\n      mstore\n        /* \"#utility.yul\":1273:1511   */\n      pop\n        /* \"#utility.yul\":1230:1511   */\n      pop\n      pop\n      jump\t// out\n        /* \"#utility.yul\":1517:1646   */\n    tag_150:\n        /* \"#utility.yul\":1551:1557   */\n      0x00\n        /* \"#utility.yul\":1578:1598   */\n      tag_212\n      tag_139\n      jump\t// in\n    tag_212:\n        /* \"#utility.yul\":1568:1598   */\n      swap1\n      pop\n        /* \"#utility.yul\":1607:1640   */\n      tag_213\n        /* \"#utility.yul\":1635:1639   */\n      dup3\n        /* \"#utility.yul\":1627:1633   */\n      dup3\n        /* \"#utility.yul\":1607:1640   */\n      tag_149\n      jump\t// in\n    tag_213:\n        /* \"#utility.yul\":1517:1646   */\n      swap2\n      swap1\n      pop\n      jump\t// out\n        /* \"#utility.yul\":1652:1960   */\n    tag_151:\n        /* \"#utility.yul\":1714:1718   */\n      0x00\n        /* \"#utility.yul\":1804:1822   */\n      0xffffffffffffffff\n        /* \"#utility.yul\":1796:1802   */\n      dup3\n        /* \"#utility.yul\":1793:1823   */\n      gt\n        /* \"#utility.yul\":1790:1846   */\n      iszero\n      tag_215\n      jumpi\n        /* \"#utility.yul\":1826:1844   */\n      tag_216\n      tag_148\n      jump\t// in\n    tag_216:\n        /* \"#utility.yul\":1790:1846   */\n    tag_215:\n        /* \"#utility.yul\":1864:1893   */\n      tag_217\n        /* \"#utility.yul\":1886:1892   */\n      dup3\n        /* \"#utility.yul\":1864:1893   */\n      tag_147\n      jump\t// in\n    tag_217:\n        /* \"#utility.yul\":1856:1893   */\n      swap1\n      pop\n        /* \"#utility.yul\":1948:1952   */\n      0x20\n        /* \"#utility.yul\":1942:1946   */\n      dup2\n        /* \"#utility.yul\":1938:1953   */\n      add\n        /* \"#utility.yul\":1930:1953   */\n      swap1\n      pop\n        /* \"#utility.yul\":1652:1960   */\n      swap2\n      swap1\n      pop\n      jump\t// out\n        /* \"#utility.yul\":1966:2120   */\n    tag_152:\n        /* \"#utility.yul\":2050:2056   */\n      dup3\n        /* \"#utility.yul\":2045:2048   */\n      dup2\n        /* \"#utility.yul\":2040:2043   */\n      dup4\n        /* \"#utility.yul\":2027:2057   */\n      calldatacopy\n        /* \"#utility.yul\":2112:2113   */\n      0x00\n        /* \"#utility.yul\":2103:2109   */\n      dup4\n        /* \"#utility.yul\":2098:2101   */\n      dup4\n        /* \"#utility.yul\":2094:2110   */\n      add\n        /* \"#utility.yul\":2087:2114   */\n      mstore\n        /* \"#utility.yul\":1966:2120   */\n      pop\n      pop\n      pop\n      jump\t// out\n        /* \"#utility.yul\":2126:2538   */\n    tag_153:\n        /* \"#utility.yul\":2204:2209   */\n      0x00\n        /* \"#utility.yul\":2229:2295   */\n      tag_220\n        /* \"#utility.yul\":2245:2294   */\n      tag_221\n        /* \"#utility.yul\":2287:2293   */\n      dup5\n        /* \"#utility.yul\":2245:2294   */\n      tag_151\n      jump\t// in\n    tag_221:\n        /* \"#utility.yul\":2229:2295   */\n      tag_150\n      jump\t// in\n    tag_220:\n        /* \"#utility.yul\":2220:2295   */\n      swap1\n      pop\n        /* \"#utility.yul\":2318:2324   */\n      dup3\n        /* \"#utility.yul\":2311:2316   */\n      dup2\n        /* \"#utility.yul\":2304:2325   */\n      mstore\n        /* \"#utility.yul\":2356:2360   */\n      0x20\n        /* \"#utility.yul\":2349:2354   */\n      dup2\n        /* \"#utility.yul\":2345:2361   */\n      add\n        /* \"#utility.yul\":2394:2397   */\n      dup5\n        /* \"#utility.yul\":2385:2391   */\n      dup5\n        /* \"#utility.yul\":2380:2383   */\n      dup5\n        /* \"#utility.yul\":2376:2392   */\n      add\n        /* \"#utility.yul\":2373:2398   */\n      gt\n        /* \"#utility.yul\":2370:2482   */\n      iszero\n      tag_222\n      jumpi\n        /* \"#utility.yul\":2401:2480   */\n      tag_223\n      tag_146\n      jump\t// in\n    tag_223:\n        /* \"#utility.yul\":2370:2482   */\n    tag_222:\n        /* \"#utility.yul\":2491:2532   */\n      tag_224\n        /* \"#utility.yul\":2525:2531   */\n      dup5\n        /* \"#utility.yul\":2520:2523   */\n      dup3\n        /* \"#utility.yul\":2515:2518   */\n      dup6\n        /* \"#utility.yul\":2491:2532   */\n      tag_152\n      jump\t// in\n    tag_224:\n        /* \"#utility.yul\":2210:2538   */\n      pop\n        /* \"#utility.yul\":2126:2538   */\n      swap4\n      swap3\n      pop\n      pop\n      pop\n      jump\t// out\n        /* \"#utility.yul\":2558:2898   */\n    tag_154:\n        /* \"#utility.yul\":2614:2619   */\n      0x00\n        /* \"#utility.yul\":2663:2666   */\n      dup3\n        /* \"#utility.yul\":2656:2660   */\n      0x1f\n        /* \"#utility.yul\":2648:2654   */\n      dup4\n        /* \"#utility.yul\":2644:2661   */\n      add\n        /* \"#utility.yul\":2640:2667   */\n      slt\n        /* \"#utility.yul\":2630:2752   */\n      tag_226\n      jumpi\n        /* \"#utility.yul\":2671:2750   */\n      tag_227\n      tag_145\n      jump\t// in\n    tag_227:\n        /* \"#utility.yul\":2630:2752   */\n    tag_226:\n        /* \"#utility.yul\":2788:2794   */\n      dup2\n        /* \"#utility.yul\":2775:2795   */\n      calldataload\n        /* \"#utility.yul\":2813:2892   */\n      tag_228\n        /* \"#utility.yul\":2888:2891   */\n      dup5\n        /* \"#utility.yul\":2880:2886   */\n      dup3\n        /* \"#utility.yul\":2873:2877   */\n      0x20\n        /* \"#utility.yul\":2865:2871   */\n      dup7\n        /* \"#utility.yul\":2861:2878   */\n      add\n        /* \"#utility.yul\":2813:2892   */\n      tag_153\n      jump\t// in\n    tag_228:\n        /* \"#utility.yul\":2804:2892   */\n      swap2\n      pop\n        /* \"#utility.yul\":2620:2898   */\n      pop\n        /* \"#utility.yul\":2558:2898   */\n      swap3\n      swap2\n      pop\n      pop\n      jump\t// out\n        /* \"#utility.yul\":2904:3558   */\n    tag_15:\n        /* \"#utility.yul\":2982:2988   */\n      0x00\n        /* \"#utility.yul\":2990:2996   */\n      dup1\n        /* \"#utility.yul\":3039:3041   */\n      0x40\n        /* \"#utility.yul\":3027:3036   */\n      dup4\n        /* \"#utility.yul\":3018:3025   */\n      dup6\n        /* \"#utility.yul\":3014:3037   */\n      sub\n        /* \"#utility.yul\":3010:3042   */\n      slt\n        /* \"#utility.yul\":3007:3126   */\n      iszero\n      tag_230\n      jumpi\n        /* \"#utility.yul\":3045:3124   */\n      tag_231\n      tag_140\n      jump\t// in\n    tag_231:\n        /* \"#utility.yul\":3007:3126   */\n    tag_230:\n        /* \"#utility.yul\":3165:3166   */\n      0x00\n        /* \"#utility.yul\":3190:3243   */\n      tag_232\n        /* \"#utility.yul\":3235:3242   */\n      dup6\n        /* \"#utility.yul\":3226:3232   */\n      dup3\n        /* \"#utility.yul\":3215:3224   */\n      dup7\n        /* \"#utility.yul\":3211:3233   */\n      add\n        /* \"#utility.yul\":3190:3243   */\n      tag_144\n      jump\t// in\n    tag_232:\n        /* \"#utility.yul\":3180:3243   */\n      swap3\n      pop\n        /* \"#utility.yul\":3136:3253   */\n      pop\n        /* \"#utility.yul\":3320:3322   */\n      0x20\n        /* \"#utility.yul\":3309:3318   */\n      dup4\n        /* \"#utility.yul\":3305:3323   */\n      add\n        /* \"#utility.yul\":3292:3324   */\n      calldataload\n        /* \"#utility.yul\":3351:3369   */\n      0xffffffffffffffff\n        /* \"#utility.yul\":3343:3349   */\n      dup2\n        /* \"#utility.yul\":3340:3370   */\n      gt\n        /* \"#utility.yul\":3337:3454   */\n      iszero\n      tag_233\n      jumpi\n        /* \"#utility.yul\":3373:3452   */\n      tag_234\n      tag_141\n      jump\t// in\n    tag_234:\n        /* \"#utility.yul\":3337:3454   */\n    tag_233:\n        /* \"#utility.yul\":3478:3541   */\n      tag_235\n        /* \"#utility.yul\":3533:3540   */\n      dup6\n        /* \"#utility.yul\":3524:3530   */\n      dup3\n        /* \"#utility.yul\":3513:3522   */\n      dup7\n        /* \"#utility.yul\":3509:3531   */\n      add\n        /* \"#utility.yul\":3478:3541   */\n      tag_154\n      jump\t// in\n    tag_235:\n        /* \"#utility.yul\":3468:3541   */\n      swap2\n      pop\n        /* \"#utility.yul\":3263:3551   */\n      pop\n        /* \"#utility.yul\":2904:3558   */\n      swap3\n      pop\n      swap3\n      swap1\n      pop\n      jump\t// out\n        /* \"#utility.yul\":3564:3682   */\n    tag_155:\n        /* \"#utility.yul\":3651:3675   */\n      tag_237\n        /* \"#utility.yul\":3669:3674   */\n      dup2\n        /* \"#utility.yul\":3651:3675   */\n      tag_142\n      jump\t// in\n    tag_237:\n        /* \"#utility.yul\":3646:3649   */\n      dup3\n        /* \"#utility.yul\":3639:3676   */\n      mstore\n        /* \"#utility.yul\":3564:3682   */\n      pop\n      pop\n      jump\t// out\n        /* \"#utility.yul\":3688:3910   */\n    tag_21:\n        /* \"#utility.yul\":3781:3785   */\n      0x00\n        /* \"#utility.yul\":3819:3821   */\n      0x20\n        /* \"#utility.yul\":3808:3817   */\n      dup3\n        /* \"#utility.yul\":3804:3822   */\n      add\n        /* \"#utility.yul\":3796:3822   */\n      swap1\n      pop\n        /* \"#utility.yul\":3832:3903   */\n      tag_239\n        /* \"#utility.yul\":3900:3901   */\n      0x00\n        /* \"#utility.yul\":3889:3898   */\n      dup4\n        /* \"#utility.yul\":3885:3902   */\n      add\n        /* \"#utility.yul\":3876:3882   */\n      dup5\n        /* \"#utility.yul\":3832:3903   */\n      tag_155\n      jump\t// in\n    tag_239:\n        /* \"#utility.yul\":3688:3910   */\n      swap3\n      swap2\n      pop\n      pop\n      jump\t// out\n        /* \"#utility.yul\":3916:4042   */\n    tag_156:\n        /* \"#utility.yul\":3953:3960   */\n      0x00\n        /* \"#utility.yul\":3993:4035   */\n      0xffffffffffffffffffffffffffffffffffffffff\n        /* \"#utility.yul\":3986:3991   */\n      dup3\n        /* \"#utility.yul\":3982:4036   */\n      and\n        /* \"#utility.yul\":3971:4036   */\n      swap1\n      pop\n        /* \"#utility.yul\":3916:4042   */\n      swap2\n      swap1\n      pop\n      jump\t// out\n        /* \"#utility.yul\":4048:4144   */\n    tag_157:\n        /* \"#utility.yul\":4085:4092   */\n      0x00\n        /* \"#utility.yul\":4114:4138   */\n      tag_242\n        /* \"#utility.yul\":4132:4137   */\n      dup3\n        /* \"#utility.yul\":4114:4138   */\n      tag_156\n      jump\t// in\n    tag_242:\n        /* \"#utility.yul\":4103:4138   */\n      swap1\n      pop\n        /* \"#utility.yul\":4048:4144   */\n      swap2\n      swap1\n      pop\n      jump\t// out\n        /* \"#utility.yul\":4150:4272   */\n    tag_158:\n        /* \"#utility.yul\":4223:4247   */\n      tag_244\n        /* \"#utility.yul\":4241:4246   */\n      dup2\n        /* \"#utility.yul\":4223:4247   */\n      tag_157\n      jump\t// in\n    tag_244:\n        /* \"#utility.yul\":4216:4221   */\n      dup2\n        /* \"#utility.yul\":4213:4248   */\n      eq\n        /* \"#utility.yul\":4203:4266   */\n      tag_245\n      jumpi\n        /* \"#utility.yul\":4262:4263   */\n      0x00\n        /* \"#utility.yul\":4259:4260   */\n      dup1\n        /* \"#utility.yul\":4252:4264   */\n      revert\n        /* \"#utility.yul\":4203:4266   */\n    tag_245:\n        /* \"#utility.yul\":4150:4272   */\n      pop\n      jump\t// out\n        /* \"#utility.yul\":4278:4417   */\n    tag_159:\n        /* \"#utility.yul\":4324:4329   */\n      0x00\n        /* \"#utility.yul\":4362:4368   */\n      dup2\n        /* \"#utility.yul\":4349:4369   */\n      calldataload\n        /* \"#utility.yul\":4340:4369   */\n      swap1\n      pop\n        /* \"#utility.yul\":4378:4411   */\n      tag_247\n        /* \"#utility.yul\":4405:4410   */\n      dup2\n        /* \"#utility.yul\":4378:4411   */\n      tag_158\n      jump\t// in\n    tag_247:\n        /* \"#utility.yul\":4278:4417   */\n      swap3\n      swap2\n      pop\n      pop\n      jump\t// out\n        /* \"#utility.yul\":4423:4752   */\n    tag_25:\n        /* \"#utility.yul\":4482:4488   */\n      0x00\n        /* \"#utility.yul\":4531:4533   */\n      0x20\n        /* \"#utility.yul\":4519:4528   */\n      dup3\n        /* \"#utility.yul\":4510:4517   */\n      dup5\n        /* \"#utility.yul\":4506:4529   */\n      sub\n        /* \"#utility.yul\":4502:4534   */\n      slt\n        /* \"#utility.yul\":4499:4618   */\n      iszero\n      tag_249\n      jumpi\n        /* \"#utility.yul\":4537:4616   */\n      tag_250\n      tag_140\n      jump\t// in\n    tag_250:\n        /* \"#utility.yul\":4499:4618   */\n    tag_249:\n        /* \"#utility.yul\":4657:4658   */\n      0x00\n        /* \"#utility.yul\":4682:4735   */\n      tag_251\n        /* \"#utility.yul\":4727:4734   */\n      dup5\n        /* \"#utility.yul\":4718:4724   */\n      dup3\n        /* \"#utility.yul\":4707:4716   */\n      dup6\n        /* \"#utility.yul\":4703:4725   */\n      add\n        /* \"#utility.yul\":4682:4735   */\n      tag_159\n      jump\t// in\n    tag_251:\n        /* \"#utility.yul\":4672:4735   */\n      swap2\n      pop\n        /* \"#utility.yul\":4628:4745   */\n      pop\n        /* \"#utility.yul\":4423:4752   */\n      swap3\n      swap2\n      pop\n      pop\n      jump\t// out\n        /* \"#utility.yul\":4758:4848   */\n    tag_160:\n        /* \"#utility.yul\":4792:4799   */\n      0x00\n        /* \"#utility.yul\":4835:4840   */\n      dup2\n        /* \"#utility.yul\":4828:4841   */\n      iszero\n        /* \"#utility.yul\":4821:4842   */\n      iszero\n        /* \"#utility.yul\":4810:4842   */\n      swap1\n      pop\n        /* \"#utility.yul\":4758:4848   */\n      swap2\n      swap1\n      pop\n      jump\t// out\n        /* \"#utility.yul\":4854:4963   */\n    tag_161:\n        /* \"#utility.yul\":4935:4956   */\n      tag_254\n        /* \"#utility.yul\":4950:4955   */\n      dup2\n        /* \"#utility.yul\":4935:4956   */\n      tag_160\n      jump\t// in\n    tag_254:\n        /* \"#utility.yul\":4930:4933   */\n      dup3\n        /* \"#utility.yul\":4923:4957   */\n      mstore\n        /* \"#utility.yul\":4854:4963   */\n      pop\n      pop\n      jump\t// out\n        /* \"#utility.yul\":4969:5179   */\n    tag_28:\n        /* \"#utility.yul\":5056:5060   */\n      0x00\n        /* \"#utility.yul\":5094:5096   */\n      0x20\n        /* \"#utility.yul\":5083:5092   */\n      dup3\n        /* \"#utility.yul\":5079:5097   */\n      add\n        /* \"#utility.yul\":5071:5097   */\n      swap1\n      pop\n        /* \"#utility.yul\":5107:5172   */\n      tag_256\n        /* \"#utility.yul\":5169:5170   */\n      0x00\n        /* \"#utility.yul\":5158:5167   */\n      dup4\n        /* \"#utility.yul\":5154:5171   */\n      add\n        /* \"#utility.yul\":5145:5151   */\n      dup5\n        /* \"#utility.yul\":5107:5172   */\n      tag_161\n      jump\t// in\n    tag_256:\n        /* \"#utility.yul\":4969:5179   */\n      swap3\n      swap2\n      pop\n      pop\n      jump\t// out\n        /* \"#utility.yul\":5185:5303   */\n    tag_162:\n        /* \"#utility.yul\":5272:5296   */\n      tag_258\n        /* \"#utility.yul\":5290:5295   */\n      dup2\n        /* \"#utility.yul\":5272:5296   */\n      tag_157\n      jump\t// in\n    tag_258:\n        /* \"#utility.yul\":5267:5270   */\n      dup3\n        /* \"#utility.yul\":5260:5297   */\n      mstore\n        /* \"#utility.yul\":5185:5303   */\n      pop\n      pop\n      jump\t// out\n        /* \"#utility.yul\":5309:5531   */\n    tag_33:\n        /* \"#utility.yul\":5402:5406   */\n      0x00\n        /* \"#utility.yul\":5440:5442   */\n      0x20\n        /* \"#utility.yul\":5429:5438   */\n      dup3\n        /* \"#utility.yul\":5425:5443   */\n      add\n        /* \"#utility.yul\":5417:5443   */\n      swap1\n      pop\n        /* \"#utility.yul\":5453:5524   */\n      tag_260\n        /* \"#utility.yul\":5521:5522   */\n      0x00\n        /* \"#utility.yul\":5510:5519   */\n      dup4\n        /* \"#utility.yul\":5506:5523   */\n      add\n        /* \"#utility.yul\":5497:5503   */\n      dup5\n        /* \"#utility.yul\":5453:5524   */\n      tag_162\n      jump\t// in\n    tag_260:\n        /* \"#utility.yul\":5309:5531   */\n      swap3\n      swap2\n      pop\n      pop\n      jump\t// out\n        /* \"#utility.yul\":5537:5866   */\n    tag_42:\n        /* \"#utility.yul\":5596:5602   */\n      0x00\n        /* \"#utility.yul\":5645:5647   */\n      0x20\n        /* \"#utility.yul\":5633:5642   */\n      dup3\n        /* \"#utility.yul\":5624:5631   */\n      dup5\n        /* \"#utility.yul\":5620:5643   */\n      sub\n        /* \"#utility.yul\":5616:5648   */\n      slt\n        /* \"#utility.yul\":5613:5732   */\n      iszero\n      tag_262\n      jumpi\n        /* \"#utility.yul\":5651:5730   */\n      tag_263\n      tag_140\n      jump\t// in\n    tag_263:\n        /* \"#utility.yul\":5613:5732   */\n    tag_262:\n        /* \"#utility.yul\":5771:5772   */\n      0x00\n        /* \"#utility.yul\":5796:5849   */\n      tag_264\n        /* \"#utility.yul\":5841:5848   */\n      dup5\n        /* \"#utility.yul\":5832:5838   */\n      dup3\n        /* \"#utility.yul\":5821:5830   */\n      dup6\n        /* \"#utility.yul\":5817:5839   */\n      add\n        /* \"#utility.yul\":5796:5849   */\n      tag_144\n      jump\t// in\n    tag_264:\n        /* \"#utility.yul\":5786:5849   */\n      swap2\n      pop\n        /* \"#utility.yul\":5742:5859   */\n      pop\n        /* \"#utility.yul\":5537:5866   */\n      swap3\n      swap2\n      pop\n      pop\n      jump\t// out\n        /* \"#utility.yul\":5872:5971   */\n    tag_163:\n        /* \"#utility.yul\":5924:5930   */\n      0x00\n        /* \"#utility.yul\":5958:5963   */\n      dup2\n        /* \"#utility.yul\":5952:5964   */\n      mload\n        /* \"#utility.yul\":5942:5964   */\n      swap1\n      pop\n        /* \"#utility.yul\":5872:5971   */\n      swap2\n      swap1\n      pop\n      jump\t// out\n        /* \"#utility.yul\":5977:6146   */\n    tag_164:\n        /* \"#utility.yul\":6061:6072   */\n      0x00\n        /* \"#utility.yul\":6095:6101   */\n      dup3\n        /* \"#utility.yul\":6090:6093   */\n      dup3\n        /* \"#utility.yul\":6083:6102   */\n      mstore\n        /* \"#utility.yul\":6135:6139   */\n      0x20\n        /* \"#utility.yul\":6130:6133   */\n      dup3\n        /* \"#utility.yul\":6126:6140   */\n      add\n        /* \"#utility.yul\":6111:6140   */\n      swap1\n      pop\n        /* \"#utility.yul\":5977:6146   */\n      swap3\n      swap2\n      pop\n      pop\n      jump\t// out\n        /* \"#utility.yul\":6152:6459   */\n    tag_165:\n        /* \"#utility.yul\":6220:6221   */\n      0x00\n        /* \"#utility.yul\":6230:6343   */\n    tag_268:\n        /* \"#utility.yul\":6244:6250   */\n      dup4\n        /* \"#utility.yul\":6241:6242   */\n      dup2\n        /* \"#utility.yul\":6238:6251   */\n      lt\n        /* \"#utility.yul\":6230:6343   */\n      iszero\n      tag_270\n      jumpi\n        /* \"#utility.yul\":6329:6330   */\n      dup1\n        /* \"#utility.yul\":6324:6327   */\n      dup3\n        /* \"#utility.yul\":6320:6331   */\n      add\n        /* \"#utility.yul\":6314:6332   */\n      mload\n        /* \"#utility.yul\":6310:6311   */\n      dup2\n        /* \"#utility.yul\":6305:6308   */\n      dup5\n        /* \"#utility.yul\":6301:6312   */\n      add\n        /* \"#utility.yul\":6294:6333   */\n      mstore\n        /* \"#utility.yul\":6266:6268   */\n      0x20\n        /* \"#utility.yul\":6263:6264   */\n      dup2\n        /* \"#utility.yul\":6259:6269   */\n      add\n        /* \"#utility.yul\":6254:6269   */\n      swap1\n      pop\n        /* \"#utility.yul\":6230:6343   */\n      jump(tag_268)\n    tag_270:\n        /* \"#utility.yul\":6361:6367   */\n      dup4\n        /* \"#utility.yul\":6358:6359   */\n      dup2\n        /* \"#utility.yul\":6355:6368   */\n      gt\n        /* \"#utility.yul\":6352:6453   */\n      iszero\n      tag_271\n      jumpi\n        /* \"#utility.yul\":6441:6442   */\n      0x00\n        /* \"#utility.yul\":6432:6438   */\n      dup5\n        /* \"#utility.yul\":6427:6430   */\n      dup5\n        /* \"#utility.yul\":6423:6439   */\n      add\n        /* \"#utility.yul\":6416:6443   */\n      mstore\n        /* \"#utility.yul\":6352:6453   */\n    tag_271:\n        /* \"#utility.yul\":6201:6459   */\n      pop\n        /* \"#utility.yul\":6152:6459   */\n      pop\n      pop\n      pop\n      jump\t// out\n        /* \"#utility.yul\":6465:6829   */\n    tag_166:\n        /* \"#utility.yul\":6553:6556   */\n      0x00\n        /* \"#utility.yul\":6581:6620   */\n      tag_273\n        /* \"#utility.yul\":6614:6619   */\n      dup3\n        /* \"#utility.yul\":6581:6620   */\n      tag_163\n      jump\t// in\n    tag_273:\n        /* \"#utility.yul\":6636:6707   */\n      tag_274\n        /* \"#utility.yul\":6700:6706   */\n      dup2\n        /* \"#utility.yul\":6695:6698   */\n      dup6\n        /* \"#utility.yul\":6636:6707   */\n      tag_164\n      jump\t// in\n    tag_274:\n        /* \"#utility.yul\":6629:6707   */\n      swap4\n      pop\n        /* \"#utility.yul\":6716:6768   */\n      tag_275\n        /* \"#utility.yul\":6761:6767   */\n      dup2\n        /* \"#utility.yul\":6756:6759   */\n      dup6\n        /* \"#utility.yul\":6749:6753   */\n      0x20\n        /* \"#utility.yul\":6742:6747   */\n      dup7\n        /* \"#utility.yul\":6738:6754   */\n      add\n        /* \"#utility.yul\":6716:6768   */\n      tag_165\n      jump\t// in\n    tag_275:\n        /* \"#utility.yul\":6793:6822   */\n      tag_276\n        /* \"#utility.yul\":6815:6821   */\n      dup2\n        /* \"#utility.yul\":6793:6822   */\n      tag_147\n      jump\t// in\n    tag_276:\n        /* \"#utility.yul\":6788:6791   */\n      dup5\n        /* \"#utility.yul\":6784:6823   */\n      add\n        /* \"#utility.yul\":6777:6823   */\n      swap2\n      pop\n        /* \"#utility.yul\":6557:6829   */\n      pop\n        /* \"#utility.yul\":6465:6829   */\n      swap3\n      swap2\n      pop\n      pop\n      jump\t// out\n        /* \"#utility.yul\":6835:8089   */\n    tag_45:\n        /* \"#utility.yul\":7174:7178   */\n      0x00\n        /* \"#utility.yul\":7212:7215   */\n      0x0120\n        /* \"#utility.yul\":7201:7210   */\n      dup3\n        /* \"#utility.yul\":7197:7216   */\n      add\n        /* \"#utility.yul\":7189:7216   */\n      swap1\n      pop\n        /* \"#utility.yul\":7262:7271   */\n      dup2\n        /* \"#utility.yul\":7256:7260   */\n      dup2\n        /* \"#utility.yul\":7252:7272   */\n      sub\n        /* \"#utility.yul\":7248:7249   */\n      0x00\n        /* \"#utility.yul\":7237:7246   */\n      dup4\n        /* \"#utility.yul\":7233:7250   */\n      add\n        /* \"#utility.yul\":7226:7273   */\n      mstore\n        /* \"#utility.yul\":7290:7368   */\n      tag_278\n        /* \"#utility.yul\":7363:7367   */\n      dup2\n        /* \"#utility.yul\":7354:7360   */\n      dup13\n        /* \"#utility.yul\":7290:7368   */\n      tag_166\n      jump\t// in\n    tag_278:\n        /* \"#utility.yul\":7282:7368   */\n      swap1\n      pop\n        /* \"#utility.yul\":7415:7424   */\n      dup2\n        /* \"#utility.yul\":7409:7413   */\n      dup2\n        /* \"#utility.yul\":7405:7425   */\n      sub\n        /* \"#utility.yul\":7400:7402   */\n      0x20\n        /* \"#utility.yul\":7389:7398   */\n      dup4\n        /* \"#utility.yul\":7385:7403   */\n      add\n        /* \"#utility.yul\":7378:7426   */\n      mstore\n        /* \"#utility.yul\":7443:7521   */\n      tag_279\n        /* \"#utility.yul\":7516:7520   */\n      dup2\n        /* \"#utility.yul\":7507:7513   */\n      dup12\n        /* \"#utility.yul\":7443:7521   */\n      tag_166\n      jump\t// in\n    tag_279:\n        /* \"#utility.yul\":7435:7521   */\n      swap1\n      pop\n        /* \"#utility.yul\":7531:7603   */\n      tag_280\n        /* \"#utility.yul\":7599:7601   */\n      0x40\n        /* \"#utility.yul\":7588:7597   */\n      dup4\n        /* \"#utility.yul\":7584:7602   */\n      add\n        /* \"#utility.yul\":7575:7581   */\n      dup11\n        /* \"#utility.yul\":7531:7603   */\n      tag_162\n      jump\t// in\n    tag_280:\n        /* \"#utility.yul\":7613:7685   */\n      tag_281\n        /* \"#utility.yul\":7681:7683   */\n      0x60\n        /* \"#utility.yul\":7670:7679   */\n      dup4\n        /* \"#utility.yul\":7666:7684   */\n      add\n        /* \"#utility.yul\":7657:7663   */\n      dup10\n        /* \"#utility.yul\":7613:7685   */\n      tag_162\n      jump\t// in\n    tag_281:\n        /* \"#utility.yul\":7695:7768   */\n      tag_282\n        /* \"#utility.yul\":7763:7766   */\n      0x80\n        /* \"#utility.yul\":7752:7761   */\n      dup4\n        /* \"#utility.yul\":7748:7767   */\n      add\n        /* \"#utility.yul\":7739:7745   */\n      dup9\n        /* \"#utility.yul\":7695:7768   */\n      tag_155\n      jump\t// in\n    tag_282:\n        /* \"#utility.yul\":7778:7851   */\n      tag_283\n        /* \"#utility.yul\":7846:7849   */\n      0xa0\n        /* \"#utility.yul\":7835:7844   */\n      dup4\n        /* \"#utility.yul\":7831:7850   */\n      add\n        /* \"#utility.yul\":7822:7828   */\n      dup8\n        /* \"#utility.yul\":7778:7851   */\n      tag_155\n      jump\t// in\n    tag_283:\n        /* \"#utility.yul\":7861:7928   */\n      tag_284\n        /* \"#utility.yul\":7923:7926   */\n      0xc0\n        /* \"#utility.yul\":7912:7921   */\n      dup4\n        /* \"#utility.yul\":7908:7927   */\n      add\n        /* \"#utility.yul\":7899:7905   */\n      dup7\n        /* \"#utility.yul\":7861:7928   */\n      tag_161\n      jump\t// in\n    tag_284:\n        /* \"#utility.yul\":7938:8005   */\n      tag_285\n        /* \"#utility.yul\":8000:8003   */\n      0xe0\n        /* \"#utility.yul\":7989:7998   */\n      dup4\n        /* \"#utility.yul\":7985:8004   */\n      add\n        /* \"#utility.yul\":7976:7982   */\n      dup6\n        /* \"#utility.yul\":7938:8005   */\n      tag_161\n      jump\t// in\n    tag_285:\n        /* \"#utility.yul\":8015:8082   */\n      tag_286\n        /* \"#utility.yul\":8077:8080   */\n      0x0100\n        /* \"#utility.yul\":8066:8075   */\n      dup4\n        /* \"#utility.yul\":8062:8081   */\n      add\n        /* \"#utility.yul\":8053:8059   */\n      dup5\n        /* \"#utility.yul\":8015:8082   */\n      tag_161\n      jump\t// in\n    tag_286:\n        /* \"#utility.yul\":6835:8089   */\n      swap11\n      swap10\n      pop\n      pop\n      pop\n      pop\n      pop\n      pop\n      pop\n      pop\n      pop\n      pop\n      jump\t// out\n        /* \"#utility.yul\":8095:9220   */\n    tag_56:\n        /* \"#utility.yul\":8201:8207   */\n      0x00\n        /* \"#utility.yul\":8209:8215   */\n      dup1\n        /* \"#utility.yul\":8217:8223   */\n      0x00\n        /* \"#utility.yul\":8225:8231   */\n      dup1\n        /* \"#utility.yul\":8274:8277   */\n      0x80\n        /* \"#utility.yul\":8262:8271   */\n      dup6\n        /* \"#utility.yul\":8253:8260   */\n      dup8\n        /* \"#utility.yul\":8249:8272   */\n      sub\n        /* \"#utility.yul\":8245:8278   */\n      slt\n        /* \"#utility.yul\":8242:8362   */\n      iszero\n      tag_288\n      jumpi\n        /* \"#utility.yul\":8281:8360   */\n      tag_289\n      tag_140\n      jump\t// in\n    tag_289:\n        /* \"#utility.yul\":8242:8362   */\n    tag_288:\n        /* \"#utility.yul\":8429:8430   */\n      0x00\n        /* \"#utility.yul\":8418:8427   */\n      dup6\n        /* \"#utility.yul\":8414:8431   */\n      add\n        /* \"#utility.yul\":8401:8432   */\n      calldataload\n        /* \"#utility.yul\":8459:8477   */\n      0xffffffffffffffff\n        /* \"#utility.yul\":8451:8457   */\n      dup2\n        /* \"#utility.yul\":8448:8478   */\n      gt\n        /* \"#utility.yul\":8445:8562   */\n      iszero\n      tag_290\n      jumpi\n        /* \"#utility.yul\":8481:8560   */\n      tag_291\n      tag_141\n      jump\t// in\n    tag_291:\n        /* \"#utility.yul\":8445:8562   */\n    tag_290:\n        /* \"#utility.yul\":8586:8649   */\n      tag_292\n        /* \"#utility.yul\":8641:8648   */\n      dup8\n        /* \"#utility.yul\":8632:8638   */\n      dup3\n        /* \"#utility.yul\":8621:8630   */\n      dup9\n        /* \"#utility.yul\":8617:8639   */\n      add\n        /* \"#utility.yul\":8586:8649   */\n      tag_154\n      jump\t// in\n    tag_292:\n        /* \"#utility.yul\":8576:8649   */\n      swap5\n      pop\n        /* \"#utility.yul\":8372:8659   */\n      pop\n        /* \"#utility.yul\":8726:8728   */\n      0x20\n        /* \"#utility.yul\":8715:8724   */\n      dup6\n        /* \"#utility.yul\":8711:8729   */\n      add\n        /* \"#utility.yul\":8698:8730   */\n      calldataload\n        /* \"#utility.yul\":8757:8775   */\n      0xffffffffffffffff\n        /* \"#utility.yul\":8749:8755   */\n      dup2\n        /* \"#utility.yul\":8746:8776   */\n      gt\n        /* \"#utility.yul\":8743:8860   */\n      iszero\n      tag_293\n      jumpi\n        /* \"#utility.yul\":8779:8858   */\n      tag_294\n      tag_141\n      jump\t// in\n    tag_294:\n        /* \"#utility.yul\":8743:8860   */\n    tag_293:\n        /* \"#utility.yul\":8884:8947   */\n      tag_295\n        /* \"#utility.yul\":8939:8946   */\n      dup8\n        /* \"#utility.yul\":8930:8936   */\n      dup3\n        /* \"#utility.yul\":8919:8928   */\n      dup9\n        /* \"#utility.yul\":8915:8937   */\n      add\n        /* \"#utility.yul\":8884:8947   */\n      tag_154\n      jump\t// in\n    tag_295:\n        /* \"#utility.yul\":8874:8947   */\n      swap4\n      pop\n        /* \"#utility.yul\":8669:8957   */\n      pop\n        /* \"#utility.yul\":8996:8998   */\n      0x40\n        /* \"#utility.yul\":9022:9075   */\n      tag_296\n        /* \"#utility.yul\":9067:9074   */\n      dup8\n        /* \"#utility.yul\":9058:9064   */\n      dup3\n        /* \"#utility.yul\":9047:9056   */\n      dup9\n        /* \"#utility.yul\":9043:9065   */\n      add\n        /* \"#utility.yul\":9022:9075   */\n      tag_159\n      jump\t// in\n    tag_296:\n        /* \"#utility.yul\":9012:9075   */\n      swap3\n      pop\n        /* \"#utility.yul\":8967:9085   */\n      pop\n        /* \"#utility.yul\":9124:9126   */\n      0x60\n        /* \"#utility.yul\":9150:9203   */\n      tag_297\n        /* \"#utility.yul\":9195:9202   */\n      dup8\n        /* \"#utility.yul\":9186:9192   */\n      dup3\n        /* \"#utility.yul\":9175:9184   */\n      dup9\n        /* \"#utility.yul\":9171:9193   */\n      add\n        /* \"#utility.yul\":9150:9203   */\n      tag_144\n      jump\t// in\n    tag_297:\n        /* \"#utility.yul\":9140:9203   */\n      swap2\n      pop\n        /* \"#utility.yul\":9095:9213   */\n      pop\n        /* \"#utility.yul\":8095:9220   */\n      swap3\n      swap6\n      swap2\n      swap5\n      pop\n      swap3\n      pop\n      jump\t// out\n        /* \"#utility.yul\":9226:9408   */\n    tag_167:\n        /* \"#utility.yul\":9366:9400   */\n      0x596f75277265206e6f74206d61726b6564206173206120766572696669657221\n        /* \"#utility.yul\":9362:9363   */\n      0x00\n        /* \"#utility.yul\":9354:9360   */\n      dup3\n        /* \"#utility.yul\":9350:9364   */\n      add\n        /* \"#utility.yul\":9343:9401   */\n      mstore\n        /* \"#utility.yul\":9226:9408   */\n      pop\n      jump\t// out\n        /* \"#utility.yul\":9414:9780   */\n    tag_168:\n        /* \"#utility.yul\":9556:9559   */\n      0x00\n        /* \"#utility.yul\":9577:9644   */\n      tag_300\n        /* \"#utility.yul\":9641:9643   */\n      0x20\n        /* \"#utility.yul\":9636:9639   */\n      dup4\n        /* \"#utility.yul\":9577:9644   */\n      tag_164\n      jump\t// in\n    tag_300:\n        /* \"#utility.yul\":9570:9644   */\n      swap2\n      pop\n        /* \"#utility.yul\":9653:9746   */\n      tag_301\n        /* \"#utility.yul\":9742:9745   */\n      dup3\n        /* \"#utility.yul\":9653:9746   */\n      tag_167\n      jump\t// in\n    tag_301:\n        /* \"#utility.yul\":9771:9773   */\n      0x20\n        /* \"#utility.yul\":9766:9769   */\n      dup3\n        /* \"#utility.yul\":9762:9774   */\n      add\n        /* \"#utility.yul\":9755:9774   */\n      swap1\n      pop\n        /* \"#utility.yul\":9414:9780   */\n      swap2\n      swap1\n      pop\n      jump\t// out\n        /* \"#utility.yul\":9786:10205   */\n    tag_61:\n        /* \"#utility.yul\":9952:9956   */\n      0x00\n        /* \"#utility.yul\":9990:9992   */\n      0x20\n        /* \"#utility.yul\":9979:9988   */\n      dup3\n        /* \"#utility.yul\":9975:9993   */\n      add\n        /* \"#utility.yul\":9967:9993   */\n      swap1\n      pop\n        /* \"#utility.yul\":10039:10048   */\n      dup2\n        /* \"#utility.yul\":10033:10037   */\n      dup2\n        /* \"#utility.yul\":10029:10049   */\n      sub\n        /* \"#utility.yul\":10025:10026   */\n      0x00\n        /* \"#utility.yul\":10014:10023   */\n      dup4\n        /* \"#utility.yul\":10010:10027   */\n      add\n        /* \"#utility.yul\":10003:10050   */\n      mstore\n        /* \"#utility.yul\":10067:10198   */\n      tag_303\n        /* \"#utility.yul\":10193:10197   */\n      dup2\n        /* \"#utility.yul\":10067:10198   */\n      tag_168\n      jump\t// in\n    tag_303:\n        /* \"#utility.yul\":10059:10198   */\n      swap1\n      pop\n        /* \"#utility.yul\":9786:10205   */\n      swap2\n      swap1\n      pop\n      jump\t// out\n        /* \"#utility.yul\":10211:10391   */\n    tag_64:\n        /* \"#utility.yul\":10259:10336   */\n      0x4e487b7100000000000000000000000000000000000000000000000000000000\n        /* \"#utility.yul\":10256:10257   */\n      0x00\n        /* \"#utility.yul\":10249:10337   */\n      mstore\n        /* \"#utility.yul\":10356:10360   */\n      0x32\n        /* \"#utility.yul\":10353:10354   */\n      0x04\n        /* \"#utility.yul\":10346:10361   */\n      mstore\n        /* \"#utility.yul\":10380:10384   */\n      0x24\n        /* \"#utility.yul\":10377:10378   */\n      0x00\n        /* \"#utility.yul\":10370:10385   */\n      revert\n        /* \"#utility.yul\":10397:10618   */\n    tag_169:\n        /* \"#utility.yul\":10537:10571   */\n      0x5265717565737420697320616c7265616479206d61726b656420617320737061\n        /* \"#utility.yul\":10533:10534   */\n      0x00\n        /* \"#utility.yul\":10525:10531   */\n      dup3\n        /* \"#utility.yul\":10521:10535   */\n      add\n        /* \"#utility.yul\":10514:10572   */\n      mstore\n        /* \"#utility.yul\":10606:10610   */\n      0x6d2e000000000000000000000000000000000000000000000000000000000000\n        /* \"#utility.yul\":10601:10603   */\n      0x20\n        /* \"#utility.yul\":10593:10599   */\n      dup3\n        /* \"#utility.yul\":10589:10604   */\n      add\n        /* \"#utility.yul\":10582:10611   */\n      mstore\n        /* \"#utility.yul\":10397:10618   */\n      pop\n      jump\t// out\n        /* \"#utility.yul\":10624:10990   */\n    tag_170:\n        /* \"#utility.yul\":10766:10769   */\n      0x00\n        /* \"#utility.yul\":10787:10854   */\n      tag_307\n        /* \"#utility.yul\":10851:10853   */\n      0x22\n        /* \"#utility.yul\":10846:10849   */\n      dup4\n        /* \"#utility.yul\":10787:10854   */\n      tag_164\n      jump\t// in\n    tag_307:\n        /* \"#utility.yul\":10780:10854   */\n      swap2\n      pop\n        /* \"#utility.yul\":10863:10956   */\n      tag_308\n        /* \"#utility.yul\":10952:10955   */\n      dup3\n        /* \"#utility.yul\":10863:10956   */\n      tag_169\n      jump\t// in\n    tag_308:\n        /* \"#utility.yul\":10981:10983   */\n      0x40\n        /* \"#utility.yul\":10976:10979   */\n      dup3\n        /* \"#utility.yul\":10972:10984   */\n      add\n        /* \"#utility.yul\":10965:10984   */\n      swap1\n      pop\n        /* \"#utility.yul\":10624:10990   */\n      swap2\n      swap1\n      pop\n      jump\t// out\n        /* \"#utility.yul\":10996:11415   */\n    tag_68:\n        /* \"#utility.yul\":11162:11166   */\n      0x00\n        /* \"#utility.yul\":11200:11202   */\n      0x20\n        /* \"#utility.yul\":11189:11198   */\n      dup3\n        /* \"#utility.yul\":11185:11203   */\n      add\n        /* \"#utility.yul\":11177:11203   */\n      swap1\n      pop\n        /* \"#utility.yul\":11249:11258   */\n      dup2\n        /* \"#utility.yul\":11243:11247   */\n      dup2\n        /* \"#utility.yul\":11239:11259   */\n      sub\n        /* \"#utility.yul\":11235:11236   */\n      0x00\n        /* \"#utility.yul\":11224:11233   */\n      dup4\n        /* \"#utility.yul\":11220:11237   */\n      add\n        /* \"#utility.yul\":11213:11260   */\n      mstore\n        /* \"#utility.yul\":11277:11408   */\n      tag_310\n        /* \"#utility.yul\":11403:11407   */\n      dup2\n        /* \"#utility.yul\":11277:11408   */\n      tag_170\n      jump\t// in\n    tag_310:\n        /* \"#utility.yul\":11269:11408   */\n      swap1\n      pop\n        /* \"#utility.yul\":10996:11415   */\n      swap2\n      swap1\n      pop\n      jump\t// out\n        /* \"#utility.yul\":11421:11643   */\n    tag_171:\n        /* \"#utility.yul\":11561:11595   */\n      0x5265717565737420697320616c7265616479206d61726b6564206173206c6567\n        /* \"#utility.yul\":11557:11558   */\n      0x00\n        /* \"#utility.yul\":11549:11555   */\n      dup3\n        /* \"#utility.yul\":11545:11559   */\n      add\n        /* \"#utility.yul\":11538:11596   */\n      mstore\n        /* \"#utility.yul\":11630:11635   */\n      0x69742e0000000000000000000000000000000000000000000000000000000000\n        /* \"#utility.yul\":11625:11627   */\n      0x20\n        /* \"#utility.yul\":11617:11623   */\n      dup3\n        /* \"#utility.yul\":11613:11628   */\n      add\n        /* \"#utility.yul\":11606:11636   */\n      mstore\n        /* \"#utility.yul\":11421:11643   */\n      pop\n      jump\t// out\n        /* \"#utility.yul\":11649:12015   */\n    tag_172:\n        /* \"#utility.yul\":11791:11794   */\n      0x00\n        /* \"#utility.yul\":11812:11879   */\n      tag_313\n        /* \"#utility.yul\":11876:11878   */\n      0x23\n        /* \"#utility.yul\":11871:11874   */\n      dup4\n        /* \"#utility.yul\":11812:11879   */\n      tag_164\n      jump\t// in\n    tag_313:\n        /* \"#utility.yul\":11805:11879   */\n      swap2\n      pop\n        /* \"#utility.yul\":11888:11981   */\n      tag_314\n        /* \"#utility.yul\":11977:11980   */\n      dup3\n        /* \"#utility.yul\":11888:11981   */\n      tag_171\n      jump\t// in\n    tag_314:\n        /* \"#utility.yul\":12006:12008   */\n      0x40\n        /* \"#utility.yul\":12001:12004   */\n      dup3\n        /* \"#utility.yul\":11997:12009   */\n      add\n        /* \"#utility.yul\":11990:12009   */\n      swap1\n      pop\n        /* \"#utility.yul\":11649:12015   */\n      swap2\n      swap1\n      pop\n      jump\t// out\n        /* \"#utility.yul\":12021:12440   */\n    tag_71:\n        /* \"#utility.yul\":12187:12191   */\n      0x00\n        /* \"#utility.yul\":12225:12227   */\n      0x20\n        /* \"#utility.yul\":12214:12223   */\n      dup3\n        /* \"#utility.yul\":12210:12228   */\n      add\n        /* \"#utility.yul\":12202:12228   */\n      swap1\n      pop\n        /* \"#utility.yul\":12274:12283   */\n      dup2\n        /* \"#utility.yul\":12268:12272   */\n      dup2\n        /* \"#utility.yul\":12264:12284   */\n      sub\n        /* \"#utility.yul\":12260:12261   */\n      0x00\n        /* \"#utility.yul\":12249:12258   */\n      dup4\n        /* \"#utility.yul\":12245:12262   */\n      add\n        /* \"#utility.yul\":12238:12285   */\n      mstore\n        /* \"#utility.yul\":12302:12433   */\n      tag_316\n        /* \"#utility.yul\":12428:12432   */\n      dup2\n        /* \"#utility.yul\":12302:12433   */\n      tag_172\n      jump\t// in\n    tag_316:\n        /* \"#utility.yul\":12294:12433   */\n      swap1\n      pop\n        /* \"#utility.yul\":12021:12440   */\n      swap2\n      swap1\n      pop\n      jump\t// out\n        /* \"#utility.yul\":12446:12594   */\n    tag_173:\n        /* \"#utility.yul\":12548:12559   */\n      0x00\n        /* \"#utility.yul\":12585:12588   */\n      dup2\n        /* \"#utility.yul\":12570:12588   */\n      swap1\n      pop\n        /* \"#utility.yul\":12446:12594   */\n      swap3\n      swap2\n      pop\n      pop\n      jump\t// out\n        /* \"#utility.yul\":12600:12755   */\n    tag_174:\n        /* \"#utility.yul\":12740:12747   */\n      0x6c65676974000000000000000000000000000000000000000000000000000000\n        /* \"#utility.yul\":12736:12737   */\n      0x00\n        /* \"#utility.yul\":12728:12734   */\n      dup3\n        /* \"#utility.yul\":12724:12738   */\n      add\n        /* \"#utility.yul\":12717:12748   */\n      mstore\n        /* \"#utility.yul\":12600:12755   */\n      pop\n      jump\t// out\n        /* \"#utility.yul\":12761:13161   */\n    tag_175:\n        /* \"#utility.yul\":12921:12924   */\n      0x00\n        /* \"#utility.yul\":12942:13026   */\n      tag_320\n        /* \"#utility.yul\":13024:13025   */\n      0x05\n        /* \"#utility.yul\":13019:13022   */\n      dup4\n        /* \"#utility.yul\":12942:13026   */\n      tag_173\n      jump\t// in\n    tag_320:\n        /* \"#utility.yul\":12935:13026   */\n      swap2\n      pop\n        /* \"#utility.yul\":13035:13128   */\n      tag_321\n        /* \"#utility.yul\":13124:13127   */\n      dup3\n        /* \"#utility.yul\":13035:13128   */\n      tag_174\n      jump\t// in\n    tag_321:\n        /* \"#utility.yul\":13153:13154   */\n      0x05\n        /* \"#utility.yul\":13148:13151   */\n      dup3\n        /* \"#utility.yul\":13144:13155   */\n      add\n        /* \"#utility.yul\":13137:13155   */\n      swap1\n      pop\n        /* \"#utility.yul\":12761:13161   */\n      swap2\n      swap1\n      pop\n      jump\t// out\n        /* \"#utility.yul\":13167:13548   */\n    tag_73:\n        /* \"#utility.yul\":13352:13355   */\n      0x00\n        /* \"#utility.yul\":13374:13522   */\n      tag_323\n        /* \"#utility.yul\":13518:13521   */\n      dup3\n        /* \"#utility.yul\":13374:13522   */\n      tag_175\n      jump\t// in\n    tag_323:\n        /* \"#utility.yul\":13367:13522   */\n      swap2\n      pop\n        /* \"#utility.yul\":13539:13542   */\n      dup2\n        /* \"#utility.yul\":13532:13542   */\n      swap1\n      pop\n        /* \"#utility.yul\":13167:13548   */\n      swap2\n      swap1\n      pop\n      jump\t// out\n        /* \"#utility.yul\":13554:13931   */\n    tag_176:\n        /* \"#utility.yul\":13660:13663   */\n      0x00\n        /* \"#utility.yul\":13688:13727   */\n      tag_325\n        /* \"#utility.yul\":13721:13726   */\n      dup3\n        /* \"#utility.yul\":13688:13727   */\n      tag_163\n      jump\t// in\n    tag_325:\n        /* \"#utility.yul\":13743:13832   */\n      tag_326\n        /* \"#utility.yul\":13825:13831   */\n      dup2\n        /* \"#utility.yul\":13820:13823   */\n      dup6\n        /* \"#utility.yul\":13743:13832   */\n      tag_173\n      jump\t// in\n    tag_326:\n        /* \"#utility.yul\":13736:13832   */\n      swap4\n      pop\n        /* \"#utility.yul\":13841:13893   */\n      tag_327\n        /* \"#utility.yul\":13886:13892   */\n      dup2\n        /* \"#utility.yul\":13881:13884   */\n      dup6\n        /* \"#utility.yul\":13874:13878   */\n      0x20\n        /* \"#utility.yul\":13867:13872   */\n      dup7\n        /* \"#utility.yul\":13863:13879   */\n      add\n        /* \"#utility.yul\":13841:13893   */\n      tag_165\n      jump\t// in\n    tag_327:\n        /* \"#utility.yul\":13918:13924   */\n      dup1\n        /* \"#utility.yul\":13913:13916   */\n      dup5\n        /* \"#utility.yul\":13909:13925   */\n      add\n        /* \"#utility.yul\":13902:13925   */\n      swap2\n      pop\n        /* \"#utility.yul\":13664:13931   */\n      pop\n        /* \"#utility.yul\":13554:13931   */\n      swap3\n      swap2\n      pop\n      pop\n      jump\t// out\n        /* \"#utility.yul\":13937:14212   */\n    tag_75:\n        /* \"#utility.yul\":14069:14072   */\n      0x00\n        /* \"#utility.yul\":14091:14186   */\n      tag_329\n        /* \"#utility.yul\":14182:14185   */\n      dup3\n        /* \"#utility.yul\":14173:14179   */\n      dup5\n        /* \"#utility.yul\":14091:14186   */\n      tag_176\n      jump\t// in\n    tag_329:\n        /* \"#utility.yul\":14084:14186   */\n      swap2\n      pop\n        /* \"#utility.yul\":14203:14206   */\n      dup2\n        /* \"#utility.yul\":14196:14206   */\n      swap1\n      pop\n        /* \"#utility.yul\":13937:14212   */\n      swap3\n      swap2\n      pop\n      pop\n      jump\t// out\n        /* \"#utility.yul\":14218:14372   */\n    tag_177:\n        /* \"#utility.yul\":14358:14364   */\n      0x7370616d00000000000000000000000000000000000000000000000000000000\n        /* \"#utility.yul\":14354:14355   */\n      0x00\n        /* \"#utility.yul\":14346:14352   */\n      dup3\n        /* \"#utility.yul\":14342:14356   */\n      add\n        /* \"#utility.yul\":14335:14365   */\n      mstore\n        /* \"#utility.yul\":14218:14372   */\n      pop\n      jump\t// out\n        /* \"#utility.yul\":14378:14778   */\n    tag_178:\n        /* \"#utility.yul\":14538:14541   */\n      0x00\n        /* \"#utility.yul\":14559:14643   */\n      tag_332\n        /* \"#utility.yul\":14641:14642   */\n      0x04\n        /* \"#utility.yul\":14636:14639   */\n      dup4\n        /* \"#utility.yul\":14559:14643   */\n      tag_173\n      jump\t// in\n    tag_332:\n        /* \"#utility.yul\":14552:14643   */\n      swap2\n      pop\n        /* \"#utility.yul\":14652:14745   */\n      tag_333\n        /* \"#utility.yul\":14741:14744   */\n      dup3\n        /* \"#utility.yul\":14652:14745   */\n      tag_177\n      jump\t// in\n    tag_333:\n        /* \"#utility.yul\":14770:14771   */\n      0x04\n        /* \"#utility.yul\":14765:14768   */\n      dup3\n        /* \"#utility.yul\":14761:14772   */\n      add\n        /* \"#utility.yul\":14754:14772   */\n      swap1\n      pop\n        /* \"#utility.yul\":14378:14778   */\n      swap2\n      swap1\n      pop\n      jump\t// out\n        /* \"#utility.yul\":14784:15165   */\n    tag_79:\n        /* \"#utility.yul\":14969:14972   */\n      0x00\n        /* \"#utility.yul\":14991:15139   */\n      tag_335\n        /* \"#utility.yul\":15135:15138   */\n      dup3\n        /* \"#utility.yul\":14991:15139   */\n      tag_178\n      jump\t// in\n    tag_335:\n        /* \"#utility.yul\":14984:15139   */\n      swap2\n      pop\n        /* \"#utility.yul\":15156:15159   */\n      dup2\n        /* \"#utility.yul\":15149:15159   */\n      swap1\n      pop\n        /* \"#utility.yul\":14784:15165   */\n      swap2\n      swap1\n      pop\n      jump\t// out\n        /* \"#utility.yul\":15171:15351   */\n    tag_179:\n        /* \"#utility.yul\":15219:15296   */\n      0x4e487b7100000000000000000000000000000000000000000000000000000000\n        /* \"#utility.yul\":15216:15217   */\n      0x00\n        /* \"#utility.yul\":15209:15297   */\n      mstore\n        /* \"#utility.yul\":15316:15320   */\n      0x22\n        /* \"#utility.yul\":15313:15314   */\n      0x04\n        /* \"#utility.yul\":15306:15321   */\n      mstore\n        /* \"#utility.yul\":15340:15344   */\n      0x24\n        /* \"#utility.yul\":15337:15338   */\n      0x00\n        /* \"#utility.yul\":15330:15345   */\n      revert\n        /* \"#utility.yul\":15357:15677   */\n    tag_86:\n        /* \"#utility.yul\":15401:15407   */\n      0x00\n        /* \"#utility.yul\":15438:15439   */\n      0x02\n        /* \"#utility.yul\":15432:15436   */\n      dup3\n        /* \"#utility.yul\":15428:15440   */\n      div\n        /* \"#utility.yul\":15418:15440   */\n      swap1\n      pop\n        /* \"#utility.yul\":15485:15486   */\n      0x01\n        /* \"#utility.yul\":15479:15483   */\n      dup3\n        /* \"#utility.yul\":15475:15487   */\n      and\n        /* \"#utility.yul\":15506:15524   */\n      dup1\n        /* \"#utility.yul\":15496:15577   */\n      tag_338\n      jumpi\n        /* \"#utility.yul\":15562:15566   */\n      0x7f\n        /* \"#utility.yul\":15554:15560   */\n      dup3\n        /* \"#utility.yul\":15550:15567   */\n      and\n        /* \"#utility.yul\":15540:15567   */\n      swap2\n      pop\n        /* \"#utility.yul\":15496:15577   */\n    tag_338:\n        /* \"#utility.yul\":15624:15626   */\n      0x20\n        /* \"#utility.yul\":15616:15622   */\n      dup3\n        /* \"#utility.yul\":15613:15627   */\n      lt\n        /* \"#utility.yul\":15593:15611   */\n      dup2\n        /* \"#utility.yul\":15590:15628   */\n      sub\n        /* \"#utility.yul\":15587:15671   */\n      tag_339\n      jumpi\n        /* \"#utility.yul\":15643:15661   */\n      tag_340\n      tag_179\n      jump\t// in\n    tag_340:\n        /* \"#utility.yul\":15587:15671   */\n    tag_339:\n        /* \"#utility.yul\":15408:15677   */\n      pop\n        /* \"#utility.yul\":15357:15677   */\n      swap2\n      swap1\n      pop\n      jump\t// out\n        /* \"#utility.yul\":15683:15909   */\n    tag_180:\n        /* \"#utility.yul\":15823:15857   */\n      0x4f6e6c7920636f6e7472616374206d616e616765722063616e20736574207665\n        /* \"#utility.yul\":15819:15820   */\n      0x00\n        /* \"#utility.yul\":15811:15817   */\n      dup3\n        /* \"#utility.yul\":15807:15821   */\n      add\n        /* \"#utility.yul\":15800:15858   */\n      mstore\n        /* \"#utility.yul\":15892:15901   */\n      0x7269666965722e00000000000000000000000000000000000000000000000000\n        /* \"#utility.yul\":15887:15889   */\n      0x20\n        /* \"#utility.yul\":15879:15885   */\n      dup3\n        /* \"#utility.yul\":15875:15890   */\n      add\n        /* \"#utility.yul\":15868:15902   */\n      mstore\n        /* \"#utility.yul\":15683:15909   */\n      pop\n      jump\t// out\n        /* \"#utility.yul\":15915:16281   */\n    tag_181:\n        /* \"#utility.yul\":16057:16060   */\n      0x00\n        /* \"#utility.yul\":16078:16145   */\n      tag_343\n        /* \"#utility.yul\":16142:16144   */\n      0x27\n        /* \"#utility.yul\":16137:16140   */\n      dup4\n        /* \"#utility.yul\":16078:16145   */\n      tag_164\n      jump\t// in\n    tag_343:\n        /* \"#utility.yul\":16071:16145   */\n      swap2\n      pop\n        /* \"#utility.yul\":16154:16247   */\n      tag_344\n        /* \"#utility.yul\":16243:16246   */\n      dup3\n        /* \"#utility.yul\":16154:16247   */\n      tag_180\n      jump\t// in\n    tag_344:\n        /* \"#utility.yul\":16272:16274   */\n      0x40\n        /* \"#utility.yul\":16267:16270   */\n      dup3\n        /* \"#utility.yul\":16263:16275   */\n      add\n        /* \"#utility.yul\":16256:16275   */\n      swap1\n      pop\n        /* \"#utility.yul\":15915:16281   */\n      swap2\n      swap1\n      pop\n      jump\t// out\n        /* \"#utility.yul\":16287:16706   */\n    tag_99:\n        /* \"#utility.yul\":16453:16457   */\n      0x00\n        /* \"#utility.yul\":16491:16493   */\n      0x20\n        /* \"#utility.yul\":16480:16489   */\n      dup3\n        /* \"#utility.yul\":16476:16494   */\n      add\n        /* \"#utility.yul\":16468:16494   */\n      swap1\n      pop\n        /* \"#utility.yul\":16540:16549   */\n      dup2\n        /* \"#utility.yul\":16534:16538   */\n      dup2\n        /* \"#utility.yul\":16530:16550   */\n      sub\n        /* \"#utility.yul\":16526:16527   */\n      0x00\n        /* \"#utility.yul\":16515:16524   */\n      dup4\n        /* \"#utility.yul\":16511:16528   */\n      add\n        /* \"#utility.yul\":16504:16551   */\n      mstore\n        /* \"#utility.yul\":16568:16699   */\n      tag_346\n        /* \"#utility.yul\":16694:16698   */\n      dup2\n        /* \"#utility.yul\":16568:16699   */\n      tag_181\n      jump\t// in\n    tag_346:\n        /* \"#utility.yul\":16560:16699   */\n      swap1\n      pop\n        /* \"#utility.yul\":16287:16706   */\n      swap2\n      swap1\n      pop\n      jump\t// out\n        /* \"#utility.yul\":16712:16938   */\n    tag_182:\n        /* \"#utility.yul\":16852:16886   */\n      0x52657175657374656420766572696669657220697320616c726561647920696e\n        /* \"#utility.yul\":16848:16849   */\n      0x00\n        /* \"#utility.yul\":16840:16846   */\n      dup3\n        /* \"#utility.yul\":16836:16850   */\n      add\n        /* \"#utility.yul\":16829:16887   */\n      mstore\n        /* \"#utility.yul\":16921:16930   */\n      0x636c756465642e00000000000000000000000000000000000000000000000000\n        /* \"#utility.yul\":16916:16918   */\n      0x20\n        /* \"#utility.yul\":16908:16914   */\n      dup3\n        /* \"#utility.yul\":16904:16919   */\n      add\n        /* \"#utility.yul\":16897:16931   */\n      mstore\n        /* \"#utility.yul\":16712:16938   */\n      pop\n      jump\t// out\n        /* \"#utility.yul\":16944:17310   */\n    tag_183:\n        /* \"#utility.yul\":17086:17089   */\n      0x00\n        /* \"#utility.yul\":17107:17174   */\n      tag_349\n        /* \"#utility.yul\":17171:17173   */\n      0x27\n        /* \"#utility.yul\":17166:17169   */\n      dup4\n        /* \"#utility.yul\":17107:17174   */\n      tag_164\n      jump\t// in\n    tag_349:\n        /* \"#utility.yul\":17100:17174   */\n      swap2\n      pop\n        /* \"#utility.yul\":17183:17276   */\n      tag_350\n        /* \"#utility.yul\":17272:17275   */\n      dup3\n        /* \"#utility.yul\":17183:17276   */\n      tag_182\n      jump\t// in\n    tag_350:\n        /* \"#utility.yul\":17301:17303   */\n      0x40\n        /* \"#utility.yul\":17296:17299   */\n      dup3\n        /* \"#utility.yul\":17292:17304   */\n      add\n        /* \"#utility.yul\":17285:17304   */\n      swap1\n      pop\n        /* \"#utility.yul\":16944:17310   */\n      swap2\n      swap1\n      pop\n      jump\t// out\n        /* \"#utility.yul\":17316:17735   */\n    tag_102:\n        /* \"#utility.yul\":17482:17486   */\n      0x00\n        /* \"#utility.yul\":17520:17522   */\n      0x20\n        /* \"#utility.yul\":17509:17518   */\n      dup3\n        /* \"#utility.yul\":17505:17523   */\n      add\n        /* \"#utility.yul\":17497:17523   */\n      swap1\n      pop\n        /* \"#utility.yul\":17569:17578   */\n      dup2\n        /* \"#utility.yul\":17563:17567   */\n      dup2\n        /* \"#utility.yul\":17559:17579   */\n      sub\n        /* \"#utility.yul\":17555:17556   */\n      0x00\n        /* \"#utility.yul\":17544:17553   */\n      dup4\n        /* \"#utility.yul\":17540:17557   */\n      add\n        /* \"#utility.yul\":17533:17580   */\n      mstore\n        /* \"#utility.yul\":17597:17728   */\n      tag_352\n        /* \"#utility.yul\":17723:17727   */\n      dup2\n        /* \"#utility.yul\":17597:17728   */\n      tag_183\n      jump\t// in\n    tag_352:\n        /* \"#utility.yul\":17589:17728   */\n      swap1\n      pop\n        /* \"#utility.yul\":17316:17735   */\n      swap2\n      swap1\n      pop\n      jump\t// out\n        /* \"#utility.yul\":17741:17917   */\n    tag_184:\n        /* \"#utility.yul\":17881:17909   */\n      0x52657175657374206973206d61726b6564206173207370616d2e000000000000\n        /* \"#utility.yul\":17877:17878   */\n      0x00\n        /* \"#utility.yul\":17869:17875   */\n      dup3\n        /* \"#utility.yul\":17865:17879   */\n      add\n        /* \"#utility.yul\":17858:17910   */\n      mstore\n        /* \"#utility.yul\":17741:17917   */\n      pop\n      jump\t// out\n        /* \"#utility.yul\":17923:18289   */\n    tag_185:\n        /* \"#utility.yul\":18065:18068   */\n      0x00\n        /* \"#utility.yul\":18086:18153   */\n      tag_355\n        /* \"#utility.yul\":18150:18152   */\n      0x1a\n        /* \"#utility.yul\":18145:18148   */\n      dup4\n        /* \"#utility.yul\":18086:18153   */\n      tag_164\n      jump\t// in\n    tag_355:\n        /* \"#utility.yul\":18079:18153   */\n      swap2\n      pop\n        /* \"#utility.yul\":18162:18255   */\n      tag_356\n        /* \"#utility.yul\":18251:18254   */\n      dup3\n        /* \"#utility.yul\":18162:18255   */\n      tag_184\n      jump\t// in\n    tag_356:\n        /* \"#utility.yul\":18280:18282   */\n      0x20\n        /* \"#utility.yul\":18275:18278   */\n      dup3\n        /* \"#utility.yul\":18271:18283   */\n      add\n        /* \"#utility.yul\":18264:18283   */\n      swap1\n      pop\n        /* \"#utility.yul\":17923:18289   */\n      swap2\n      swap1\n      pop\n      jump\t// out\n        /* \"#utility.yul\":18295:18714   */\n    tag_109:\n        /* \"#utility.yul\":18461:18465   */\n      0x00\n        /* \"#utility.yul\":18499:18501   */\n      0x20\n        /* \"#utility.yul\":18488:18497   */\n      dup3\n        /* \"#utility.yul\":18484:18502   */\n      add\n        /* \"#utility.yul\":18476:18502   */\n      swap1\n      pop\n        /* \"#utility.yul\":18548:18557   */\n      dup2\n        /* \"#utility.yul\":18542:18546   */\n      dup2\n        /* \"#utility.yul\":18538:18558   */\n      sub\n        /* \"#utility.yul\":18534:18535   */\n      0x00\n        /* \"#utility.yul\":18523:18532   */\n      dup4\n        /* \"#utility.yul\":18519:18536   */\n      add\n        /* \"#utility.yul\":18512:18559   */\n      mstore\n        /* \"#utility.yul\":18576:18707   */\n      tag_358\n        /* \"#utility.yul\":18702:18706   */\n      dup2\n        /* \"#utility.yul\":18576:18707   */\n      tag_185\n      jump\t// in\n    tag_358:\n        /* \"#utility.yul\":18568:18707   */\n      swap1\n      pop\n        /* \"#utility.yul\":18295:18714   */\n      swap2\n      swap1\n      pop\n      jump\t// out\n        /* \"#utility.yul\":18720:18898   */\n    tag_186:\n        /* \"#utility.yul\":18860:18890   */\n      0x526571756573746f72206973206d61726b6564206173207370616d2e00000000\n        /* \"#utility.yul\":18856:18857   */\n      0x00\n        /* \"#utility.yul\":18848:18854   */\n      dup3\n        /* \"#utility.yul\":18844:18858   */\n      add\n        /* \"#utility.yul\":18837:18891   */\n      mstore\n        /* \"#utility.yul\":18720:18898   */\n      pop\n      jump\t// out\n        /* \"#utility.yul\":18904:19270   */\n    tag_187:\n        /* \"#utility.yul\":19046:19049   */\n      0x00\n        /* \"#utility.yul\":19067:19134   */\n      tag_361\n        /* \"#utility.yul\":19131:19133   */\n      0x1c\n        /* \"#utility.yul\":19126:19129   */\n      dup4\n        /* \"#utility.yul\":19067:19134   */\n      tag_164\n      jump\t// in\n    tag_361:\n        /* \"#utility.yul\":19060:19134   */\n      swap2\n      pop\n        /* \"#utility.yul\":19143:19236   */\n      tag_362\n        /* \"#utility.yul\":19232:19235   */\n      dup3\n        /* \"#utility.yul\":19143:19236   */\n      tag_186\n      jump\t// in\n    tag_362:\n        /* \"#utility.yul\":19261:19263   */\n      0x20\n        /* \"#utility.yul\":19256:19259   */\n      dup3\n        /* \"#utility.yul\":19252:19264   */\n      add\n        /* \"#utility.yul\":19245:19264   */\n      swap1\n      pop\n        /* \"#utility.yul\":18904:19270   */\n      swap2\n      swap1\n      pop\n      jump\t// out\n        /* \"#utility.yul\":19276:19695   */\n    tag_112:\n        /* \"#utility.yul\":19442:19446   */\n      0x00\n        /* \"#utility.yul\":19480:19482   */\n      0x20\n        /* \"#utility.yul\":19469:19478   */\n      dup3\n        /* \"#utility.yul\":19465:19483   */\n      add\n        /* \"#utility.yul\":19457:19483   */\n      swap1\n      pop\n        /* \"#utility.yul\":19529:19538   */\n      dup2\n        /* \"#utility.yul\":19523:19527   */\n      dup2\n        /* \"#utility.yul\":19519:19539   */\n      sub\n        /* \"#utility.yul\":19515:19516   */\n      0x00\n        /* \"#utility.yul\":19504:19513   */\n      dup4\n        /* \"#utility.yul\":19500:19517   */\n      add\n        /* \"#utility.yul\":19493:19540   */\n      mstore\n        /* \"#utility.yul\":19557:19688   */\n      tag_364\n        /* \"#utility.yul\":19683:19687   */\n      dup2\n        /* \"#utility.yul\":19557:19688   */\n      tag_187\n      jump\t// in\n    tag_364:\n        /* \"#utility.yul\":19549:19688   */\n      swap1\n      pop\n        /* \"#utility.yul\":19276:19695   */\n      swap2\n      swap1\n      pop\n      jump\t// out\n        /* \"#utility.yul\":19701:19882   */\n    tag_188:\n        /* \"#utility.yul\":19841:19874   */\n      0x46756e64207265717565737420616c72656164792066756c66696c6c65642e00\n        /* \"#utility.yul\":19837:19838   */\n      0x00\n        /* \"#utility.yul\":19829:19835   */\n      dup3\n        /* \"#utility.yul\":19825:19839   */\n      add\n        /* \"#utility.yul\":19818:19875   */\n      mstore\n        /* \"#utility.yul\":19701:19882   */\n      pop\n      jump\t// out\n        /* \"#utility.yul\":19888:20254   */\n    tag_189:\n        /* \"#utility.yul\":20030:20033   */\n      0x00\n        /* \"#utility.yul\":20051:20118   */\n      tag_367\n        /* \"#utility.yul\":20115:20117   */\n      0x1f\n        /* \"#utility.yul\":20110:20113   */\n      dup4\n        /* \"#utility.yul\":20051:20118   */\n      tag_164\n      jump\t// in\n    tag_367:\n        /* \"#utility.yul\":20044:20118   */\n      swap2\n      pop\n        /* \"#utility.yul\":20127:20220   */\n      tag_368\n        /* \"#utility.yul\":20216:20219   */\n      dup3\n        /* \"#utility.yul\":20127:20220   */\n      tag_188\n      jump\t// in\n    tag_368:\n        /* \"#utility.yul\":20245:20247   */\n      0x20\n        /* \"#utility.yul\":20240:20243   */\n      dup3\n        /* \"#utility.yul\":20236:20248   */\n      add\n        /* \"#utility.yul\":20229:20248   */\n      swap1\n      pop\n        /* \"#utility.yul\":19888:20254   */\n      swap2\n      swap1\n      pop\n      jump\t// out\n        /* \"#utility.yul\":20260:20679   */\n    tag_115:\n        /* \"#utility.yul\":20426:20430   */\n      0x00\n        /* \"#utility.yul\":20464:20466   */\n      0x20\n        /* \"#utility.yul\":20453:20462   */\n      dup3\n        /* \"#utility.yul\":20449:20467   */\n      add\n        /* \"#utility.yul\":20441:20467   */\n      swap1\n      pop\n        /* \"#utility.yul\":20513:20522   */\n      dup2\n        /* \"#utility.yul\":20507:20511   */\n      dup2\n        /* \"#utility.yul\":20503:20523   */\n      sub\n        /* \"#utility.yul\":20499:20500   */\n      0x00\n        /* \"#utility.yul\":20488:20497   */\n      dup4\n        /* \"#utility.yul\":20484:20501   */\n      add\n        /* \"#utility.yul\":20477:20524   */\n      mstore\n        /* \"#utility.yul\":20541:20672   */\n      tag_370\n        /* \"#utility.yul\":20667:20671   */\n      dup2\n        /* \"#utility.yul\":20541:20672   */\n      tag_189\n      jump\t// in\n    tag_370:\n        /* \"#utility.yul\":20533:20672   */\n      swap1\n      pop\n        /* \"#utility.yul\":20260:20679   */\n      swap2\n      swap1\n      pop\n      jump\t// out\n        /* \"#utility.yul\":20685:20865   */\n    tag_190:\n        /* \"#utility.yul\":20733:20810   */\n      0x4e487b7100000000000000000000000000000000000000000000000000000000\n        /* \"#utility.yul\":20730:20731   */\n      0x00\n        /* \"#utility.yul\":20723:20811   */\n      mstore\n        /* \"#utility.yul\":20830:20834   */\n      0x11\n        /* \"#utility.yul\":20827:20828   */\n      0x04\n        /* \"#utility.yul\":20820:20835   */\n      mstore\n        /* \"#utility.yul\":20854:20858   */\n      0x24\n        /* \"#utility.yul\":20851:20852   */\n      0x00\n        /* \"#utility.yul\":20844:20859   */\n      revert\n        /* \"#utility.yul\":20871:21176   */\n    tag_117:\n        /* \"#utility.yul\":20911:20914   */\n      0x00\n        /* \"#utility.yul\":20930:20950   */\n      tag_373\n        /* \"#utility.yul\":20948:20949   */\n      dup3\n        /* \"#utility.yul\":20930:20950   */\n      tag_142\n      jump\t// in\n    tag_373:\n        /* \"#utility.yul\":20925:20950   */\n      swap2\n      pop\n        /* \"#utility.yul\":20964:20984   */\n      tag_374\n        /* \"#utility.yul\":20982:20983   */\n      dup4\n        /* \"#utility.yul\":20964:20984   */\n      tag_142\n      jump\t// in\n    tag_374:\n        /* \"#utility.yul\":20959:20984   */\n      swap3\n      pop\n        /* \"#utility.yul\":21118:21119   */\n      dup3\n        /* \"#utility.yul\":21050:21116   */\n      0xffffffffffffffffffffffffffffffffffffffffffffffffffffffffffffffff\n        /* \"#utility.yul\":21046:21120   */\n      sub\n        /* \"#utility.yul\":21043:21044   */\n      dup3\n        /* \"#utility.yul\":21040:21121   */\n      gt\n        /* \"#utility.yul\":21037:21144   */\n      iszero\n      tag_375\n      jumpi\n        /* \"#utility.yul\":21124:21142   */\n      tag_376\n      tag_190\n      jump\t// in\n    tag_376:\n        /* \"#utility.yul\":21037:21144   */\n    tag_375:\n        /* \"#utility.yul\":21168:21169   */\n      dup3\n        /* \"#utility.yul\":21165:21166   */\n      dup3\n        /* \"#utility.yul\":21161:21170   */\n      add\n        /* \"#utility.yul\":21154:21170   */\n      swap1\n      pop\n        /* \"#utility.yul\":20871:21176   */\n      swap3\n      swap2\n      pop\n      pop\n      jump\t// out\n        /* \"#utility.yul\":21182:21361   */\n    tag_191:\n        /* \"#utility.yul\":21322:21353   */\n      0x537573706963696f757320616374697669747920646574656374656421000000\n        /* \"#utility.yul\":21318:21319   */\n      0x00\n        /* \"#utility.yul\":21310:21316   */\n      dup3\n        /* \"#utility.yul\":21306:21320   */\n      add\n        /* \"#utility.yul\":21299:21354   */\n      mstore\n        /* \"#utility.yul\":21182:21361   */\n      pop\n      jump\t// out\n        /* \"#utility.yul\":21367:21733   */\n    tag_192:\n        /* \"#utility.yul\":21509:21512   */\n      0x00\n        /* \"#utility.yul\":21530:21597   */\n      tag_379\n        /* \"#utility.yul\":21594:21596   */\n      0x1d\n        /* \"#utility.yul\":21589:21592   */\n      dup4\n        /* \"#utility.yul\":21530:21597   */\n      tag_164\n      jump\t// in\n    tag_379:\n        /* \"#utility.yul\":21523:21597   */\n      swap2\n      pop\n        /* \"#utility.yul\":21606:21699   */\n      tag_380\n        /* \"#utility.yul\":21695:21698   */\n      dup3\n        /* \"#utility.yul\":21606:21699   */\n      tag_191\n      jump\t// in\n    tag_380:\n        /* \"#utility.yul\":21724:21726   */\n      0x20\n        /* \"#utility.yul\":21719:21722   */\n      dup3\n        /* \"#utility.yul\":21715:21727   */\n      add\n        /* \"#utility.yul\":21708:21727   */\n      swap1\n      pop\n        /* \"#utility.yul\":21367:21733   */\n      swap2\n      swap1\n      pop\n      jump\t// out\n        /* \"#utility.yul\":21739:22158   */\n    tag_124:\n        /* \"#utility.yul\":21905:21909   */\n      0x00\n        /* \"#utility.yul\":21943:21945   */\n      0x20\n        /* \"#utility.yul\":21932:21941   */\n      dup3\n        /* \"#utility.yul\":21928:21946   */\n      add\n        /* \"#utility.yul\":21920:21946   */\n      swap1\n      pop\n        /* \"#utility.yul\":21992:22001   */\n      dup2\n        /* \"#utility.yul\":21986:21990   */\n      dup2\n        /* \"#utility.yul\":21982:22002   */\n      sub\n        /* \"#utility.yul\":21978:21979   */\n      0x00\n        /* \"#utility.yul\":21967:21976   */\n      dup4\n        /* \"#utility.yul\":21963:21980   */\n      add\n        /* \"#utility.yul\":21956:22003   */\n      mstore\n        /* \"#utility.yul\":22020:22151   */\n      tag_382\n        /* \"#utility.yul\":22146:22150   */\n      dup2\n        /* \"#utility.yul\":22020:22151   */\n      tag_192\n      jump\t// in\n    tag_382:\n        /* \"#utility.yul\":22012:22151   */\n      swap1\n      pop\n        /* \"#utility.yul\":21739:22158   */\n      swap2\n      swap1\n      pop\n      jump\t// out\n\n    auxdata: 0xa26469706673582212206b50733d8b3436a54c165b9e41b69358a00cbb518770f9bfb1e4fd5d8d73142864736f6c634300080d0033\n}\n","bytecode":{"linkReferences":{},"object":"608060405234801561001057600080fd5b50336000806101000a81548173ffffffffffffffffffffffffffffffffffffffff021916908373ffffffffffffffffffffffffffffffffffffffff1602179055506119ad806100606000396000f3fe6080604052600436106100865760003560e01c80636c824487116100595780636c8244871461014757806381d12c58146101845780639000b3d6146101c9578063c742d867146101f2578063f4c161a21461020e57610086565b80632ec865731461008b5780633fad1834146100b4578063458ad18a146100df578063481c6a751461011c575b600080fd5b34801561009757600080fd5b506100b260048036038101906100ad9190610f8a565b610237565b005b3480156100c057600080fd5b506100c96104f1565b6040516100d69190610ff5565b60405180910390f35b3480156100eb57600080fd5b506101066004803603810190610101919061106e565b6104fe565b60405161011391906110b6565b60405180910390f35b34801561012857600080fd5b5061013161051e565b60405161013e91906110e0565b60405180910390f35b34801561015357600080fd5b5061016e6004803603810190610169919061106e565b610542565b60405161017b91906110b6565b60405180910390f35b34801561019057600080fd5b506101ab60048036038101906101a691906110fb565b610562565b6040516101c0999897969594939291906111b0565b60405180910390f35b3480156101d557600080fd5b506101f060048036038101906101eb919061106e565b610737565b005b61020c600480360381019061020791906110fb565b6108ac565b005b34801561021a57600080fd5b506102356004803603810190610230919061124b565b610ade565b005b600160003373ffffffffffffffffffffffffffffffffffffffff1673ffffffffffffffffffffffffffffffffffffffff16815260200190815260200160002060009054906101000a900460ff166102c3576040517f08c379a00000000000000000000000000000000000000000000000000000000081526004016102ba90611336565b60405180910390fd5b6000600383815481106102d9576102d8611356565b5b906000526020600020906007020190508060060160009054906101000a900460ff161561033b576040517f08c379a0000000000000000000000000000000000000000000000000000000008152600401610332906113f7565b60405180910390fd5b8060060160019054906101000a900460ff161561038d576040517f08c379a000000000000000000000000000000000000000000000000000000000815260040161038490611489565b60405180910390fd5b60405160200161039c90611500565b60405160208183030381529060405280519060200120826040516020016103c39190611546565b60405160208183030381529060405280519060200120036104005760018160060160016101000a81548160ff0219169083151502179055506104ec565b60405160200161040f906115a9565b60405160208183030381529060405280519060200120826040516020016104369190611546565b60405160208183030381529060405280519060200120036104eb5760018160060160006101000a81548160ff0219169083151502179055506001600260008360030160009054906101000a900473ffffffffffffffffffffffffffffffffffffffff1673ffffffffffffffffffffffffffffffffffffffff1673ffffffffffffffffffffffffffffffffffffffff16815260200190815260200160002060006101000a81548160ff0219169083151502179055505b5b505050565b6000600380549050905090565b60026020528060005260406000206000915054906101000a900460ff1681565b60008054906101000a900473ffffffffffffffffffffffffffffffffffffffff1681565b60016020528060005260406000206000915054906101000a900460ff1681565b6003818154811061057257600080fd5b9060005260206000209060070201600091509050806000018054610595906115ed565b80601f01602080910402602001604051908101604052809291908181526020018280546105c1906115ed565b801561060e5780601f106105e35761010080835404028352916020019161060e565b820191906000526020600020905b8154815290600101906020018083116105f157829003601f168201915b505050505090806001018054610623906115ed565b80601f016020809104026020016040519081016040528092919081815260200182805461064f906115ed565b801561069c5780601f106106715761010080835404028352916020019161069c565b820191906000526020600020905b81548152906001019060200180831161067f57829003601f168201915b5050505050908060020160009054906101000a900473ffffffffffffffffffffffffffffffffffffffff16908060030160009054906101000a900473ffffffffffffffffffffffffffffffffffffffff16908060040154908060050154908060060160009054906101000a900460ff16908060060160019054906101000a900460ff16908060060160029054906101000a900460ff16905089565b60008054906101000a900473ffffffffffffffffffffffffffffffffffffffff1673ffffffffffffffffffffffffffffffffffffffff163373ffffffffffffffffffffffffffffffffffffffff16146107c5576040517f08c379a00000000000000000000000000000000000000000000000000000000081526004016107bc90611690565b60405180910390fd5b600160008273ffffffffffffffffffffffffffffffffffffffff1673ffffffffffffffffffffffffffffffffffffffff16815260200190815260200160002060009054906101000a900460ff1615610852576040517f08c379a000000000000000000000000000000000000000000000000000000000815260040161084990611722565b60405180910390fd5b60018060008373ffffffffffffffffffffffffffffffffffffffff1673ffffffffffffffffffffffffffffffffffffffff16815260200190815260200160002060006101000a81548160ff02191690831515021790555050565b6000600382815481106108c2576108c1611356565b5b906000526020600020906007020190508060060160009054906101000a900460ff1615610924576040517f08c379a000000000000000000000000000000000000000000000000000000000815260040161091b9061178e565b60405180910390fd5b600260008260030160009054906101000a900473ffffffffffffffffffffffffffffffffffffffff1673ffffffffffffffffffffffffffffffffffffffff1673ffffffffffffffffffffffffffffffffffffffff16815260200190815260200160002060009054906101000a900460ff16156109d5576040517f08c379a00000000000000000000000000000000000000000000000000000000081526004016109cc906117fa565b60405180910390fd5b8060060160029054906101000a900460ff1615610a27576040517f08c379a0000000000000000000000000000000000000000000000000000000008152600401610a1e90611866565b60405180910390fd5b34816005016000828254610a3b91906118b5565b925050819055508060040154816005015410610a6f5760018160060160026101000a81548160ff0219169083151502179055505b8060020160009054906101000a900473ffffffffffffffffffffffffffffffffffffffff1673ffffffffffffffffffffffffffffffffffffffff166108fc349081150290604051600060405180830381858888f19350505050158015610ad9573d6000803e3d6000fd5b505050565b600260003373ffffffffffffffffffffffffffffffffffffffff1673ffffffffffffffffffffffffffffffffffffffff16815260200190815260200160002060009054906101000a900460ff1615610b6b576040517f08c379a0000000000000000000000000000000000000000000000000000000008152600401610b6290611957565b60405180910390fd5b60006040518061012001604052808681526020018581526020018473ffffffffffffffffffffffffffffffffffffffff1681526020013373ffffffffffffffffffffffffffffffffffffffff1681526020018381526020016000815260200160001515815260200160001515815260200160001515815250905060038190806001815401808255809150506001900390600052602060002090600702016000909190919091506000820151816000019080519060200190610c2d929190610d57565b506020820151816001019080519060200190610c4a929190610d57565b5060408201518160020160006101000a81548173ffffffffffffffffffffffffffffffffffffffff021916908373ffffffffffffffffffffffffffffffffffffffff16021790555060608201518160030160006101000a81548173ffffffffffffffffffffffffffffffffffffffff021916908373ffffffffffffffffffffffffffffffffffffffff1602179055506080820151816004015560a0820151816005015560c08201518160060160006101000a81548160ff02191690831515021790555060e08201518160060160016101000a81548160ff0219169083151502179055506101008201518160060160026101000a81548160ff02191690831515021790555050505050505050565b828054610d63906115ed565b90600052602060002090601f016020900481019282610d855760008555610dcc565b82601f10610d9e57805160ff1916838001178555610dcc565b82800160010185558215610dcc579182015b82811115610dcb578251825591602001919060010190610db0565b5b509050610dd99190610ddd565b5090565b5b80821115610df6576000816000905550600101610dde565b5090565b6000604051905090565b600080fd5b600080fd5b6000819050919050565b610e2181610e0e565b8114610e2c57600080fd5b50565b600081359050610e3e81610e18565b92915050565b600080fd5b600080fd5b6000601f19601f8301169050919050565b7f4e487b7100000000000000000000000000000000000000000000000000000000600052604160045260246000fd5b610e9782610e4e565b810181811067ffffffffffffffff82111715610eb657610eb5610e5f565b5b80604052505050565b6000610ec9610dfa565b9050610ed58282610e8e565b919050565b600067ffffffffffffffff821115610ef557610ef4610e5f565b5b610efe82610e4e565b9050602081019050919050565b82818337600083830152505050565b6000610f2d610f2884610eda565b610ebf565b905082815260208101848484011115610f4957610f48610e49565b5b610f54848285610f0b565b509392505050565b600082601f830112610f7157610f70610e44565b5b8135610f81848260208601610f1a565b91505092915050565b60008060408385031215610fa157610fa0610e04565b5b6000610faf85828601610e2f565b925050602083013567ffffffffffffffff811115610fd057610fcf610e09565b5b610fdc85828601610f5c565b9150509250929050565b610fef81610e0e565b82525050565b600060208201905061100a6000830184610fe6565b92915050565b600073ffffffffffffffffffffffffffffffffffffffff82169050919050565b600061103b82611010565b9050919050565b61104b81611030565b811461105657600080fd5b50565b60008135905061106881611042565b92915050565b60006020828403121561108457611083610e04565b5b600061109284828501611059565b91505092915050565b60008115159050919050565b6110b08161109b565b82525050565b60006020820190506110cb60008301846110a7565b92915050565b6110da81611030565b82525050565b60006020820190506110f560008301846110d1565b92915050565b60006020828403121561111157611110610e04565b5b600061111f84828501610e2f565b91505092915050565b600081519050919050565b600082825260208201905092915050565b60005b83811015611162578082015181840152602081019050611147565b83811115611171576000848401525b50505050565b600061118282611128565b61118c8185611133565b935061119c818560208601611144565b6111a581610e4e565b840191505092915050565b60006101208201905081810360008301526111cb818c611177565b905081810360208301526111df818b611177565b90506111ee604083018a6110d1565b6111fb60608301896110d1565b6112086080830188610fe6565b61121560a0830187610fe6565b61122260c08301866110a7565b61122f60e08301856110a7565b61123d6101008301846110a7565b9a9950505050505050505050565b6000806000806080858703121561126557611264610e04565b5b600085013567ffffffffffffffff81111561128357611282610e09565b5b61128f87828801610f5c565b945050602085013567ffffffffffffffff8111156112b0576112af610e09565b5b6112bc87828801610f5c565b93505060406112cd87828801611059565b92505060606112de87828801610e2f565b91505092959194509250565b7f596f75277265206e6f74206d61726b6564206173206120766572696669657221600082015250565b6000611320602083611133565b915061132b826112ea565b602082019050919050565b6000602082019050818103600083015261134f81611313565b9050919050565b7f4e487b7100000000000000000000000000000000000000000000000000000000600052603260045260246000fd5b7f5265717565737420697320616c7265616479206d61726b65642061732073706160008201527f6d2e000000000000000000000000000000000000000000000000000000000000602082015250565b60006113e1602283611133565b91506113ec82611385565b604082019050919050565b60006020820190508181036000830152611410816113d4565b9050919050565b7f5265717565737420697320616c7265616479206d61726b6564206173206c656760008201527f69742e0000000000000000000000000000000000000000000000000000000000602082015250565b6000611473602383611133565b915061147e82611417565b604082019050919050565b600060208201905081810360008301526114a281611466565b9050919050565b600081905092915050565b7f6c65676974000000000000000000000000000000000000000000000000000000600082015250565b60006114ea6005836114a9565b91506114f5826114b4565b600582019050919050565b600061150b826114dd565b9150819050919050565b600061152082611128565b61152a81856114a9565b935061153a818560208601611144565b80840191505092915050565b60006115528284611515565b915081905092915050565b7f7370616d00000000000000000000000000000000000000000000000000000000600082015250565b60006115936004836114a9565b915061159e8261155d565b600482019050919050565b60006115b482611586565b9150819050919050565b7f4e487b7100000000000000000000000000000000000000000000000000000000600052602260045260246000fd5b6000600282049050600182168061160557607f821691505b602082108103611618576116176115be565b5b50919050565b7f4f6e6c7920636f6e7472616374206d616e616765722063616e2073657420766560008201527f7269666965722e00000000000000000000000000000000000000000000000000602082015250565b600061167a602783611133565b91506116858261161e565b604082019050919050565b600060208201905081810360008301526116a98161166d565b9050919050565b7f52657175657374656420766572696669657220697320616c726561647920696e60008201527f636c756465642e00000000000000000000000000000000000000000000000000602082015250565b600061170c602783611133565b9150611717826116b0565b604082019050919050565b6000602082019050818103600083015261173b816116ff565b9050919050565b7f52657175657374206973206d61726b6564206173207370616d2e000000000000600082015250565b6000611778601a83611133565b915061178382611742565b602082019050919050565b600060208201905081810360008301526117a78161176b565b9050919050565b7f526571756573746f72206973206d61726b6564206173207370616d2e00000000600082015250565b60006117e4601c83611133565b91506117ef826117ae565b602082019050919050565b60006020820190508181036000830152611813816117d7565b9050919050565b7f46756e64207265717565737420616c72656164792066756c66696c6c65642e00600082015250565b6000611850601f83611133565b915061185b8261181a565b602082019050919050565b6000602082019050818103600083015261187f81611843565b9050919050565b7f4e487b7100000000000000000000000000000000000000000000000000000000600052601160045260246000fd5b60006118c082610e0e565b91506118cb83610e0e565b9250827fffffffffffffffffffffffffffffffffffffffffffffffffffffffffffffffff03821115611900576118ff611886565b5b828201905092915050565b7f537573706963696f757320616374697669747920646574656374656421000000600082015250565b6000611941601d83611133565b915061194c8261190b565b602082019050919050565b6000602082019050818103600083015261197081611934565b905091905056fea26469706673582212206b50733d8b3436a54c165b9e41b69358a00cbb518770f9bfb1e4fd5d8d73142864736f6c634300080d0033","opcodes":"PUSH1 0x80 PUSH1 0x40 MSTORE CALLVALUE DUP1 ISZERO PUSH2 0x10 JUMPI PUSH1 0x0 DUP1 REVERT JUMPDEST POP CALLER PUSH1 0x0 DUP1 PUSH2 0x100 EXP DUP2 SLOAD DUP2 PUSH20 0xFFFFFFFFFFFFFFFFFFFFFFFFFFFFFFFFFFFFFFFF MUL NOT AND SWAP1 DUP4 PUSH20 0xFFFFFFFFFFFFFFFFFFFFFFFFFFFFFFFFFFFFFFFF AND MUL OR SWAP1 SSTORE POP PUSH2 0x19AD DUP1 PUSH2 0x60 PUSH1 0x0 CODECOPY PUSH1 0x0 RETURN INVALID PUSH1 0x80 PUSH1 0x40 MSTORE PUSH1 0x4 CALLDATASIZE LT PUSH2 0x86 JUMPI PUSH1 0x0 CALLDATALOAD PUSH1 0xE0 SHR DUP1 PUSH4 0x6C824487 GT PUSH2 0x59 JUMPI DUP1 PUSH4 0x6C824487 EQ PUSH2 0x147 JUMPI DUP1 PUSH4 0x81D12C58 EQ PUSH2 0x184 JUMPI DUP1 PUSH4 0x9000B3D6 EQ PUSH2 0x1C9 JUMPI DUP1 PUSH4 0xC742D867 EQ PUSH2 0x1F2 JUMPI DUP1 PUSH4 0xF4C161A2 EQ PUSH2 0x20E JUMPI PUSH2 0x86 JUMP JUMPDEST DUP1 PUSH4 0x2EC86573 EQ PUSH2 0x8B JUMPI DUP1 PUSH4 0x3FAD1834 EQ PUSH2 0xB4 JUMPI DUP1 PUSH4 0x458AD18A EQ PUSH2 0xDF JUMPI DUP1 PUSH4 0x481C6A75 EQ PUSH2 0x11C JUMPI JUMPDEST PUSH1 0x0 DUP1 REVERT JUMPDEST CALLVALUE DUP1 ISZERO PUSH2 0x97 JUMPI PUSH1 0x0 DUP1 REVERT JUMPDEST POP PUSH2 0xB2 PUSH1 0x4 DUP1 CALLDATASIZE SUB DUP2 ADD SWAP1 PUSH2 0xAD SWAP2 SWAP1 PUSH2 0xF8A JUMP JUMPDEST PUSH2 0x237 JUMP JUMPDEST STOP JUMPDEST CALLVALUE DUP1 ISZERO PUSH2 0xC0 JUMPI PUSH1 0x0 DUP1 REVERT JUMPDEST POP PUSH2 0xC9 PUSH2 0x4F1 JUMP JUMPDEST PUSH1 0x40 MLOAD PUSH2 0xD6 SWAP2 SWAP1 PUSH2 0xFF5 JUMP JUMPDEST PUSH1 0x40 MLOAD DUP1 SWAP2 SUB SWAP1 RETURN JUMPDEST CALLVALUE DUP1 ISZERO PUSH2 0xEB JUMPI PUSH1 0x0 DUP1 REVERT JUMPDEST POP PUSH2 0x106 PUSH1 0x4 DUP1 CALLDATASIZE SUB DUP2 ADD SWAP1 PUSH2 0x101 SWAP2 SWAP1 PUSH2 0x106E JUMP JUMPDEST PUSH2 0x4FE JUMP JUMPDEST PUSH1 0x40 MLOAD PUSH2 0x113 SWAP2 SWAP1 PUSH2 0x10B6 JUMP JUMPDEST PUSH1 0x40 MLOAD DUP1 SWAP2 SUB SWAP1 RETURN JUMPDEST CALLVALUE DUP1 ISZERO PUSH2 0x128 JUMPI PUSH1 0x0 DUP1 REVERT JUMPDEST POP PUSH2 0x131 PUSH2 0x51E JUMP JUMPDEST PUSH1 0x40 MLOAD PUSH2 0x13E SWAP2 SWAP1 PUSH2 0x10E0 JUMP JUMPDEST PUSH1 0x40 MLOAD DUP1 SWAP2 SUB SWAP1 RETURN JUMPDEST CALLVALUE DUP1 ISZERO PUSH2 0x153 JUMPI PUSH1 0x0 DUP1 REVERT JUMPDEST POP PUSH2 0x16E PUSH1 0x4 DUP1 CALLDATASIZE SUB DUP2 ADD SWAP1 PUSH2 0x169 SWAP2 SWAP1 PUSH2 0x106E JUMP JUMPDEST PUSH2 0x542 JUMP JUMPDEST PUSH1 0x40 MLOAD PUSH2 0x17B SWAP2 SWAP1 PUSH2 0x10B6 JUMP JUMPDEST PUSH1 0x40 MLOAD DUP1 SWAP2 SUB SWAP1 RETURN JUMPDEST CALLVALUE DUP1 ISZERO PUSH2 0x190 JUMPI PUSH1 0x0 DUP1 REVERT JUMPDEST POP PUSH2 0x1AB PUSH1 0x4 DUP1 CALLDATASIZE SUB DUP2 ADD SWAP1 PUSH2 0x1A6 SWAP2 SWAP1 PUSH2 0x10FB JUMP JUMPDEST PUSH2 0x562 JUMP JUMPDEST PUSH1 0x40 MLOAD PUSH2 0x1C0 SWAP10 SWAP9 SWAP8 SWAP7 SWAP6 SWAP5 SWAP4 SWAP3 SWAP2 SWAP1 PUSH2 0x11B0 JUMP JUMPDEST PUSH1 0x40 MLOAD DUP1 SWAP2 SUB SWAP1 RETURN JUMPDEST CALLVALUE DUP1 ISZERO PUSH2 0x1D5 JUMPI PUSH1 0x0 DUP1 REVERT JUMPDEST POP PUSH2 0x1F0 PUSH1 0x4 DUP1 CALLDATASIZE SUB DUP2 ADD SWAP1 PUSH2 0x1EB SWAP2 SWAP1 PUSH2 0x106E JUMP JUMPDEST PUSH2 0x737 JUMP JUMPDEST STOP JUMPDEST PUSH2 0x20C PUSH1 0x4 DUP1 CALLDATASIZE SUB DUP2 ADD SWAP1 PUSH2 0x207 SWAP2 SWAP1 PUSH2 0x10FB JUMP JUMPDEST PUSH2 0x8AC JUMP JUMPDEST STOP JUMPDEST CALLVALUE DUP1 ISZERO PUSH2 0x21A JUMPI PUSH1 0x0 DUP1 REVERT JUMPDEST POP PUSH2 0x235 PUSH1 0x4 DUP1 CALLDATASIZE SUB DUP2 ADD SWAP1 PUSH2 0x230 SWAP2 SWAP1 PUSH2 0x124B JUMP JUMPDEST PUSH2 0xADE JUMP JUMPDEST STOP JUMPDEST PUSH1 0x1 PUSH1 0x0 CALLER PUSH20 0xFFFFFFFFFFFFFFFFFFFFFFFFFFFFFFFFFFFFFFFF AND PUSH20 0xFFFFFFFFFFFFFFFFFFFFFFFFFFFFFFFFFFFFFFFF AND DUP2 MSTORE PUSH1 0x20 ADD SWAP1 DUP2 MSTORE PUSH1 0x20 ADD PUSH1 0x0 KECCAK256 PUSH1 0x0 SWAP1 SLOAD SWAP1 PUSH2 0x100 EXP SWAP1 DIV PUSH1 0xFF AND PUSH2 0x2C3 JUMPI PUSH1 0x40 MLOAD PUSH32 0x8C379A000000000000000000000000000000000000000000000000000000000 DUP2 MSTORE PUSH1 0x4 ADD PUSH2 0x2BA SWAP1 PUSH2 0x1336 JUMP JUMPDEST PUSH1 0x40 MLOAD DUP1 SWAP2 SUB SWAP1 REVERT JUMPDEST PUSH1 0x0 PUSH1 0x3 DUP4 DUP2 SLOAD DUP2 LT PUSH2 0x2D9 JUMPI PUSH2 0x2D8 PUSH2 0x1356 JUMP JUMPDEST JUMPDEST SWAP1 PUSH1 0x0 MSTORE PUSH1 0x20 PUSH1 0x0 KECCAK256 SWAP1 PUSH1 0x7 MUL ADD SWAP1 POP DUP1 PUSH1 0x6 ADD PUSH1 0x0 SWAP1 SLOAD SWAP1 PUSH2 0x100 EXP SWAP1 DIV PUSH1 0xFF AND ISZERO PUSH2 0x33B JUMPI PUSH1 0x40 MLOAD PUSH32 0x8C379A000000000000000000000000000000000000000000000000000000000 DUP2 MSTORE PUSH1 0x4 ADD PUSH2 0x332 SWAP1 PUSH2 0x13F7 JUMP JUMPDEST PUSH1 0x40 MLOAD DUP1 SWAP2 SUB SWAP1 REVERT JUMPDEST DUP1 PUSH1 0x6 ADD PUSH1 0x1 SWAP1 SLOAD SWAP1 PUSH2 0x100 EXP SWAP1 DIV PUSH1 0xFF AND ISZERO PUSH2 0x38D JUMPI PUSH1 0x40 MLOAD PUSH32 0x8C379A000000000000000000000000000000000000000000000000000000000 DUP2 MSTORE PUSH1 0x4 ADD PUSH2 0x384 SWAP1 PUSH2 0x1489 JUMP JUMPDEST PUSH1 0x40 MLOAD DUP1 SWAP2 SUB SWAP1 REVERT JUMPDEST PUSH1 0x40 MLOAD PUSH1 0x20 ADD PUSH2 0x39C SWAP1 PUSH2 0x1500 JUMP JUMPDEST PUSH1 0x40 MLOAD PUSH1 0x20 DUP2 DUP4 SUB SUB DUP2 MSTORE SWAP1 PUSH1 0x40 MSTORE DUP1 MLOAD SWAP1 PUSH1 0x20 ADD KECCAK256 DUP3 PUSH1 0x40 MLOAD PUSH1 0x20 ADD PUSH2 0x3C3 SWAP2 SWAP1 PUSH2 0x1546 JUMP JUMPDEST PUSH1 0x40 MLOAD PUSH1 0x20 DUP2 DUP4 SUB SUB DUP2 MSTORE SWAP1 PUSH1 0x40 MSTORE DUP1 MLOAD SWAP1 PUSH1 0x20 ADD KECCAK256 SUB PUSH2 0x400 JUMPI PUSH1 0x1 DUP2 PUSH1 0x6 ADD PUSH1 0x1 PUSH2 0x100 EXP DUP2 SLOAD DUP2 PUSH1 0xFF MUL NOT AND SWAP1 DUP4 ISZERO ISZERO MUL OR SWAP1 SSTORE POP PUSH2 0x4EC JUMP JUMPDEST PUSH1 0x40 MLOAD PUSH1 0x20 ADD PUSH2 0x40F SWAP1 PUSH2 0x15A9 JUMP JUMPDEST PUSH1 0x40 MLOAD PUSH1 0x20 DUP2 DUP4 SUB SUB DUP2 MSTORE SWAP1 PUSH1 0x40 MSTORE DUP1 MLOAD SWAP1 PUSH1 0x20 ADD KECCAK256 DUP3 PUSH1 0x40 MLOAD PUSH1 0x20 ADD PUSH2 0x436 SWAP2 SWAP1 PUSH2 0x1546 JUMP JUMPDEST PUSH1 0x40 MLOAD PUSH1 0x20 DUP2 DUP4 SUB SUB DUP2 MSTORE SWAP1 PUSH1 0x40 MSTORE DUP1 MLOAD SWAP1 PUSH1 0x20 ADD KECCAK256 SUB PUSH2 0x4EB JUMPI PUSH1 0x1 DUP2 PUSH1 0x6 ADD PUSH1 0x0 PUSH2 0x100 EXP DUP2 SLOAD DUP2 PUSH1 0xFF MUL NOT AND SWAP1 DUP4 ISZERO ISZERO MUL OR SWAP1 SSTORE POP PUSH1 0x1 PUSH1 0x2 PUSH1 0x0 DUP4 PUSH1 0x3 ADD PUSH1 0x0 SWAP1 SLOAD SWAP1 PUSH2 0x100 EXP SWAP1 DIV PUSH20 0xFFFFFFFFFFFFFFFFFFFFFFFFFFFFFFFFFFFFFFFF AND PUSH20 0xFFFFFFFFFFFFFFFFFFFFFFFFFFFFFFFFFFFFFFFF AND PUSH20 0xFFFFFFFFFFFFFFFFFFFFFFFFFFFFFFFFFFFFFFFF AND DUP2 MSTORE PUSH1 0x20 ADD SWAP1 DUP2 MSTORE PUSH1 0x20 ADD PUSH1 0x0 KECCAK256 PUSH1 0x0 PUSH2 0x100 EXP DUP2 SLOAD DUP2 PUSH1 0xFF MUL NOT AND SWAP1 DUP4 ISZERO ISZERO MUL OR SWAP1 SSTORE POP JUMPDEST JUMPDEST POP POP POP JUMP JUMPDEST PUSH1 0x0 PUSH1 0x3 DUP1 SLOAD SWAP1 POP SWAP1 POP SWAP1 JUMP JUMPDEST PUSH1 0x2 PUSH1 0x20 MSTORE DUP1 PUSH1 0x0 MSTORE PUSH1 0x40 PUSH1 0x0 KECCAK256 PUSH1 0x0 SWAP2 POP SLOAD SWAP1 PUSH2 0x100 EXP SWAP1 DIV PUSH1 0xFF AND DUP2 JUMP JUMPDEST PUSH1 0x0 DUP1 SLOAD SWAP1 PUSH2 0x100 EXP SWAP1 DIV PUSH20 0xFFFFFFFFFFFFFFFFFFFFFFFFFFFFFFFFFFFFFFFF AND DUP2 JUMP JUMPDEST PUSH1 0x1 PUSH1 0x20 MSTORE DUP1 PUSH1 0x0 MSTORE PUSH1 0x40 PUSH1 0x0 KECCAK256 PUSH1 0x0 SWAP2 POP SLOAD SWAP1 PUSH2 0x100 EXP SWAP1 DIV PUSH1 0xFF AND DUP2 JUMP JUMPDEST PUSH1 0x3 DUP2 DUP2 SLOAD DUP2 LT PUSH2 0x572 JUMPI PUSH1 0x0 DUP1 REVERT JUMPDEST SWAP1 PUSH1 0x0 MSTORE PUSH1 0x20 PUSH1 0x0 KECCAK256 SWAP1 PUSH1 0x7 MUL ADD PUSH1 0x0 SWAP2 POP SWAP1 POP DUP1 PUSH1 0x0 ADD DUP1 SLOAD PUSH2 0x595 SWAP1 PUSH2 0x15ED JUMP JUMPDEST DUP1 PUSH1 0x1F ADD PUSH1 0x20 DUP1 SWAP2 DIV MUL PUSH1 0x20 ADD PUSH1 0x40 MLOAD SWAP1 DUP2 ADD PUSH1 0x40 MSTORE DUP1 SWAP3 SWAP2 SWAP1 DUP2 DUP2 MSTORE PUSH1 0x20 ADD DUP3 DUP1 SLOAD PUSH2 0x5C1 SWAP1 PUSH2 0x15ED JUMP JUMPDEST DUP1 ISZERO PUSH2 0x60E JUMPI DUP1 PUSH1 0x1F LT PUSH2 0x5E3 JUMPI PUSH2 0x100 DUP1 DUP4 SLOAD DIV MUL DUP4 MSTORE SWAP2 PUSH1 0x20 ADD SWAP2 PUSH2 0x60E JUMP JUMPDEST DUP3 ADD SWAP2 SWAP1 PUSH1 0x0 MSTORE PUSH1 0x20 PUSH1 0x0 KECCAK256 SWAP1 JUMPDEST DUP2 SLOAD DUP2 MSTORE SWAP1 PUSH1 0x1 ADD SWAP1 PUSH1 0x20 ADD DUP1 DUP4 GT PUSH2 0x5F1 JUMPI DUP3 SWAP1 SUB PUSH1 0x1F AND DUP3 ADD SWAP2 JUMPDEST POP POP POP POP POP SWAP1 DUP1 PUSH1 0x1 ADD DUP1 SLOAD PUSH2 0x623 SWAP1 PUSH2 0x15ED JUMP JUMPDEST DUP1 PUSH1 0x1F ADD PUSH1 0x20 DUP1 SWAP2 DIV MUL PUSH1 0x20 ADD PUSH1 0x40 MLOAD SWAP1 DUP2 ADD PUSH1 0x40 MSTORE DUP1 SWAP3 SWAP2 SWAP1 DUP2 DUP2 MSTORE PUSH1 0x20 ADD DUP3 DUP1 SLOAD PUSH2 0x64F SWAP1 PUSH2 0x15ED JUMP JUMPDEST DUP1 ISZERO PUSH2 0x69C JUMPI DUP1 PUSH1 0x1F LT PUSH2 0x671 JUMPI PUSH2 0x100 DUP1 DUP4 SLOAD DIV MUL DUP4 MSTORE SWAP2 PUSH1 0x20 ADD SWAP2 PUSH2 0x69C JUMP JUMPDEST DUP3 ADD SWAP2 SWAP1 PUSH1 0x0 MSTORE PUSH1 0x20 PUSH1 0x0 KECCAK256 SWAP1 JUMPDEST DUP2 SLOAD DUP2 MSTORE SWAP1 PUSH1 0x1 ADD SWAP1 PUSH1 0x20 ADD DUP1 DUP4 GT PUSH2 0x67F JUMPI DUP3 SWAP1 SUB PUSH1 0x1F AND DUP3 ADD SWAP2 JUMPDEST POP POP POP POP POP SWAP1 DUP1 PUSH1 0x2 ADD PUSH1 0x0 SWAP1 SLOAD SWAP1 PUSH2 0x100 EXP SWAP1 DIV PUSH20 0xFFFFFFFFFFFFFFFFFFFFFFFFFFFFFFFFFFFFFFFF AND SWAP1 DUP1 PUSH1 0x3 ADD PUSH1 0x0 SWAP1 SLOAD SWAP1 PUSH2 0x100 EXP SWAP1 DIV PUSH20 0xFFFFFFFFFFFFFFFFFFFFFFFFFFFFFFFFFFFFFFFF AND SWAP1 DUP1 PUSH1 0x4 ADD SLOAD SWAP1 DUP1 PUSH1 0x5 ADD SLOAD SWAP1 DUP1 PUSH1 0x6 ADD PUSH1 0x0 SWAP1 SLOAD SWAP1 PUSH2 0x100 EXP SWAP1 DIV PUSH1 0xFF AND SWAP1 DUP1 PUSH1 0x6 ADD PUSH1 0x1 SWAP1 SLOAD SWAP1 PUSH2 0x100 EXP SWAP1 DIV PUSH1 0xFF AND SWAP1 DUP1 PUSH1 0x6 ADD PUSH1 0x2 SWAP1 SLOAD SWAP1 PUSH2 0x100 EXP SWAP1 DIV PUSH1 0xFF AND SWAP1 POP DUP10 JUMP JUMPDEST PUSH1 0x0 DUP1 SLOAD SWAP1 PUSH2 0x100 EXP SWAP1 DIV PUSH20 0xFFFFFFFFFFFFFFFFFFFFFFFFFFFFFFFFFFFFFFFF AND PUSH20 0xFFFFFFFFFFFFFFFFFFFFFFFFFFFFFFFFFFFFFFFF AND CALLER PUSH20 0xFFFFFFFFFFFFFFFFFFFFFFFFFFFFFFFFFFFFFFFF AND EQ PUSH2 0x7C5 JUMPI PUSH1 0x40 MLOAD PUSH32 0x8C379A000000000000000000000000000000000000000000000000000000000 DUP2 MSTORE PUSH1 0x4 ADD PUSH2 0x7BC SWAP1 PUSH2 0x1690 JUMP JUMPDEST PUSH1 0x40 MLOAD DUP1 SWAP2 SUB SWAP1 REVERT JUMPDEST PUSH1 0x1 PUSH1 0x0 DUP3 PUSH20 0xFFFFFFFFFFFFFFFFFFFFFFFFFFFFFFFFFFFFFFFF AND PUSH20 0xFFFFFFFFFFFFFFFFFFFFFFFFFFFFFFFFFFFFFFFF AND DUP2 MSTORE PUSH1 0x20 ADD SWAP1 DUP2 MSTORE PUSH1 0x20 ADD PUSH1 0x0 KECCAK256 PUSH1 0x0 SWAP1 SLOAD SWAP1 PUSH2 0x100 EXP SWAP1 DIV PUSH1 0xFF AND ISZERO PUSH2 0x852 JUMPI PUSH1 0x40 MLOAD PUSH32 0x8C379A000000000000000000000000000000000000000000000000000000000 DUP2 MSTORE PUSH1 0x4 ADD PUSH2 0x849 SWAP1 PUSH2 0x1722 JUMP JUMPDEST PUSH1 0x40 MLOAD DUP1 SWAP2 SUB SWAP1 REVERT JUMPDEST PUSH1 0x1 DUP1 PUSH1 0x0 DUP4 PUSH20 0xFFFFFFFFFFFFFFFFFFFFFFFFFFFFFFFFFFFFFFFF AND PUSH20 0xFFFFFFFFFFFFFFFFFFFFFFFFFFFFFFFFFFFFFFFF AND DUP2 MSTORE PUSH1 0x20 ADD SWAP1 DUP2 MSTORE PUSH1 0x20 ADD PUSH1 0x0 KECCAK256 PUSH1 0x0 PUSH2 0x100 EXP DUP2 SLOAD DUP2 PUSH1 0xFF MUL NOT AND SWAP1 DUP4 ISZERO ISZERO MUL OR SWAP1 SSTORE POP POP JUMP JUMPDEST PUSH1 0x0 PUSH1 0x3 DUP3 DUP2 SLOAD DUP2 LT PUSH2 0x8C2 JUMPI PUSH2 0x8C1 PUSH2 0x1356 JUMP JUMPDEST JUMPDEST SWAP1 PUSH1 0x0 MSTORE PUSH1 0x20 PUSH1 0x0 KECCAK256 SWAP1 PUSH1 0x7 MUL ADD SWAP1 POP DUP1 PUSH1 0x6 ADD PUSH1 0x0 SWAP1 SLOAD SWAP1 PUSH2 0x100 EXP SWAP1 DIV PUSH1 0xFF AND ISZERO PUSH2 0x924 JUMPI PUSH1 0x40 MLOAD PUSH32 0x8C379A000000000000000000000000000000000000000000000000000000000 DUP2 MSTORE PUSH1 0x4 ADD PUSH2 0x91B SWAP1 PUSH2 0x178E JUMP JUMPDEST PUSH1 0x40 MLOAD DUP1 SWAP2 SUB SWAP1 REVERT JUMPDEST PUSH1 0x2 PUSH1 0x0 DUP3 PUSH1 0x3 ADD PUSH1 0x0 SWAP1 SLOAD SWAP1 PUSH2 0x100 EXP SWAP1 DIV PUSH20 0xFFFFFFFFFFFFFFFFFFFFFFFFFFFFFFFFFFFFFFFF AND PUSH20 0xFFFFFFFFFFFFFFFFFFFFFFFFFFFFFFFFFFFFFFFF AND PUSH20 0xFFFFFFFFFFFFFFFFFFFFFFFFFFFFFFFFFFFFFFFF AND DUP2 MSTORE PUSH1 0x20 ADD SWAP1 DUP2 MSTORE PUSH1 0x20 ADD PUSH1 0x0 KECCAK256 PUSH1 0x0 SWAP1 SLOAD SWAP1 PUSH2 0x100 EXP SWAP1 DIV PUSH1 0xFF AND ISZERO PUSH2 0x9D5 JUMPI PUSH1 0x40 MLOAD PUSH32 0x8C379A000000000000000000000000000000000000000000000000000000000 DUP2 MSTORE PUSH1 0x4 ADD PUSH2 0x9CC SWAP1 PUSH2 0x17FA JUMP JUMPDEST PUSH1 0x40 MLOAD DUP1 SWAP2 SUB SWAP1 REVERT JUMPDEST DUP1 PUSH1 0x6 ADD PUSH1 0x2 SWAP1 SLOAD SWAP1 PUSH2 0x100 EXP SWAP1 DIV PUSH1 0xFF AND ISZERO PUSH2 0xA27 JUMPI PUSH1 0x40 MLOAD PUSH32 0x8C379A000000000000000000000000000000000000000000000000000000000 DUP2 MSTORE PUSH1 0x4 ADD PUSH2 0xA1E SWAP1 PUSH2 0x1866 JUMP JUMPDEST PUSH1 0x40 MLOAD DUP1 SWAP2 SUB SWAP1 REVERT JUMPDEST CALLVALUE DUP2 PUSH1 0x5 ADD PUSH1 0x0 DUP3 DUP3 SLOAD PUSH2 0xA3B SWAP2 SWAP1 PUSH2 0x18B5 JUMP JUMPDEST SWAP3 POP POP DUP2 SWAP1 SSTORE POP DUP1 PUSH1 0x4 ADD SLOAD DUP2 PUSH1 0x5 ADD SLOAD LT PUSH2 0xA6F JUMPI PUSH1 0x1 DUP2 PUSH1 0x6 ADD PUSH1 0x2 PUSH2 0x100 EXP DUP2 SLOAD DUP2 PUSH1 0xFF MUL NOT AND SWAP1 DUP4 ISZERO ISZERO MUL OR SWAP1 SSTORE POP JUMPDEST DUP1 PUSH1 0x2 ADD PUSH1 0x0 SWAP1 SLOAD SWAP1 PUSH2 0x100 EXP SWAP1 DIV PUSH20 0xFFFFFFFFFFFFFFFFFFFFFFFFFFFFFFFFFFFFFFFF AND PUSH20 0xFFFFFFFFFFFFFFFFFFFFFFFFFFFFFFFFFFFFFFFF AND PUSH2 0x8FC CALLVALUE SWAP1 DUP2 ISZERO MUL SWAP1 PUSH1 0x40 MLOAD PUSH1 0x0 PUSH1 0x40 MLOAD DUP1 DUP4 SUB DUP2 DUP6 DUP9 DUP9 CALL SWAP4 POP POP POP POP ISZERO DUP1 ISZERO PUSH2 0xAD9 JUMPI RETURNDATASIZE PUSH1 0x0 DUP1 RETURNDATACOPY RETURNDATASIZE PUSH1 0x0 REVERT JUMPDEST POP POP POP JUMP JUMPDEST PUSH1 0x2 PUSH1 0x0 CALLER PUSH20 0xFFFFFFFFFFFFFFFFFFFFFFFFFFFFFFFFFFFFFFFF AND PUSH20 0xFFFFFFFFFFFFFFFFFFFFFFFFFFFFFFFFFFFFFFFF AND DUP2 MSTORE PUSH1 0x20 ADD SWAP1 DUP2 MSTORE PUSH1 0x20 ADD PUSH1 0x0 KECCAK256 PUSH1 0x0 SWAP1 SLOAD SWAP1 PUSH2 0x100 EXP SWAP1 DIV PUSH1 0xFF AND ISZERO PUSH2 0xB6B JUMPI PUSH1 0x40 MLOAD PUSH32 0x8C379A000000000000000000000000000000000000000000000000000000000 DUP2 MSTORE PUSH1 0x4 ADD PUSH2 0xB62 SWAP1 PUSH2 0x1957 JUMP JUMPDEST PUSH1 0x40 MLOAD DUP1 SWAP2 SUB SWAP1 REVERT JUMPDEST PUSH1 0x0 PUSH1 0x40 MLOAD DUP1 PUSH2 0x120 ADD PUSH1 0x40 MSTORE DUP1 DUP7 DUP2 MSTORE PUSH1 0x20 ADD DUP6 DUP2 MSTORE PUSH1 0x20 ADD DUP5 PUSH20 0xFFFFFFFFFFFFFFFFFFFFFFFFFFFFFFFFFFFFFFFF AND DUP2 MSTORE PUSH1 0x20 ADD CALLER PUSH20 0xFFFFFFFFFFFFFFFFFFFFFFFFFFFFFFFFFFFFFFFF AND DUP2 MSTORE PUSH1 0x20 ADD DUP4 DUP2 MSTORE PUSH1 0x20 ADD PUSH1 0x0 DUP2 MSTORE PUSH1 0x20 ADD PUSH1 0x0 ISZERO ISZERO DUP2 MSTORE PUSH1 0x20 ADD PUSH1 0x0 ISZERO ISZERO DUP2 MSTORE PUSH1 0x20 ADD PUSH1 0x0 ISZERO ISZERO DUP2 MSTORE POP SWAP1 POP PUSH1 0x3 DUP2 SWAP1 DUP1 PUSH1 0x1 DUP2 SLOAD ADD DUP1 DUP3 SSTORE DUP1 SWAP2 POP POP PUSH1 0x1 SWAP1 SUB SWAP1 PUSH1 0x0 MSTORE PUSH1 0x20 PUSH1 0x0 KECCAK256 SWAP1 PUSH1 0x7 MUL ADD PUSH1 0x0 SWAP1 SWAP2 SWAP1 SWAP2 SWAP1 SWAP2 POP PUSH1 0x0 DUP3 ADD MLOAD DUP2 PUSH1 0x0 ADD SWAP1 DUP1 MLOAD SWAP1 PUSH1 0x20 ADD SWAP1 PUSH2 0xC2D SWAP3 SWAP2 SWAP1 PUSH2 0xD57 JUMP JUMPDEST POP PUSH1 0x20 DUP3 ADD MLOAD DUP2 PUSH1 0x1 ADD SWAP1 DUP1 MLOAD SWAP1 PUSH1 0x20 ADD SWAP1 PUSH2 0xC4A SWAP3 SWAP2 SWAP1 PUSH2 0xD57 JUMP JUMPDEST POP PUSH1 0x40 DUP3 ADD MLOAD DUP2 PUSH1 0x2 ADD PUSH1 0x0 PUSH2 0x100 EXP DUP2 SLOAD DUP2 PUSH20 0xFFFFFFFFFFFFFFFFFFFFFFFFFFFFFFFFFFFFFFFF MUL NOT AND SWAP1 DUP4 PUSH20 0xFFFFFFFFFFFFFFFFFFFFFFFFFFFFFFFFFFFFFFFF AND MUL OR SWAP1 SSTORE POP PUSH1 0x60 DUP3 ADD MLOAD DUP2 PUSH1 0x3 ADD PUSH1 0x0 PUSH2 0x100 EXP DUP2 SLOAD DUP2 PUSH20 0xFFFFFFFFFFFFFFFFFFFFFFFFFFFFFFFFFFFFFFFF MUL NOT AND SWAP1 DUP4 PUSH20 0xFFFFFFFFFFFFFFFFFFFFFFFFFFFFFFFFFFFFFFFF AND MUL OR SWAP1 SSTORE POP PUSH1 0x80 DUP3 ADD MLOAD DUP2 PUSH1 0x4 ADD SSTORE PUSH1 0xA0 DUP3 ADD MLOAD DUP2 PUSH1 0x5 ADD SSTORE PUSH1 0xC0 DUP3 ADD MLOAD DUP2 PUSH1 0x6 ADD PUSH1 0x0 PUSH2 0x100 EXP DUP2 SLOAD DUP2 PUSH1 0xFF MUL NOT AND SWAP1 DUP4 ISZERO ISZERO MUL OR SWAP1 SSTORE POP PUSH1 0xE0 DUP3 ADD MLOAD DUP2 PUSH1 0x6 ADD PUSH1 0x1 PUSH2 0x100 EXP DUP2 SLOAD DUP2 PUSH1 0xFF MUL NOT AND SWAP1 DUP4 ISZERO ISZERO MUL OR SWAP1 SSTORE POP PUSH2 0x100 DUP3 ADD MLOAD DUP2 PUSH1 0x6 ADD PUSH1 0x2 PUSH2 0x100 EXP DUP2 SLOAD DUP2 PUSH1 0xFF MUL NOT AND SWAP1 DUP4 ISZERO ISZERO MUL OR SWAP1 SSTORE POP POP POP POP POP POP POP POP JUMP JUMPDEST DUP3 DUP1 SLOAD PUSH2 0xD63 SWAP1 PUSH2 0x15ED JUMP JUMPDEST SWAP1 PUSH1 0x0 MSTORE PUSH1 0x20 PUSH1 0x0 KECCAK256 SWAP1 PUSH1 0x1F ADD PUSH1 0x20 SWAP1 DIV DUP2 ADD SWAP3 DUP3 PUSH2 0xD85 JUMPI PUSH1 0x0 DUP6 SSTORE PUSH2 0xDCC JUMP JUMPDEST DUP3 PUSH1 0x1F LT PUSH2 0xD9E JUMPI DUP1 MLOAD PUSH1 0xFF NOT AND DUP4 DUP1 ADD OR DUP6 SSTORE PUSH2 0xDCC JUMP JUMPDEST DUP3 DUP1 ADD PUSH1 0x1 ADD DUP6 SSTORE DUP3 ISZERO PUSH2 0xDCC JUMPI SWAP2 DUP3 ADD JUMPDEST DUP3 DUP2 GT ISZERO PUSH2 0xDCB JUMPI DUP3 MLOAD DUP3 SSTORE SWAP2 PUSH1 0x20 ADD SWAP2 SWAP1 PUSH1 0x1 ADD SWAP1 PUSH2 0xDB0 JUMP JUMPDEST JUMPDEST POP SWAP1 POP PUSH2 0xDD9 SWAP2 SWAP1 PUSH2 0xDDD JUMP JUMPDEST POP SWAP1 JUMP JUMPDEST JUMPDEST DUP1 DUP3 GT ISZERO PUSH2 0xDF6 JUMPI PUSH1 0x0 DUP2 PUSH1 0x0 SWAP1 SSTORE POP PUSH1 0x1 ADD PUSH2 0xDDE JUMP JUMPDEST POP SWAP1 JUMP JUMPDEST PUSH1 0x0 PUSH1 0x40 MLOAD SWAP1 POP SWAP1 JUMP JUMPDEST PUSH1 0x0 DUP1 REVERT JUMPDEST PUSH1 0x0 DUP1 REVERT JUMPDEST PUSH1 0x0 DUP2 SWAP1 POP SWAP2 SWAP1 POP JUMP JUMPDEST PUSH2 0xE21 DUP2 PUSH2 0xE0E JUMP JUMPDEST DUP2 EQ PUSH2 0xE2C JUMPI PUSH1 0x0 DUP1 REVERT JUMPDEST POP JUMP JUMPDEST PUSH1 0x0 DUP2 CALLDATALOAD SWAP1 POP PUSH2 0xE3E DUP2 PUSH2 0xE18 JUMP JUMPDEST SWAP3 SWAP2 POP POP JUMP JUMPDEST PUSH1 0x0 DUP1 REVERT JUMPDEST PUSH1 0x0 DUP1 REVERT JUMPDEST PUSH1 0x0 PUSH1 0x1F NOT PUSH1 0x1F DUP4 ADD AND SWAP1 POP SWAP2 SWAP1 POP JUMP JUMPDEST PUSH32 0x4E487B7100000000000000000000000000000000000000000000000000000000 PUSH1 0x0 MSTORE PUSH1 0x41 PUSH1 0x4 MSTORE PUSH1 0x24 PUSH1 0x0 REVERT JUMPDEST PUSH2 0xE97 DUP3 PUSH2 0xE4E JUMP JUMPDEST DUP2 ADD DUP2 DUP2 LT PUSH8 0xFFFFFFFFFFFFFFFF DUP3 GT OR ISZERO PUSH2 0xEB6 JUMPI PUSH2 0xEB5 PUSH2 0xE5F JUMP JUMPDEST JUMPDEST DUP1 PUSH1 0x40 MSTORE POP POP POP JUMP JUMPDEST PUSH1 0x0 PUSH2 0xEC9 PUSH2 0xDFA JUMP JUMPDEST SWAP1 POP PUSH2 0xED5 DUP3 DUP3 PUSH2 0xE8E JUMP JUMPDEST SWAP2 SWAP1 POP JUMP JUMPDEST PUSH1 0x0 PUSH8 0xFFFFFFFFFFFFFFFF DUP3 GT ISZERO PUSH2 0xEF5 JUMPI PUSH2 0xEF4 PUSH2 0xE5F JUMP JUMPDEST JUMPDEST PUSH2 0xEFE DUP3 PUSH2 0xE4E JUMP JUMPDEST SWAP1 POP PUSH1 0x20 DUP2 ADD SWAP1 POP SWAP2 SWAP1 POP JUMP JUMPDEST DUP3 DUP2 DUP4 CALLDATACOPY PUSH1 0x0 DUP4 DUP4 ADD MSTORE POP POP POP JUMP JUMPDEST PUSH1 0x0 PUSH2 0xF2D PUSH2 0xF28 DUP5 PUSH2 0xEDA JUMP JUMPDEST PUSH2 0xEBF JUMP JUMPDEST SWAP1 POP DUP3 DUP2 MSTORE PUSH1 0x20 DUP2 ADD DUP5 DUP5 DUP5 ADD GT ISZERO PUSH2 0xF49 JUMPI PUSH2 0xF48 PUSH2 0xE49 JUMP JUMPDEST JUMPDEST PUSH2 0xF54 DUP5 DUP3 DUP6 PUSH2 0xF0B JUMP JUMPDEST POP SWAP4 SWAP3 POP POP POP JUMP JUMPDEST PUSH1 0x0 DUP3 PUSH1 0x1F DUP4 ADD SLT PUSH2 0xF71 JUMPI PUSH2 0xF70 PUSH2 0xE44 JUMP JUMPDEST JUMPDEST DUP2 CALLDATALOAD PUSH2 0xF81 DUP5 DUP3 PUSH1 0x20 DUP7 ADD PUSH2 0xF1A JUMP JUMPDEST SWAP2 POP POP SWAP3 SWAP2 POP POP JUMP JUMPDEST PUSH1 0x0 DUP1 PUSH1 0x40 DUP4 DUP6 SUB SLT ISZERO PUSH2 0xFA1 JUMPI PUSH2 0xFA0 PUSH2 0xE04 JUMP JUMPDEST JUMPDEST PUSH1 0x0 PUSH2 0xFAF DUP6 DUP3 DUP7 ADD PUSH2 0xE2F JUMP JUMPDEST SWAP3 POP POP PUSH1 0x20 DUP4 ADD CALLDATALOAD PUSH8 0xFFFFFFFFFFFFFFFF DUP2 GT ISZERO PUSH2 0xFD0 JUMPI PUSH2 0xFCF PUSH2 0xE09 JUMP JUMPDEST JUMPDEST PUSH2 0xFDC DUP6 DUP3 DUP7 ADD PUSH2 0xF5C JUMP JUMPDEST SWAP2 POP POP SWAP3 POP SWAP3 SWAP1 POP JUMP JUMPDEST PUSH2 0xFEF DUP2 PUSH2 0xE0E JUMP JUMPDEST DUP3 MSTORE POP POP JUMP JUMPDEST PUSH1 0x0 PUSH1 0x20 DUP3 ADD SWAP1 POP PUSH2 0x100A PUSH1 0x0 DUP4 ADD DUP5 PUSH2 0xFE6 JUMP JUMPDEST SWAP3 SWAP2 POP POP JUMP JUMPDEST PUSH1 0x0 PUSH20 0xFFFFFFFFFFFFFFFFFFFFFFFFFFFFFFFFFFFFFFFF DUP3 AND SWAP1 POP SWAP2 SWAP1 POP JUMP JUMPDEST PUSH1 0x0 PUSH2 0x103B DUP3 PUSH2 0x1010 JUMP JUMPDEST SWAP1 POP SWAP2 SWAP1 POP JUMP JUMPDEST PUSH2 0x104B DUP2 PUSH2 0x1030 JUMP JUMPDEST DUP2 EQ PUSH2 0x1056 JUMPI PUSH1 0x0 DUP1 REVERT JUMPDEST POP JUMP JUMPDEST PUSH1 0x0 DUP2 CALLDATALOAD SWAP1 POP PUSH2 0x1068 DUP2 PUSH2 0x1042 JUMP JUMPDEST SWAP3 SWAP2 POP POP JUMP JUMPDEST PUSH1 0x0 PUSH1 0x20 DUP3 DUP5 SUB SLT ISZERO PUSH2 0x1084 JUMPI PUSH2 0x1083 PUSH2 0xE04 JUMP JUMPDEST JUMPDEST PUSH1 0x0 PUSH2 0x1092 DUP5 DUP3 DUP6 ADD PUSH2 0x1059 JUMP JUMPDEST SWAP2 POP POP SWAP3 SWAP2 POP POP JUMP JUMPDEST PUSH1 0x0 DUP2 ISZERO ISZERO SWAP1 POP SWAP2 SWAP1 POP JUMP JUMPDEST PUSH2 0x10B0 DUP2 PUSH2 0x109B JUMP JUMPDEST DUP3 MSTORE POP POP JUMP JUMPDEST PUSH1 0x0 PUSH1 0x20 DUP3 ADD SWAP1 POP PUSH2 0x10CB PUSH1 0x0 DUP4 ADD DUP5 PUSH2 0x10A7 JUMP JUMPDEST SWAP3 SWAP2 POP POP JUMP JUMPDEST PUSH2 0x10DA DUP2 PUSH2 0x1030 JUMP JUMPDEST DUP3 MSTORE POP POP JUMP JUMPDEST PUSH1 0x0 PUSH1 0x20 DUP3 ADD SWAP1 POP PUSH2 0x10F5 PUSH1 0x0 DUP4 ADD DUP5 PUSH2 0x10D1 JUMP JUMPDEST SWAP3 SWAP2 POP POP JUMP JUMPDEST PUSH1 0x0 PUSH1 0x20 DUP3 DUP5 SUB SLT ISZERO PUSH2 0x1111 JUMPI PUSH2 0x1110 PUSH2 0xE04 JUMP JUMPDEST JUMPDEST PUSH1 0x0 PUSH2 0x111F DUP5 DUP3 DUP6 ADD PUSH2 0xE2F JUMP JUMPDEST SWAP2 POP POP SWAP3 SWAP2 POP POP JUMP JUMPDEST PUSH1 0x0 DUP2 MLOAD SWAP1 POP SWAP2 SWAP1 POP JUMP JUMPDEST PUSH1 0x0 DUP3 DUP3 MSTORE PUSH1 0x20 DUP3 ADD SWAP1 POP SWAP3 SWAP2 POP POP JUMP JUMPDEST PUSH1 0x0 JUMPDEST DUP4 DUP2 LT ISZERO PUSH2 0x1162 JUMPI DUP1 DUP3 ADD MLOAD DUP2 DUP5 ADD MSTORE PUSH1 0x20 DUP2 ADD SWAP1 POP PUSH2 0x1147 JUMP JUMPDEST DUP4 DUP2 GT ISZERO PUSH2 0x1171 JUMPI PUSH1 0x0 DUP5 DUP5 ADD MSTORE JUMPDEST POP POP POP POP JUMP JUMPDEST PUSH1 0x0 PUSH2 0x1182 DUP3 PUSH2 0x1128 JUMP JUMPDEST PUSH2 0x118C DUP2 DUP6 PUSH2 0x1133 JUMP JUMPDEST SWAP4 POP PUSH2 0x119C DUP2 DUP6 PUSH1 0x20 DUP7 ADD PUSH2 0x1144 JUMP JUMPDEST PUSH2 0x11A5 DUP2 PUSH2 0xE4E JUMP JUMPDEST DUP5 ADD SWAP2 POP POP SWAP3 SWAP2 POP POP JUMP JUMPDEST PUSH1 0x0 PUSH2 0x120 DUP3 ADD SWAP1 POP DUP2 DUP2 SUB PUSH1 0x0 DUP4 ADD MSTORE PUSH2 0x11CB DUP2 DUP13 PUSH2 0x1177 JUMP JUMPDEST SWAP1 POP DUP2 DUP2 SUB PUSH1 0x20 DUP4 ADD MSTORE PUSH2 0x11DF DUP2 DUP12 PUSH2 0x1177 JUMP JUMPDEST SWAP1 POP PUSH2 0x11EE PUSH1 0x40 DUP4 ADD DUP11 PUSH2 0x10D1 JUMP JUMPDEST PUSH2 0x11FB PUSH1 0x60 DUP4 ADD DUP10 PUSH2 0x10D1 JUMP JUMPDEST PUSH2 0x1208 PUSH1 0x80 DUP4 ADD DUP9 PUSH2 0xFE6 JUMP JUMPDEST PUSH2 0x1215 PUSH1 0xA0 DUP4 ADD DUP8 PUSH2 0xFE6 JUMP JUMPDEST PUSH2 0x1222 PUSH1 0xC0 DUP4 ADD DUP7 PUSH2 0x10A7 JUMP JUMPDEST PUSH2 0x122F PUSH1 0xE0 DUP4 ADD DUP6 PUSH2 0x10A7 JUMP JUMPDEST PUSH2 0x123D PUSH2 0x100 DUP4 ADD DUP5 PUSH2 0x10A7 JUMP JUMPDEST SWAP11 SWAP10 POP POP POP POP POP POP POP POP POP POP JUMP JUMPDEST PUSH1 0x0 DUP1 PUSH1 0x0 DUP1 PUSH1 0x80 DUP6 DUP8 SUB SLT ISZERO PUSH2 0x1265 JUMPI PUSH2 0x1264 PUSH2 0xE04 JUMP JUMPDEST JUMPDEST PUSH1 0x0 DUP6 ADD CALLDATALOAD PUSH8 0xFFFFFFFFFFFFFFFF DUP2 GT ISZERO PUSH2 0x1283 JUMPI PUSH2 0x1282 PUSH2 0xE09 JUMP JUMPDEST JUMPDEST PUSH2 0x128F DUP8 DUP3 DUP9 ADD PUSH2 0xF5C JUMP JUMPDEST SWAP5 POP POP PUSH1 0x20 DUP6 ADD CALLDATALOAD PUSH8 0xFFFFFFFFFFFFFFFF DUP2 GT ISZERO PUSH2 0x12B0 JUMPI PUSH2 0x12AF PUSH2 0xE09 JUMP JUMPDEST JUMPDEST PUSH2 0x12BC DUP8 DUP3 DUP9 ADD PUSH2 0xF5C JUMP JUMPDEST SWAP4 POP POP PUSH1 0x40 PUSH2 0x12CD DUP8 DUP3 DUP9 ADD PUSH2 0x1059 JUMP JUMPDEST SWAP3 POP POP PUSH1 0x60 PUSH2 0x12DE DUP8 DUP3 DUP9 ADD PUSH2 0xE2F JUMP JUMPDEST SWAP2 POP POP SWAP3 SWAP6 SWAP2 SWAP5 POP SWAP3 POP JUMP JUMPDEST PUSH32 0x596F75277265206E6F74206D61726B6564206173206120766572696669657221 PUSH1 0x0 DUP3 ADD MSTORE POP JUMP JUMPDEST PUSH1 0x0 PUSH2 0x1320 PUSH1 0x20 DUP4 PUSH2 0x1133 JUMP JUMPDEST SWAP2 POP PUSH2 0x132B DUP3 PUSH2 0x12EA JUMP JUMPDEST PUSH1 0x20 DUP3 ADD SWAP1 POP SWAP2 SWAP1 POP JUMP JUMPDEST PUSH1 0x0 PUSH1 0x20 DUP3 ADD SWAP1 POP DUP2 DUP2 SUB PUSH1 0x0 DUP4 ADD MSTORE PUSH2 0x134F DUP2 PUSH2 0x1313 JUMP JUMPDEST SWAP1 POP SWAP2 SWAP1 POP JUMP JUMPDEST PUSH32 0x4E487B7100000000000000000000000000000000000000000000000000000000 PUSH1 0x0 MSTORE PUSH1 0x32 PUSH1 0x4 MSTORE PUSH1 0x24 PUSH1 0x0 REVERT JUMPDEST PUSH32 0x5265717565737420697320616C7265616479206D61726B656420617320737061 PUSH1 0x0 DUP3 ADD MSTORE PUSH32 0x6D2E000000000000000000000000000000000000000000000000000000000000 PUSH1 0x20 DUP3 ADD MSTORE POP JUMP JUMPDEST PUSH1 0x0 PUSH2 0x13E1 PUSH1 0x22 DUP4 PUSH2 0x1133 JUMP JUMPDEST SWAP2 POP PUSH2 0x13EC DUP3 PUSH2 0x1385 JUMP JUMPDEST PUSH1 0x40 DUP3 ADD SWAP1 POP SWAP2 SWAP1 POP JUMP JUMPDEST PUSH1 0x0 PUSH1 0x20 DUP3 ADD SWAP1 POP DUP2 DUP2 SUB PUSH1 0x0 DUP4 ADD MSTORE PUSH2 0x1410 DUP2 PUSH2 0x13D4 JUMP JUMPDEST SWAP1 POP SWAP2 SWAP1 POP JUMP JUMPDEST PUSH32 0x5265717565737420697320616C7265616479206D61726B6564206173206C6567 PUSH1 0x0 DUP3 ADD MSTORE PUSH32 0x69742E0000000000000000000000000000000000000000000000000000000000 PUSH1 0x20 DUP3 ADD MSTORE POP JUMP JUMPDEST PUSH1 0x0 PUSH2 0x1473 PUSH1 0x23 DUP4 PUSH2 0x1133 JUMP JUMPDEST SWAP2 POP PUSH2 0x147E DUP3 PUSH2 0x1417 JUMP JUMPDEST PUSH1 0x40 DUP3 ADD SWAP1 POP SWAP2 SWAP1 POP JUMP JUMPDEST PUSH1 0x0 PUSH1 0x20 DUP3 ADD SWAP1 POP DUP2 DUP2 SUB PUSH1 0x0 DUP4 ADD MSTORE PUSH2 0x14A2 DUP2 PUSH2 0x1466 JUMP JUMPDEST SWAP1 POP SWAP2 SWAP1 POP JUMP JUMPDEST PUSH1 0x0 DUP2 SWAP1 POP SWAP3 SWAP2 POP POP JUMP JUMPDEST PUSH32 0x6C65676974000000000000000000000000000000000000000000000000000000 PUSH1 0x0 DUP3 ADD MSTORE POP JUMP JUMPDEST PUSH1 0x0 PUSH2 0x14EA PUSH1 0x5 DUP4 PUSH2 0x14A9 JUMP JUMPDEST SWAP2 POP PUSH2 0x14F5 DUP3 PUSH2 0x14B4 JUMP JUMPDEST PUSH1 0x5 DUP3 ADD SWAP1 POP SWAP2 SWAP1 POP JUMP JUMPDEST PUSH1 0x0 PUSH2 0x150B DUP3 PUSH2 0x14DD JUMP JUMPDEST SWAP2 POP DUP2 SWAP1 POP SWAP2 SWAP1 POP JUMP JUMPDEST PUSH1 0x0 PUSH2 0x1520 DUP3 PUSH2 0x1128 JUMP JUMPDEST PUSH2 0x152A DUP2 DUP6 PUSH2 0x14A9 JUMP JUMPDEST SWAP4 POP PUSH2 0x153A DUP2 DUP6 PUSH1 0x20 DUP7 ADD PUSH2 0x1144 JUMP JUMPDEST DUP1 DUP5 ADD SWAP2 POP POP SWAP3 SWAP2 POP POP JUMP JUMPDEST PUSH1 0x0 PUSH2 0x1552 DUP3 DUP5 PUSH2 0x1515 JUMP JUMPDEST SWAP2 POP DUP2 SWAP1 POP SWAP3 SWAP2 POP POP JUMP JUMPDEST PUSH32 0x7370616D00000000000000000000000000000000000000000000000000000000 PUSH1 0x0 DUP3 ADD MSTORE POP JUMP JUMPDEST PUSH1 0x0 PUSH2 0x1593 PUSH1 0x4 DUP4 PUSH2 0x14A9 JUMP JUMPDEST SWAP2 POP PUSH2 0x159E DUP3 PUSH2 0x155D JUMP JUMPDEST PUSH1 0x4 DUP3 ADD SWAP1 POP SWAP2 SWAP1 POP JUMP JUMPDEST PUSH1 0x0 PUSH2 0x15B4 DUP3 PUSH2 0x1586 JUMP JUMPDEST SWAP2 POP DUP2 SWAP1 POP SWAP2 SWAP1 POP JUMP JUMPDEST PUSH32 0x4E487B7100000000000000000000000000000000000000000000000000000000 PUSH1 0x0 MSTORE PUSH1 0x22 PUSH1 0x4 MSTORE PUSH1 0x24 PUSH1 0x0 REVERT JUMPDEST PUSH1 0x0 PUSH1 0x2 DUP3 DIV SWAP1 POP PUSH1 0x1 DUP3 AND DUP1 PUSH2 0x1605 JUMPI PUSH1 0x7F DUP3 AND SWAP2 POP JUMPDEST PUSH1 0x20 DUP3 LT DUP2 SUB PUSH2 0x1618 JUMPI PUSH2 0x1617 PUSH2 0x15BE JUMP JUMPDEST JUMPDEST POP SWAP2 SWAP1 POP JUMP JUMPDEST PUSH32 0x4F6E6C7920636F6E7472616374206D616E616765722063616E20736574207665 PUSH1 0x0 DUP3 ADD MSTORE PUSH32 0x7269666965722E00000000000000000000000000000000000000000000000000 PUSH1 0x20 DUP3 ADD MSTORE POP JUMP JUMPDEST PUSH1 0x0 PUSH2 0x167A PUSH1 0x27 DUP4 PUSH2 0x1133 JUMP JUMPDEST SWAP2 POP PUSH2 0x1685 DUP3 PUSH2 0x161E JUMP JUMPDEST PUSH1 0x40 DUP3 ADD SWAP1 POP SWAP2 SWAP1 POP JUMP JUMPDEST PUSH1 0x0 PUSH1 0x20 DUP3 ADD SWAP1 POP DUP2 DUP2 SUB PUSH1 0x0 DUP4 ADD MSTORE PUSH2 0x16A9 DUP2 PUSH2 0x166D JUMP JUMPDEST SWAP1 POP SWAP2 SWAP1 POP JUMP JUMPDEST PUSH32 0x52657175657374656420766572696669657220697320616C726561647920696E PUSH1 0x0 DUP3 ADD MSTORE PUSH32 0x636C756465642E00000000000000000000000000000000000000000000000000 PUSH1 0x20 DUP3 ADD MSTORE POP JUMP JUMPDEST PUSH1 0x0 PUSH2 0x170C PUSH1 0x27 DUP4 PUSH2 0x1133 JUMP JUMPDEST SWAP2 POP PUSH2 0x1717 DUP3 PUSH2 0x16B0 JUMP JUMPDEST PUSH1 0x40 DUP3 ADD SWAP1 POP SWAP2 SWAP1 POP JUMP JUMPDEST PUSH1 0x0 PUSH1 0x20 DUP3 ADD SWAP1 POP DUP2 DUP2 SUB PUSH1 0x0 DUP4 ADD MSTORE PUSH2 0x173B DUP2 PUSH2 0x16FF JUMP JUMPDEST SWAP1 POP SWAP2 SWAP1 POP JUMP JUMPDEST PUSH32 0x52657175657374206973206D61726B6564206173207370616D2E000000000000 PUSH1 0x0 DUP3 ADD MSTORE POP JUMP JUMPDEST PUSH1 0x0 PUSH2 0x1778 PUSH1 0x1A DUP4 PUSH2 0x1133 JUMP JUMPDEST SWAP2 POP PUSH2 0x1783 DUP3 PUSH2 0x1742 JUMP JUMPDEST PUSH1 0x20 DUP3 ADD SWAP1 POP SWAP2 SWAP1 POP JUMP JUMPDEST PUSH1 0x0 PUSH1 0x20 DUP3 ADD SWAP1 POP DUP2 DUP2 SUB PUSH1 0x0 DUP4 ADD MSTORE PUSH2 0x17A7 DUP2 PUSH2 0x176B JUMP JUMPDEST SWAP1 POP SWAP2 SWAP1 POP JUMP JUMPDEST PUSH32 0x526571756573746F72206973206D61726B6564206173207370616D2E00000000 PUSH1 0x0 DUP3 ADD MSTORE POP JUMP JUMPDEST PUSH1 0x0 PUSH2 0x17E4 PUSH1 0x1C DUP4 PUSH2 0x1133 JUMP JUMPDEST SWAP2 POP PUSH2 0x17EF DUP3 PUSH2 0x17AE JUMP JUMPDEST PUSH1 0x20 DUP3 ADD SWAP1 POP SWAP2 SWAP1 POP JUMP JUMPDEST PUSH1 0x0 PUSH1 0x20 DUP3 ADD SWAP1 POP DUP2 DUP2 SUB PUSH1 0x0 DUP4 ADD MSTORE PUSH2 0x1813 DUP2 PUSH2 0x17D7 JUMP JUMPDEST SWAP1 POP SWAP2 SWAP1 POP JUMP JUMPDEST PUSH32 0x46756E64207265717565737420616C72656164792066756C66696C6C65642E00 PUSH1 0x0 DUP3 ADD MSTORE POP JUMP JUMPDEST PUSH1 0x0 PUSH2 0x1850 PUSH1 0x1F DUP4 PUSH2 0x1133 JUMP JUMPDEST SWAP2 POP PUSH2 0x185B DUP3 PUSH2 0x181A JUMP JUMPDEST PUSH1 0x20 DUP3 ADD SWAP1 POP SWAP2 SWAP1 POP JUMP JUMPDEST PUSH1 0x0 PUSH1 0x20 DUP3 ADD SWAP1 POP DUP2 DUP2 SUB PUSH1 0x0 DUP4 ADD MSTORE PUSH2 0x187F DUP2 PUSH2 0x1843 JUMP JUMPDEST SWAP1 POP SWAP2 SWAP1 POP JUMP JUMPDEST PUSH32 0x4E487B7100000000000000000000000000000000000000000000000000000000 PUSH1 0x0 MSTORE PUSH1 0x11 PUSH1 0x4 MSTORE PUSH1 0x24 PUSH1 0x0 REVERT JUMPDEST PUSH1 0x0 PUSH2 0x18C0 DUP3 PUSH2 0xE0E JUMP JUMPDEST SWAP2 POP PUSH2 0x18CB DUP4 PUSH2 0xE0E JUMP JUMPDEST SWAP3 POP DUP3 PUSH32 0xFFFFFFFFFFFFFFFFFFFFFFFFFFFFFFFFFFFFFFFFFFFFFFFFFFFFFFFFFFFFFFFF SUB DUP3 GT ISZERO PUSH2 0x1900 JUMPI PUSH2 0x18FF PUSH2 0x1886 JUMP JUMPDEST JUMPDEST DUP3 DUP3 ADD SWAP1 POP SWAP3 SWAP2 POP POP JUMP JUMPDEST PUSH32 0x537573706963696F757320616374697669747920646574656374656421000000 PUSH1 0x0 DUP3 ADD MSTORE POP JUMP JUMPDEST PUSH1 0x0 PUSH2 0x1941 PUSH1 0x1D DUP4 PUSH2 0x1133 JUMP JUMPDEST SWAP2 POP PUSH2 0x194C DUP3 PUSH2 0x190B JUMP JUMPDEST PUSH1 0x20 DUP3 ADD SWAP1 POP SWAP2 SWAP1 POP JUMP JUMPDEST PUSH1 0x0 PUSH1 0x20 DUP3 ADD SWAP1 POP DUP2 DUP2 SUB PUSH1 0x0 DUP4 ADD MSTORE PUSH2 0x1970 DUP2 PUSH2 0x1934 JUMP JUMPDEST SWAP1 POP SWAP2 SWAP1 POP JUMP INVALID LOG2 PUSH5 0x6970667358 0x22 SLT KECCAK256 PUSH12 0x50733D8B3436A54C165B9E41 0xB6 SWAP4 PC LOG0 0xC 0xBB MLOAD DUP8 PUSH17 0xF9BFB1E4FD5D8D73142864736F6C634300 ADDMOD 0xD STOP CALLER "},"gasEstimates":{"creation":{"codeDepositCost":"1314600","executionCost":"25635","totalCost":"1340235"},"external":{"addVerifier(address)":"29269","getRequestCount()":"2468","manager()":"2578","raiseMeFund(string,string,address,uint256)":"infinite","requests(uint256)":"infinite","sendHelp(uint256)":"infinite","spammers(address)":"2890","verifiers(address)":"2845","verifyRequest(uint256,string)":"infinite"}},"methodIdentifiers":{"addVerifier(address)":"9000b3d6","getRequestCount()":"3fad1834","manager()":"481c6a75","raiseMeFund(string,string,address,uint256)":"f4c161a2","requests(uint256)":"81d12c58","sendHelp(uint256)":"c742d867","spammers(address)":"458ad18a","verifiers(address)":"6c824487","verifyRequest(uint256,string)":"2ec86573"}},"storageLayout":{"storage":[{"astId":22,"contract":"Fundraiser.sol:Fundraiser","label":"manager","offset":0,"slot":"0","type":"t_address"},{"astId":26,"contract":"Fundraiser.sol:Fundraiser","label":"verifiers","offset":0,"slot":"1","type":"t_mapping(t_address,t_bool)"},{"astId":30,"contract":"Fundraiser.sol:Fundraiser","label":"spammers","offset":0,"slot":"2","type":"t_mapping(t_address,t_bool)"},{"astId":34,"contract":"Fundraiser.sol:Fundraiser","label":"requests","offset":0,"slot":"3","type":"t_array(t_struct(Request)20_storage)dyn_storage"}],"types":{"t_address":{"encoding":"inplace","label":"address","numberOfBytes":"20"},"t_array(t_struct(Request)20_storage)dyn_storage":{"base":"t_struct(Request)20_storage","encoding":"dynamic_array","label":"struct Fundraiser.Request[]","numberOfBytes":"32"},"t_bool":{"encoding":"inplace","label":"bool","numberOfBytes":"1"},"t_mapping(t_address,t_bool)":{"encoding":"mapping","key":"t_address","label":"mapping(address => bool)","numberOfBytes":"32","value":"t_bool"},"t_string_storage":{"encoding":"bytes","label":"string","numberOfBytes":"32"},"t_struct(Request)20_storage":{"encoding":"inplace","label":"struct Fundraiser.Request","members":[{"astId":3,"contract":"Fundraiser.sol:Fundraiser","label":"name","offset":0,"slot":"0","type":"t_string_storage"},{"astId":5,"contract":"Fundraiser.sol:Fundraiser","label":"description","offset":0,"slot":"1","type":"t_string_storage"},{"astId":7,"contract":"Fundraiser.sol:Fundraiser","label":"recipient","offset":0,"slot":"2","type":"t_address"},{"astId":9,"contract":"Fundraiser.sol:Fundraiser","label":"requestManager","offset":0,"slot":"3","type":"t_address"},{"astId":11,"contract":"Fundraiser.sol:Fundraiser","label":"value","offset":0,"slot":"4","type":"t_uint256"},{"astId":13,"contract":"Fundraiser.sol:Fundraiser","label":"donated","offset":0,"slot":"5","type":"t_uint256"},{"astId":15,"contract":"Fundraiser.sol:Fundraiser","label":"spam","offset":0,"slot":"6","type":"t_bool"},{"astId":17,"contract":"Fundraiser.sol:Fundraiser","label":"legit","offset":1,"slot":"6","type":"t_bool"},{"astId":19,"contract":"Fundraiser.sol:Fundraiser","label":"completed","offset":2,"slot":"6","type":"t_bool"}],"numberOfBytes":"224"},"t_uint256":{"encoding":"inplace","label":"uint256","numberOfBytes":"32"}}},"userdoc":{"kind":"user","methods":{},"version":1}}